:020000040800F2
:10000000C01300200D020008E9290008C5190008E6
:10001000E52900083F040008DD3F0008000000005B
:100020000000000000000000000000003D3100085A
:10003000ED0E0008000000006D2E0008E5390008F4
:1000400027020008270200082702000827020008EC
:1000500027020008270200082702000827020008DC
:1000600027020008050F00082702000827020008E1
:1000700027020008270200082702000827020008BC
:10008000270200082702000827020008FD3E00089A
:10009000553F000827020008270200082702000831
:1000A000270200082702000827020008270200088C
:1000B000553A0008653A0008A13A000827020008EE
:1000C000270200082702000827020008270200086C
:1000D000270200082702000827020008270200085C
:1000E000270200082702000827020008270200084C
:1000F000270200082702000827020008270200083C
:10010000270200082702000827020008270200082B
:10011000270200082702000827020008270200081B
:10012000270200082702000827020008270200080B
:1001300000F002F800F05AF80AA090E8000C82449F
:100140008344AAF10107DA4501D100F04FF8AFF27C
:10015000090EBAE80F0013F0010F18BFFB1A43F0A5
:10016000010318470C4B00002C4B00000A444FF0D1
:10017000000C10F8013B13F0070408BF10F8014B06
:100180001D1108BF10F8015B641E05D010F8016B4B
:10019000641E01F8016BF9D113F0080F1EBF10F8AF
:1001A000014BAD1C0C1B09D16D1E58BF01F801CBD2
:1001B000FAD505E014F8016B01F8016B6D1EF9D555
:1001C0009142D6D37047000000230024002500266A
:1001D000103A28BF78C1FBD8520728BF30C148BFAA
:1001E0000B6070471FB51FBD10B510BD00F0EEF8D5
:1001F0001146FFF7F7FF04F0F3FA00F00CF903B42F
:10020000FFF7F2FF03BC00F013F900000948804734
:1002100009480047FEE7FEE7FEE7FEE7FEE7FEE7E8
:10022000FEE7FEE7FEE7FEE704480549054A064B00
:1002300070470000F539000831010008C0070020B0
:10024000C0130020C00B0020C00B002010B5431CC1
:1002500002E010F8011B71B18107FAD14FF00132B1
:1002600002C88C1A8C4314EAC211F9D0C01A0A06CB
:1002700003D0C01E10BDC01A10BD0A0401D0801EDC
:1002800010BD0902FCD0401E10BD032A40F2308090
:1002900010F0030C00F0158011F8013BBCF1020FC7
:1002A000624498BF11F801CB00F8013B38BF11F848
:1002B000013BA2F1040298BF00F801CB38BF00F85F
:1002C000013B11F0030300F02580083AC0F00880DC
:1002D00051F8043B083A51F804CBA0E80810F5E7C0
:1002E000121D5CBF51F8043B40F8043BAFF30080A3
:1002F000D20724BF11F8013B11F801CB48BF11F818
:10030000012B24BF00F8013B00F801CB48BF00F8E7
:10031000012B704710B5203AC0F00B80B1E818509F
:10032000203AA0E81850B1E81850A0E81850BFF4DF
:10033000F5AF5FEA027C24BFB1E81850A0E818507E
:1003400044BF18C918C0BDE810405FEA827C24BFD2
:1003500051F8043B40F8043B08BF7047D20728BF60
:1003600031F8023B48BF11F8012B28BF20F8023BAF
:1003700048BF00F8012B70474FF0000200B513464C
:1003800094469646203922BFA0E80C50A0E80C50B5
:10039000B1F12001BFF4F7AF090728BFA0E80C5066
:1003A00048BF0CC05DF804EB890028BF40F8042B5F
:1003B00008BF704748BF20F8022B11F0804F18BFCC
:1003C00000F8012B7047704770477047754600F082
:1003D0002BF8AE4605006946534620F007008546D7
:1003E00018B020B5FFF720FFBDE820404FF0000611
:1003F0004FF000074FF000084FF0000B21F007010D
:10040000AC46ACE8C009ACE8C009ACE8C009ACE84F
:10041000C0098D46704710B50446AFF300802046F2
:10042000BDE81040FFF7EBBE004870475C070020B6
:1004300001491820ABBEFEE726000200704700BF4E
:10044000FEE70146CAB20B1243EA022070470000E1
:1004500070B505460024062D11D1104800680078BB
:1004600000F07F0001280AD10C480068407901287B
:1004700005D10A4800688078222800D1084C0CB9C0
:10048000022070BD054800688461002103480068AF
:1004900041820020A0470020F3E700005000002028
:1004A000FD16000810B504460249204603F0FEF888
:1004B00010BD00003C01002010B504460249204652
:1004C00003F0F4F810BD00003401002070B50546BB
:1004D00006480068C478052C01DD002070BD044882
:1004E00000EBC401284603F0E1F8F7E750000020D4
:1004F000440100200246002901DD02207047012A44
:1005000001DD0220FAE70020F8E7014602207047EB
:1005100010B50020284988722848C0792849096800
:100520004872002026490968C87202F01FFE4FF485
:100530000071002002F0FAFE2021002002F0D6FE19
:100540008021002002F042FE1E4890F82C1000206E
:1005500002F04EFE4021002002F0AAFE002000F032
:1005600025FA002002F08AFE4FF4C061032002F059
:10057000DDFE4FF4A071032002F09AFE4FF4C0712B
:10058000032002F023FE4021032002F0A1FE4021BF
:10059000032002F02DFE4FF44051032002F04EFEE6
:1005A0002021032002F0A2FE002002F0E7FD01203E
:1005B0000549086010BD0000400700205C490008A4
:1005C00050000020E00000206C01002070477047C0
:1005D00010B5002005490968887202F06DFC03F02F
:1005E000BDFC00200249086010BD00005000002042
:1005F0006C01002010B5002449E047F6FF7029493E
:1006000008602948008800F00F0028490870084653
:100610000078274901EB8000D0F8000C84B204F484
:100620000040C8B12148007801EB8000D0F8000CF0
:10063000C0F30E0048F68F7108401C4909781C4A27
:1006400002EB8101C1F8000C18490978491E194ACA
:1006500052F8210080471AE004F08000B8B1134836
:100660000078134901EB8000D0F8000C48F60F71B8
:1006700008400E4909780E4A02EB8101C1F8000CCE
:100680000A490978491E0C4A52F82100804705485A
:10069000006880B20449088000F400400028ACD112
:1006A00010BD0000445C0040A00000204C00002071
:1006B00000500040C0000020A400002008B5002029
:1006C000009022E19748008800F00F0096490870DA
:1006D0000846007800287CD1944800689449088036
:1006E0000846008800F03000924908809048008851
:1006F00000F440508E4908808C4909684BF6BF725F
:1007000001EA020080F4005080F0200040F4004133
:1007100041F08001854A11608248008800F0100095
:1007200090BB1046006848F60F71084011460860FB
:1007300002F072F87D4909684BF6BF7201EA0200C7
:100740007B49098801F4805109B180F480507849CF
:10075000098801F4005109B180F4005075490988F5
:1007600001F0100109B180F010007249098801F010
:10077000200109B180F0200081B241F4004141F034
:1007800080016A4A116008BDFFE76848006880B2CE
:100790000090BDF8000000F40060B0B3634800684A
:1007A000C0F30E0048F68F7108406049086002F0FF
:1007B00055FE5E4909684BF6BF7201EA02005C49CA
:1007C000098801F4805109B180F4805058490988A2
:1007D00000E056E001F4005109B180F400505549A1
:1007E000098801F0100109B180F010005149098811
:1007F00001F0200109B180F0200081B241F40041F4
:1008000041F08001494A1160BDE7FFE7BDF80000F3
:1008100000F40040002878D044480068C0F30E007F
:1008200048F68F7108404149086002F0C1F93F491C
:1008300009684BF6BF7201EA02003D49098801F4DC
:10084000805109B180F480503949098801F4005180
:1008500009B180F400503749098801F0100109B14D
:1008600080F010003349098801F0200109B180F0BF
:10087000200081B241F4004141F080012B4A116017
:1008800081E7294800782C4901EB8000D0F8000C62
:1008900080B20090BDF8000000F40040C0B12248D2
:1008A000007801EB8000D0F8000CC0F30E0048F691
:1008B0008F7108401C4909781F4A02EB8101C1F879
:1008C000000C19490978491E1C4A52F8210080473A
:1008D000BDF8000000F08000B8B113480078164958
:1008E00001EB8000D0F8000C48F60F7108400E496B
:1008F0000978114A02EB8101C1F8000C0A49097814
:10090000491E0F4A52F821008047084844300068C9
:1009100080B20449088000F4004000287FF4D2AE81
:1009200000BF30E7A00000204C000020005C004029
:10093000600000206200002000500040C000002045
:10094000A40000200B4A02EB8001D1F8001C01F446
:10095000804171B102EB8001D1F8001C48F68F7222
:1009600011404CF280021143024B03EB8002C2F8AB
:10097000001C7047005000400B4A02EB8001D1F888
:10098000001C01F0400171B102EB8001D1F8001CA4
:1009900048F68F72114048F2C0021143024B03EB3C
:1009A0008002C2F8001C704700500040084A02EB69
:1009B0008001D1F8001C48F68F62114048F2800295
:1009C0001143034B03EB8002C2F8001C7047000088
:1009D000005000407047000003480068807A10B162
:1009E0000520024908607047500000206C0100207B
:1009F0007047000010B500F01DF800F023F804481F
:100A000000F00AF80248407B0249087010BD00005F
:100A1000880100202C00002038B5044604A000689E
:100A200000902146684603F069FD002038BD0000B3
:100A30000100000010B503F0D7FB03F06FFB03F0DB
:100A4000FFFB10BD38B500241EA00068009003F025
:100A500029FD03F0C3FB012801D103F0ABFC00BF6B
:100A60001949684603F04AFD17480078552801D116
:100A7000002038BD03F0B2FB012802D103F09AFC3C
:100A800013E003F0ABFB80B900BF0F49684603F0E9
:100A900035FD0D480078552801D10020E9E72046B2
:100AA000611C8CB2B0F5407FEFDB07480078552819
:100AB00004D02046611C8CB20528D1DB6FF00D00FC
:100AC000D7E70000550000008801002001200149FF
:100AD000087070472F0000202DE9F0472848006873
:100AE00000F110052E8826480068077AD6B9042F31
:100AF00018D12448007801280FD10021224800682D
:100B000080B2801C214A42F8101030202049088011
:100B100000BF00201B49087003E0072710201C4974
:100B2000088027E0AC88A64201D8042000E002201B
:100B30000746B44200D93446A0B2A9688847804627
:100B4000002000F0D3FA8146A2B24946404603F0A5
:100B500047FAA1B2002002F0BBFB2888001B2880C6
:100B600068882044688030200949088000020949CB
:100B7000088000BF024909680F72BDE8F0870000D5
:100B8000500000204A000020505C004000600040FF
:100B900062000020600000202DE9F0412848006834
:100BA00000F110042688A068C0B1BEB1A588B54286
:100BB00000D93546A8B2A168884707462088401B5F
:100BC0002080608828446080002000F06DFA804614
:100BD000AAB24146384602F035F900BF208850B12C
:100BE0004FF44050174908800021084602F070FB7E
:100BF0003020154908802088A188884204DB032022
:100C00000F490968087218E02088002804DD0520D3
:100C10000B490968087210E0208870B9062008495D
:100C20000968087200210948006880B2801C084ADF
:100C300042F81010302004490880BDE8F08100001F
:100C4000500000206000002062000020505C004046
:100C5000006000402DE9F84F9B4800684578002768
:100C6000BA46062D1BD198480068007800F07F0036
:100C7000002813D1944909688878012803D1934941
:100C80000968CF690AE0022803D1904909680F6A10
:100C900004E0032802D18D4909684F6A94E0002DD1
:100CA00064D189480068408800285FD18648006880
:100CB000C08802285AD1844800680079002855D19C
:100CC00081480068007800F07F0028B97E480068FD
:100CD000808808B97E4F77E07B480068007800F094
:100CE0007F00012810D17849096848797749096857
:100CF0008A6900219047002866D173480068807A8D
:100D0000002861D0724F5FE06F480068007800F003
:100D10007F00022858D16C480068407900F00F0627
:100D200069480068407900F07009674800684079B8
:100D300000F0800038B1674901EB8600D0F8000C64
:100D400000F0300806E0634901EB8600D0F8000CA3
:100D500000F4405860480078B04235D9B9F1000F2E
:100D600032D1B8F1000F2FD0594F2DE0082D07D107
:100D700055480068007800F07F0028BB574F23E0FB
:100D80000A2D21D150480068007800F07F0001282A
:100D90001AD14D480068807AB0B14B48006840884D
:100DA00090B949480068007970B947480068C08820
:100DB000012809D1444909684879444909688A6980
:100DC0000021904700B9464F57B13F480068A0F84E
:100DD00012A03D48006887610020B84700240FE05A
:100DE000394A12685078394A1268116988470446AE
:100DF000032C05D10920344909680872BDE8F88F31
:100E000031480068008A4FF6FF71884204D10920FA
:100E10002D4909680872F1E7022C03D02A480068BE
:100E2000008A20B90820284909680872E6E72648A0
:100E30000068007800F08000E0B323480068C088B4
:100E4000009021480068008A0099884204D91E4910
:100E500000980968088223E01B480068008A1A4944
:100E60000968C98888421BDA17480068008A174950
:100E7000096891F82C10884203DA0020194908709B
:100E80000EE011480068008A1049096891F82C109A
:100E900090FBF1F201FB120010B90120114908701A
:100EA0000A48006890F82C10074800688182FFF714
:100EB00013FE07E0FFE703200349096808720003F7
:100EC0000949088000BF99E7500000205400002025
:100ED000FD36000800500040DC000020813600088C
:100EE000D13600084A00002060000020704770479B
:100EF0007047704710B500F047FA10BD10B500F00C
:100F000045FA10BD10B5082000F022F888B108207D
:100F100000F018F80748006820F00800054908604C
:100F20000548007810B101200449087001200449E7
:100F3000087010BD000401400D0000200E000020CC
:100F40000C000020014908607047000014040140B3
:100F5000064A014600201268044B0A4014331B68FD
:100F60000B4202D0002A00D001207047000401404B
:100F700030B51A498379026853B30B6893430B6009
:100F80000A1D13680468A343136002790A441368B6
:100F9000046823431360114A083213680468A343AA
:100FA0001360131D1C680568AC431C604479102C49
:100FB00005D021440A68006802430A6030BD116808
:100FC000046821431160196800680143196030BD4D
:100FD0000079084401689143016030BD000401407C
:100FE000F0B5CA78002502F00F03D20601D58A7841
:100FF00013430A784FF00F0E12F0FF0F4FF001026B
:101000001CD004680F8802FA05F63740B74211D1A8
:101010004FEA850C0EFA0CF724EA070703FA0CF4E2
:101020003C43CF78282F02D0482F02D002E04661FF
:1010300000E006616D1C082DE4D304600C88FF2CD1
:101040001ED944685FF0000606F1080702FA07F5AA
:101050000F882F40AF420FD14FEA860C0EFA0CF7E3
:10106000BC4303FA0CF73C43CF78282F00D14561ED
:10107000CF78482F00D10561761C082EE4D3446058
:10108000F0BD806880B270470246002092680A4234
:1010900000D00120704741617047016170470AB17B
:1010A000016170474161704701460548006880B2A0
:1010B00000EBC100001D034A32F8100080B27047F7
:1010C000505C00400060004001460648006880B265
:1010D00000EBC100801D044A32F81000C0F3090083
:1010E00070470000505C0040006000400146054829
:1010F000006880B200EBC100034A32F8100080B2F1
:1011000070470000505C00400060004010B5BCB06B
:101110000446522127A8FFF72FF99C22054968466B
:10112000FFF7F8F82146684603F0E8F900203CB0E4
:1011300010BD0000E44A000838B505460C46F8200A
:10114000207000206070684600F0CAF958B980200D
:101150002070022060709DF800000838A0709DF893
:1011600000000830E070002038BD000070B5ADF51B
:10117000047D05460C4600260CE0F01C285C3F4927
:101180003F4A12888854701CC6B23D480088401CF3
:101190003B4908806878B042EFDCA87800F0100086
:1011A000002863D1364908806946344803F0A6F91F
:1011B0009DF801003C2805DA9DF8000000F0E000F1
:1011C000802845DD3C202F490880A720207020780A
:1011D0002A4908702B4800786070607848701020A9
:1011E000A070A0788870274802886946E01CFFF745
:1011F0004CF89DF8000000F0E000802808D19DF830
:101200000100821C69461D48C01CFFF73EF830E013
:101210009DF8000000F0E000A02809D19DF8010031
:1012200000F5817269461548C01CFFF72EF820E0D2
:101230009DF8000000F0E000C0281AD19DF80100E0
:1012400000F2022269460D48C01CFFF71EF810E0AC
:10125000A72020709DF80100801C60700020A07005
:1012600062786946E01CFFF710F802E0A6202070C3
:10127000667000200DF5047D70BD0000880100201F
:101280009C0000209800002010B501460022002399
:10129000A72008703148C07800F0E000802807D10E
:1012A0002E480079801C2E4C2488001B83B21CE041
:1012B0002A48C07800F0E000A02808D1274800792B
:1012C00000F58170264C2488001B83B20DE0234872
:1012D000C07800F0E000C02807D12048007900F273
:1012E00002201F4C2488001B83B21C488078401CBD
:1012F0001A4CA0702046807888703C2B12DD0DE0DF
:1013000017480088C01C154C245CD01C0C54501C81
:10131000C2B213480088401C114C20803C2AEFDBED
:101320004A7018E00DE00E480088C01C0B4C245C8D
:10133000D01C0C54501CC2B209480088401C084CF8
:1013400020809A42EFDB4A70887800F00F008870A6
:101350000020034C2080002010BD000088010020E8
:101360009800002010B5BCB00446F022054968463C
:10137000FEF7D0FF2146684603F0C0F800203CB0DD
:1013800010BD0000804B00087047000000B5ADF5AF
:10139000157D32480078012841D1FFF797FB30488E
:1013A000007810B901202E4908704FF440510320F5
:1013B00001F044FF85A9032002F0E2FD9DF814022C
:1013C000012802D0022812D10AE09DF815020A284D
:1013D00005D00DF105010DF2152003F08FF806E0A0
:1013E0000DF105010DF2152000F051FA00BF00BF0C
:1013F00007208DF804009DF806003D2801DD3D2002
:1014000001E09DF806008DF806003021032001F070
:101410006DFF402201A9832002F0C9FD1AE04FF4BC
:101420004051032001F00AFF85A9032002F0A8FD26
:1014300007208DF80400FE208DF8050001208DF8AE
:1014400006003021032001F051FF402201A9832032
:1014500002F0ADFD0DF5157D00BD00000800002077
:101460009B0000207CB5044606A103C9CDE900011C
:1014700007250020207065702A466946A01CFEF7EB
:1014800004FF7CBD4D4231303534780010B505483D
:10149000FFF7F7FD00F0080008B1012010BD0020A3
:1014A000FCE700000008014010B5044680202070D1
:1014B0000120607002F088FEA07010BD08B507A181
:1014C000096800910021017003214170BDF80010EE
:1014D00041809DF80210017108BD00000307010062
:1014E0007FB50446002539A30FCB8DE80F00FC2003
:1014F000207002F073FE012801D102F05BFF374833
:1015000001F07EFB35480078552803D06FF00700C6
:1015100004B070BD69460E2001F080FB2F4802F038
:10152000A5FE2E4800F0A9F8012802D06FF00700B0
:10153000EEE720788DF80B0069460E2001F06EFB77
:10154000264802F093FE254800F0A4F8012802D0B6
:101550006FF00700DCE7002524E0204800F09AF84F
:10156000012805D1217880202841081A20700DE03B
:101570001A4800F082F8012805D1217880202841FE
:101580000844207002E06FF00700C1E720788DF872
:101590000B0069460E2001F041FB104802F066FE88
:1015A000681CC5B2052DD8DD0C4800F073F8012881
:1015B00003D12078001F207006E0084800F05DF895
:1015C000012801D1207820700020A1E703A100F8B4
:1015D00001180020606000003F0100008801002029
:1015E0007FB505460C4616A30FCB8DE80F00F520FE
:1015F00020700020607002F0F1FD012801D102F09E
:10160000D9FE134801F0FCFA11480078552803D0A0
:101610006FF00A0004B070BD0A208DF80000A878B1
:101620008DF80A00E8788DF80B0069460E2001F06D
:10163000F5FA0420074948700020207000BFE9E750
:101640000A2100790118002060606C743F010000DD
:10165000880100201A00002070B505460C46802045
:10166000207001206070FFF711FF10B10120A07001
:1016700001E00020A070002070BD0146087838B954
:101680004878012804D18878022801D101207047C8
:101690000020FCE70146087830B94878012803D1DA
:1016A0008878012800D170470020FCE730B59DB054
:1016B00005460C4600201C90FE2020700020607023
:1016C00069461CA800F026FD802020709DF870005F
:1016D00000EB400101EBC000401C60709DF8700001
:1016E000A0709DF8700000EB400101EBC00269465C
:1016F000E01CFEF7CAFD00201DB030BD10B5044649
:101700000249204601F0D2FF10BD00006401002014
:1017100070B505460C460020607001F017FB10B94B
:101720000020207001E04420207070BD2DE9F041C0
:10173000AEB005460C46002700202D90FE202070FC
:1017400000206070AE786B462DAA3946304600F016
:1017500091FE8046B8F1000F01D0012000E000208A
:1017600000B11EE0802020709DF8B40000EBC000A6
:10177000401C60709DF8B400A0709DF8B400002873
:101780000BDD9DF8B400142807DA9DF8B40000EBD7
:10179000C0026946E01CFEF778FD00202EB0BDE8CF
:1017A000F0816FF00100F9E72DE9F041AEB0054698
:1017B0000C46002700202D90FE2020700020607035
:1017C000AE786B462DAA3946304600F053FF80466E
:1017D000B8F1000F01D0012000E0002000B11CE0B2
:1017E000802020709DF8B400C000401C60709DF8FF
:1017F000B400A0709DF8B40000280ADD9DF8B40084
:10180000102806DA9DF8B400C2006946E01CFEF715
:101810003CFD00202EB0BDE8F0816FF00100F9E73B
:1018200030B5B9B005460C4600203890FE20207037
:101830000020607001A938A800F0FCFB8020207017
:101840009DF8E00005280ADD382060709DF8E00072
:10185000A070372201A9E01CFEF717FD14E09DF8E7
:10186000E00000EB400101EBC000401C60709DF8FF
:10187000E000A0709DF8E00000EB400101EBC00229
:1018800001A9E01CFEF701FD002039B030BD70B5A4
:1018900005460C4680202070002060702878B8280B
:1018A00032D00FDCA0F1A00013287CD2DFE800F0DA
:1018B00046415F5A64696D73777B7B7B7B7B7B7B67
:1018C0007B7B3400BE2819D008DCB92819D0BA288F
:1018D0002BD0BC281CD0BD2865D108E0C3281FD060
:1018E000C4283AD0D0282ED0D1285CD130E002F0E4
:1018F00075FC012801D102F05DFD57E002F0D2FD38
:1019000054E001F01DFC51E0204602F0AFFC4DE038
:101910002046FFF7D3FD49E02046FFF7A3FD45E051
:1019200021462846FFF7F4FE40E02046FFF7BCFDC5
:101930003CE021462846FFF737FF37E0214628469E
:10194000FFF7F4FE32E021462846FFF769FF2DE05D
:1019500021462846FFF7AAFE28E02146284600F047
:1019600027F823E021462846FFF73AFE1EE02146ED
:101970002846FFF771FE19E021462846FFF7DCFBF9
:1019800014E02046FFF7EEFC10E021462846FFF762
:10199000EDFB0BE007E02046FFF776FC06E0204673
:1019A000FFF7B4FB02E0F720207000BF00BF70BD5E
:1019B00002460020024B1870087048707047000003
:1019C0009B00002000BFFEE710B500F001F810BD3D
:1019D00008B514208DF8030003208DF802000420C0
:1019E000ADF8000069460448FFF7FAFA0122042125
:1019F0000148FFF754FB08BD000801402DE9F04FF6
:101A000087B004468B46A9A103C9CDE9050100278B
:101A1000B846B9460026002500200490824603906F
:101A200002908DF814B0224605A9032001F0D8F9E0
:101A30000190019808B1012000E0002000B133E1DD
:101A40006778B846781E205C00F08009E65D781C57
:101A5000255C082D03D1612007B0BDE8F08F1DE1A2
:101A60004FF00009202000EB0611681C0844C0B2AA
:101A70008DF815008EB9A078691CFF228A4090432A
:101A80008DF81600681CC0B240F040008DF81700B9
:101A90009DF816008DF8080067E0012E18D1A07897
:101AA0008DF81600E078691CFF228A4090438DF87B
:101AB0001700681CC0B240F040008DF818009DF877
:101AC00016008DF808009DF817008DF809004CE00D
:101AD000022E1FD1A0788DF81600E0788DF817003F
:101AE0002079691CFF228A4090438DF81800681CF9
:101AF000C0B240F040008DF819009DF816008DF836
:101B000008009DF817008DF809009DF818008DF861
:101B10000A002AE0032E26D1A0788DF81600E0787E
:101B20008DF8170020798DF818006079691CFF2264
:101B30008A4090438DF81900681CC0B240F0400004
:101B40008DF81A009DF816008DF808009DF8170012
:101B50008DF809009DF818008DF80A009DF819000D
:101B60008DF80B0001E0612076E7311DC8B22246F6
:101B700005A901F035F92078802801D061206BE7B4
:101B80006778781E205C00F08009B9F1800F04D1DD
:101B900014F807A0781C205C0390781E205C00F0ED
:101BA0000F00C0F10800C0B20490691C049888427C
:101BB00045D196B99DF81600FF228A409043A1783E
:101BC00008438DF80800E0788DF8090020798DF839
:101BD0000A0060798DF80B0033E0012E10D19DF8DA
:101BE0001700691CFF228A409043A17808438DF8B2
:101BF0000900E0788DF80A0020798DF80B0020E0CC
:101C0000022E0DD19DF81800691CFF228A409043D6
:101C1000A17808438DF80A00E0788DF80B0010E0F9
:101C2000032E0AD19DF81900691CFF228A409043B7
:101C3000A17808438DF80B0003E061200CE76120D8
:101C40000AE78020207084F801809DF80800A070C9
:101C50009DF80900E0709DF80A0020719DF80B00C6
:101C600060719DF808009DF8091048409DF80A1021
:101C700048409DF80B104840A071B9F1800F0DD17C
:101C8000564504D006EB0A00C6B2039D06E006EBFB
:101C90000A00C6B20398401C2844C5B2B9F1800FAF
:101CA0003FF4DEAE0020D7E66120D5E60020080034
:101CB000000000002DE9F0410646304D002493213C
:101CC0003046FFF79BFE8046B8F1000F01D001209F
:101CD00000E0002000B14EE02948C078042804D17B
:101CE0002748D6F80210416005E02548B6F80310F1
:101CF000818071798171B77993222046611CCCB2C1
:101D00002A5470222046611CCCB22A541C48C07848
:101D1000042806D128191A4949680160201DC4B257
:101D20000CE088222046611CCCB22A5428191449A0
:101D30008A88028089798170E01CC4B22046611CC7
:101D4000CCB22F5428222046611CCCB22A543246F1
:101D50002946204601F044F88046B8F1000F01D032
:101D6000012000E0002000B105E0B078044988734C
:101D70000020BDE8F0816120FBE700008A0100201F
:101D8000A10400202DE9F0410646324D00249521A2
:101D90003046FFF733FE8046B8F1000F01D0012036
:101DA00000E0002000B152E02B48C078072805D1A0
:101DB0002948D6F80210C0F8071006E02648B6F801
:101DC0000310A0F8071071794172B7799522204667
:101DD000611CCCB22A5470222046611CCCB22A5419
:101DE0001D48C078072807D129191B48D0F80700DB
:101DF0000860201DC4B20DE088222046611CCCB2D0
:101E00002A5429191448B0F807200A80407A8870AB
:101E1000E01CC4B22046611CCCB22F5428222046BC
:101E2000611CCCB22A5432462946204600F0D8FF25
:101E30008046B8F1000F01D0012000E0002000B181
:101E400005E0B078044988730020BDE8F081612086
:101E5000FBE700008A010020A10400202DE9F041E9
:101E60000646244D002497213046FFF7C7FD8046E3
:101E7000B8F1000F01D0012000E0002000B137E0F0
:101E80001D48D6F80210C0F80710B77997222046EF
:101E9000611CCCB22A5470222046611CCCB22A5458
:101EA0001548C0780A2806D129191348D0F8070028
:101EB0000860201DC4B22046611CCCB22F542822D9
:101EC0002046611CCCB22A5432462946204600F0F6
:101ED00087FF8046B8F1000F01D0012000E000200C
:101EE00000B105E0B078044988730020BDE8F081B6
:101EF0006120FBE78A010020A10400200E49097837
:101F0000890921B1012908D0022912D10BE004214D
:101F1000094AD170012191700BE00721064AD17066
:101F20000221917005E00A21034AD17003219170CA
:101F300000BF00BF70470000A104002038B5044670
:101F400004A00068009022466946032000F048FF84
:101F5000002038BD50002800064800210180416063
:101F600081608181002003498870C870C87308743B
:101F700070470000A104002070B50E4C204600F010
:101F8000DFF805460DB1012000E0002000B10FE0B0
:101F90002146042000F05AFE05460DB1012000E064
:101FA000002000B104E0012003490874002070BD46
:101FB0006120FCE788010020A104002070B51B4DC2
:101FC0002846FFF777FE04460CB1012000E0002010
:101FD00000B129E01648807B00F0040048B1284693
:101FE000FFF7D0FE04460CB1012000E0002000B154
:101FF0001AE00F48807B00F0040048B12846FFF744
:102000002DFF04460CB1012000E0002000B10BE0E0
:102010002846FFF793FF04460CB1012000E00020A2
:1020200000B101E0002070BD6120FCE72E0500201A
:10203000A10400202DE9F04104460E464FF00008AF
:102040000027002500202F4908702070052002F08D
:102050002BF8FFF781FF2DE0FFF77EFFFFF78CFFE6
:1020600020BB322002F03EF8FFF7A8FF00BB264855
:10207000C178207800EB400202EBC000234A1154E3
:1020800000250DE02048001D415D681C227802EB10
:10209000420303EBC20210441C4A1154681CC5B22F
:1020A0000A2DEFDB2078401C207001E04FF0010882
:1020B000781CC7B2B8F1000F01D10A2FCCDD20780F
:1020C000052809DC207800EB400101EBC0020F4934
:1020D0003046FEF7DAF813E037220C493046FEF7B7
:1020E000D4F82078401F074908700846007800EBB4
:1020F000400101EBC002054937310548FEF7C5F83C
:10210000BDE8F08124000020A104002099030020F4
:102110006104002070B504460D460748007800EBC6
:10212000400101EBC00205492846FEF7AEF802481F
:102130000078207070BD00002400002061040020A1
:1021400038B504460BA0006800902246694602207C
:1021500000F046FE05460DB1012000E0002000B170
:1021600006E0054861880180FFF7C8FE002038BD01
:102170006120FCE726070000A104002030B50346DB
:102180000C464FF6FF71002213E0985C4140082591
:102190000BE001F0010020B148F2084080EA610044
:1021A00000E048100146681E45B2002DF1DC501CCD
:1021B00042B2A242E9DBC84300B230BD014601F0A1
:1021C000100008B1012070470020FCE72DE9FF4F07
:1021D00085B014469946129E002500200090824644
:1021E0000027FF20307000207070402C04DD6FF05D
:1021F0000C0009B0BDE8F08F059800F031F9804679
:10220000B8F1000F01D0012000E0002000B171E022
:1022100029466A1CD5B201AA0598505401222846C5
:10222000691CCDB201A90A540598FFF7C7FF012820
:1022300005D129466A1CD5B201AA069850542846F1
:10224000691CCDB201A90C54E4B3402C02D1082082
:10225000009007E02046E11704EB5171C910491CBA
:10226000C9B200910098401EA4EBC00000F0FF0A24
:10227000BAF1000F06D0012000FA0AF0401E4FFA12
:1022800080FB01E04FF0FF3B009801280EDD0027A6
:1022900008E019F807202846691CCDB201A90A54A4
:1022A000781C47B20098401EB842F2DCBAF1000F29
:1022B00008D019F8070000EA0B0029466A1CD5B2BD
:1022C00001AA5054324601A9284600F089FD8046F3
:1022D000B8F1000F01D0012000E0002000B109E0BA
:1022E0003146042000F0B2FC10B16FF00E0080E720
:1022F00000207EE76FF00E007BE72DE9FF4F85B0F1
:1023000006468A46DDE912474FF00008C14626F02E
:1023100020004FFA80FB0020207001A800900BF0F5
:10232000FF005146DDE90723FFF750FF054635B9A9
:1023300001A800F073F810B94FF001090AE04DB997
:102340009DF80500821C01A93846FDF79EFF207804
:10235000401C207023E0052001F06AFE01A800F077
:10236000E9F905465DB901A800F058F838B901202F
:1023700000FA08F040EA09000FFA80F90FE075B999
:1023800023789DF80510891C03FB01709DF805104A
:102390008A1C01A9FDF779FF2078401C2070404677
:1023A000411C4FFA81F80F28D5DB484609B0BDE83B
:1023B000F08F2DE9F84F04460D4616461F46DDF80E
:1023C000288044F020004FFA80F909F0FF003B46D6
:1023D00032462946CDF80080FFF7F8FE8246504687
:1023E000BDE8F88F01460878802801D100207047A9
:1023F0000878882801D10020F9E708788E2801D1D3
:102400000020F4E76FF00E00F1E7014601F0200034
:1024100008B1002070476FF00E00FBE701464878D6
:10242000401C085C00F00302032A01D10020704721
:102430006FF00E00FBE770B505460C46002624B190
:1024400021462846FFF79AFE0646F04380B24FF237
:10245000B801884202D06FF00E0070BD0020FCE78A
:10246000014601F0040008B1002070476FF00E0033
:10247000FBE700002DE9FF4FADF2344D83461546D2
:1024800098460026CDF828B0B14601240027002048
:1024900006902BF0040040F02000059004200490EA
:1024A0000020039080210BA8FDF766FF0020287014
:1024B0006F480DF22C4332460090DDF838140A982C
:1024C000FFF777FF6A48FFF78DFF20B100200DF27C
:1024D000444DBDE8F08F04A800906548417807ABF3
:1024E00009AA00F036F98246BAF1000F18D101208E
:1024F00028705F489DF810208118059800F057F962
:102500009DF81C0088F8000059489DF810100844F8
:102510000168C8F801104068C8F805000020D6E737
:102520000A2001F085FD0020287000BF0020CDF8B2
:102530002C04CDF83004601EC4B20BA800EBC4001C
:1025400050F8011FCDF82C144068CDF830044848ED
:1025500008A90DF22C433246CDE90010DDF83814FD
:102560000A98FFF7CAFE80B203904FF000090027D7
:1025700037E004A83E4A0090517802EB090007AB0F
:1025800009AA00F0E6F88246BAF1000F1FD19DF8C3
:1025900010004844364A8118059800F008F99DF863
:1025A0001C00297801EBC10108F80100287800EB34
:1025B000C000401C40449DF8101049442C4A11446E
:1025C0000A680260496841602878401C28702849E0
:1025D00009F10100085C801C484400F0FF09781CE8
:1025E000C7B29DF820008742C3DB301DC6B200276A
:1025F0002FE00120B8400399084040B3301FC217B4
:1026000000EB5272D2100DF22C439A5C311FCB17A3
:1026100001EB5373DB10A1EBC30307FA03F31A4377
:10262000D3B2C21700EB5272D2100DF22C4C0CF840
:1026300002300BA800F8346000EBC400DDF82C1465
:1026400040F8011FDDF830144160601CC4B2781CF2
:10265000C7B2102FCDDB0698401CC0B20690002CEC
:1026600003DD06982028FFF661AF00202FE7000069
:10267000880100202DE9F04FADF5097D80468A469E
:1026800014461E464FF0000BCDF818800025A946D1
:1026900004200290802107A8FDF76EFE0020207024
:1026A000234804A987AB5A46CDE900105146069845
:1026B000FFF723FE9DF8100028B9002020700DF5CB
:1026C000097DBDE8F08F0025A9462BE002A8184A35
:1026D00000905178501903AB05AA00F03AF807466C
:1026E000B7B99DF80C00217801EBC1017054207836
:1026F00000EBC000401C30449DF8081029440C4AEF
:1027000011440A680260496841602078401C2070CA
:102710000749681C085C801C2844C5B209F1010007
:1027200000F0FF099DF810008145CFDB0020C6E7CF
:102730008801002010B50446204600F043FB2146E6
:10274000042000F083FA10B16FF00E0010BD0020DD
:10275000FCE72DE9F05F044617469846DDF828901F
:1027600094F802A06078401E00F0FF0B0225BAF139
:10277000000F03D06FF00E00BDE8F09F60195946BE
:10278000FFF759FE06460EB1012000E0002000B11F
:102790000AE0605D3870681C205C88F80000A81CA6
:1027A00089F800000020E7E76FF00B00E4E72DE96F
:1027B000FF4105460E4600242846FFF726FE074641
:1027C0000FB1012000E0002000B11CE02046611C98
:1027D000CCB201A90D5402222046611CCCB201A941
:1027E0000A5401A82044316801607168416004F115
:1027F0000800C4B26A4601A9204600F0F1FA0020A0
:1028000004B0BDE8F081FF208DF8000000208DF8B5
:1028100001006FF00E00F3E710B518480068047A65
:10282000022C01D0042C05D1FEF756F9134800689C
:10283000047A1CE0062C19D110480068407805285D
:102840000ED10E480068007800F07F0040B90B49B7
:102850000968C87800F092FC09490968086A80474D
:102860000849096888688047082400E0082403496B
:1028700009680C7200F0FCFA10BD00005000002046
:102880005C0000205400002008B54FF4A06000F068
:10289000DFF809208DF8000001208DF801008DF887
:1028A00002008DF80300684600F0A0F81D208DF8A6
:1028B000000000208DF801008DF8020001208DF845
:1028C0000300684600F092F81E208DF800000020FA
:1028D0008DF8010001208DF802008DF80300684694
:1028E00000F084F81C208DF8000001208DF8010014
:1028F00003208DF8020001208DF80300684600F0E7
:1029000075F814208DF8000002208DF801008DF874
:10291000020001208DF80300684600F067F81320DC
:102920008DF8000002208DF8010001208DF80200D2
:102930008DF80300684600F059F817208DF8000064
:1029400000208DF801008DF8020001208DF80300B1
:10295000684600F04BF80A208DF8000000208DF842
:10296000010001208DF802008DF80300684600F098
:102970003DF808BD38B504460B4951F82400012143
:1029800000F0DAFA094830F81400ADF80000102021
:102990008DF8030003208DF80200054951F824004A
:1029A0006946FEF71DFB38BD444900084849000848
:1029B00044000020034931F81010034A52F8202047
:1029C000516170474849000844000020034931F82C
:1029D0001010034A52F8202011617047484900083E
:1029E0004400002000BFFEE77047704770B50F231A
:1029F000C47801780122F4B1144C2468457804F4B9
:102A0000E064C4F5E064240AC4F10406E340847879
:102A1000B5401C402C4301F1E021230181F8003432
:102A2000007800F01F018A404009800000F1E0209A
:102A3000C0F8002170BD01F01F00824048098000ED
:102A400000F1E020C0F8802170BD00000CED00E036
:102A50000249084302490860704700000000FA0577
:102A60000CED00E0024A114001430248016070474A
:102A700080FFFF1F08ED00E070B5022647480068A0
:102A8000447846480068007800F07F00002844D170
:102A9000092C03D100F0B2FE06465FE0052C14D1EC
:102AA0003E480068C0787F280BDC3C48006880788E
:102AB00038B93A480068808818B938480068807A80
:102AC00008B1082565E0002648E0032C0ED1334804
:102AD0000068C078012807D130480068808818B99C
:102AE00000F0B0FE064639E0022637E0012C35D171
:102AF0002A480068C07801280DD1284800688088DD
:102B000048B926480068407A00F0200018B100F06B
:102B100001FD064622E0022620E0204800680078F9
:102B200000F07F00012805D10B2C17D100F006FF23
:102B3000064613E019480068007800F07F0002287C
:102B40000BD1012C03D100F0E5FC064606E0032C76
:102B500004D100F08BFE064600E002264EB1E0B242
:102B60000F4A1268516988470646032E01D109258C
:102B70000FE00EB108250CE0062500210948006889
:102B800080B2801C084A42F81010302007490880A3
:102B900000BF024909680D7270BD0000500000209E
:102BA00054000020505C00400060004062000020A3
:102BB00010B511480068047A022C01D0042C01D110
:102BC000082412E0032C01D0052C05D1FDF7E4FF09
:102BD00009480068047A08E0072C05D1074909680C
:102BE000C8688047082400E00824034909680C727B
:102BF00000F03EF910BD00005000002054000020FD
:102C000038B5044604A0006800902146684601F0EB
:102C100075FC002038BD0000550000007FB504465B
:102C20000D460E2C02D0272004B070BD07208DF871
:102C300000008DF80140224629460DF10200FDF703
:102C400024FB684601F08CFC0020EDE70246087882
:102C5000212801D123207047082A61D008DC012AED
:102C600013D0022A17D0042A24D0072A6BD14CE0B3
:102C7000092A60D00A2A64D0552A64D108785528D8
:102C800001D10020E7E72120E5E7087808B9002016
:102C9000E1E72120DFE7087820B1822804D08328EB
:102CA00006D103E00020D6E72120D4E72120D2E797
:102CB0002120D0E708788038112824D2DFE800F0FE
:102CC00009232323232311131517191B1D1F212348
:102CD0000F00487808B10020BDE72120BBE70020A5
:102CE000B9E72120B7E72120B5E72120B3E721206C
:102CF000B1E72120AFE72120ADE72120ABE721207C
:102D0000A9E72120A7E72120A5E7087810B18228AC
:102D100004D101E000209EE721209CE721209AE7D2
:102D2000087810B1822804D101E0002093E7212027
:102D300091E721208FE7087808B900208BE7212050
:102D400089E7212087E7012085E7000010B50024EE
:102D50001A480078012801D101F02CFB00BF184867
:102D6000FFF74EFF16480078552801D1002010BD0E
:102D700012480078012802D101F01CFB12E00F4834
:102D8000007878B900BF0E48FFF73AFF0C4800788A
:102D9000552801D10020EAE72046611C8CB2B0F52D
:102DA000407FF0DB06480078552804D02046611C9F
:102DB0008CB20528D3DB2620D9E700001A000020BA
:102DC0008801002038B5044604A000680090214620
:102DD000684601F093FB002038BD000004000000AD
:102DE00070B5C2B004460E4615462120287000205A
:102DF0006870012C03DBFF2C01DC012000E00020C7
:102E000010B9272042B070BD04208DF804008DF861
:102E10000540224631460DF10600FDF736FA2946F7
:102E200001A801F06BFB29460420FFF70FFF30B12A
:102E30002878872801D12820E4E72120E2E7002034
:102E4000E0E70000F0B5561C7510074E06EB410494
:102E50002B4605E034F8047B20F8017B401C5B1E08
:102E6000002BF7D1F0BD000000600040704700006B
:102E700010B50D4890F82C10002000F0B9F90B485F
:102E80000068007A082805D140020949088010200E
:102E90000849088005480068007A092801D1012006
:102EA00010BD0020FCE70000E000002050000020E2
:102EB000600000206200002001210B48016000201A
:102EC0000A4A108010460088074A10600020121D30
:102ED00010604FF4E050054A108010460088024A06
:102EE0001060002070470000405C00405A00002045
:102EF000044A0029516901D0014300E08143516136
:102F00007047000000100240044A0029D16901D036
:102F1000014300E08143D16170470000001002408E
:102F2000044A0029116901D0014300E08143116185
:102F30007047000000100240044A0029916901D046
:102F4000014300E08143916170470000001002409E
:102F5000044A0029D16801D0014300E08143D160D7
:102F6000704700000010024030B51F494A6812F057
:102F70000C031E4A03D0042B01D0082B21D0026081
:102F80004A680F231A4C03EA1212A35C0268DA4063
:102F900042604B68072505EA1323E35C22FA03F33A
:102FA00083604B6805EAD323E35CDA40C26049687A
:102FB000032303EA9131231F595CB2FBF1F1016154
:102FC00030BD4A684B6802F470124FF0020413F4EB
:102FD000803F04EB924202D04B689B0301D5054B26
:102FE00000E0024B5A43CAE70010024000127A0088
:102FF0003400002000093D000149C1F8D8007047A5
:10300000000042420029018802D041F0400101E065
:1030100021F0400101807047114910B588420AD162
:10302000841401212046FFF793FF2046BDE810409D
:103030000021FFF78DBF0B49884202D10121041402
:1030400004E0094988420AD10121C4132046FFF750
:1030500067FF2046BDE810400021FFF761BF10BDAB
:103060000030014000380040003C00400246002093
:1030700012890A4200D001207047808970478181FF
:10308000704730B502884C8802F441530A88CD88D5
:1030900022438C882C4322430C8922434C892243AF
:1030A0008C892243CC8922431A430280828B22F4EA
:1030B00000628283098A018230BD2DE9F041804699
:1030C0000E4615461F46B5F5047F02DD4FF4047029
:1030D00000E028460546002406E0315D404600F049
:1030E00007F83855601C84B2AC42F6DBBDE8F081CD
:1030F00070B504460D4600BF02212046FFF7B6FF1B
:103100000028F9D029462046FFF7B9FF00BF01216A
:103110002046FFF7ABFF0028F9D02046FFF7ADFFB0
:10312000C0B270BD0021018041808180C1800181D9
:1031300041818181C1810721018270477047000070
:1031400010B510210848FDF7A8FF012000F070FF1E
:1031500010210548FDF79FFF012000F069FF1021B5
:103160000148FDF79AFF10BD000801404FF6F871C5
:103170000140014A11607047505C004030B5014683
:103180000F4B1A78002014E003060E4C04EB935307
:10319000D3F8003C48F68F74234048F28004234360
:1031A000C4B223430406074D05EB9454C4F8003C15
:1031B000401C9042E8D341F08003034C236030BDB3
:1031C000DC000020005000404C5C004010B54A106C
:1031D0005300054A126892B202EBC002121D034C62
:1031E00044F8123010BD0000505C00400060004008
:1031F00010B502460F48006880B200EBC200801D87
:103200000D4C04EB40033E290BDD481101F01F0477
:103210000CB9441EA0B24FF4004444EA80241C6060
:1032200007E0481001F001040CB1441CA0B2840274
:103230001C6010BD505C00400060004030B50E4C7A
:1032400004EB8003D3F8003C4BF68F7403EA0402CE
:1032500001F480530BB182F4805201F400530BB19E
:1032600082F4005242F4004343F08003024D05EB28
:103270008004C4F8003C30BD0050004010B50B4B3A
:1032800003EB8002D2F8002C4BF68F7302EA0301A5
:1032900081F4805181F4005141F4004242F08002F7
:1032A000024C04EB8003C3F8002C10BD005000401A
:1032B00010B54A105200044B1B689BB203EBC003CD
:1032C000024C44F8132010BD505C004000600040E8
:1032D000044A126892B202EBC002921C024B43F8FD
:1032E00012107047505C00400060004030B50E4C3A
:1032F00004EB8003D3F8003C48F6BF7403EA0402F1
:1033000001F010030BB182F0100201F020030BB1A9
:1033100082F0200242F4004343F08003024D05EBAB
:103320008004C4F8003C30BD0050004010B5074B8D
:1033300003EB8002D2F8002C48F68F131A400A43A0
:10334000024C04EB8003C3F8002C10BD0050004079
:1033500010B500F001F810BD0CB5002001900090F0
:103360003348006840F480303149086000BF30487D
:10337000006800F4003000900198401C0190009813
:1033800018B90198B0F5A06FF1D12948006800F490
:10339000003010B10120009001E000200090009862
:1033A000012843D12348006840F0100021490860FB
:1033B0000846006820F0030008600846006840F0F6
:1033C000020008601A484068194948600846406889
:1033D00048600846406840F480604860084640689D
:1033E00020F47C1048600846406840F4E8104860CB
:1033F0000846006840F08070086000BF0C48006814
:1034000000F000700028F9D00948406820F003005F
:10341000074948600846406840F00200486000BF25
:103420000348406800F00C000828F9D10CBD0000EA
:10343000001002400020024010B500F049FD0121BB
:10344000C806FFF761FD10BD10B50020FFF7D4FDE1
:103450000121C805FFF758FD10BD000038B5012453
:103460002948006880B2001D284931F8100080B258
:1034700001EB4000009026480068007A092832D00D
:10348000009800782249096808700098401C009054
:10349000009800781E49096848700098401C009008
:1034A000009800EB44000090009931F8020B009165
:1034B000FCF7C7FF164909684880009800EB4400F4
:1034C0000090009931F8020B0091FCF7BAFF104907
:1034D00009688880009800EB4400009000980088FC
:1034E0000B490968C8800120094909680872084821
:1034F0000068C08810B9FFF7BFFA01E0FDF7AAFB2A
:10350000FFF7B6FC38BD0000505C00400060004092
:10351000500000202DE9F04754480068007800F082
:103520007F08B8F1000F0AD150480068407A00F0D7
:10353000DF004E49096848720020BDE8F087B8F105
:10354000020F7CD149480068408818B94748006894
:10355000007908B10220F0E7DFF8149143480068D1
:10356000477927F080052C4640480068407900F0F4
:10357000800038B13F4901EB8400D0F8000C00F026
:10358000300606E03B4901EB8400D0F8000C00F463
:10359000405699F80000A84204D91EB1334800688B
:1035A000807A08B90220C8E707F0800080B131496D
:1035B00001EB8400D0F8000C00F0300010284BD153
:1035C000E0B2FDF7D9F9E0B23021FFF78FFE43E01A
:1035D000284901EB8400D0F8000C00F44050B0F50D
:1035E000805F39D1E4B9244A92F82C10E0B2FFF799
:1035F000FFFD204A02EB8401D1F8001C4BF68F72CC
:1036000001EA020080F4805080F4005040F4004150
:1036100041F08001174B03EB8402C2F8001C1BE051
:10362000E0B2FDF78FF9134A02EB8401D1F8001CD8
:103630004BF68F7201EA020080F4805000E011E046
:1036400080F4005040F4004141F08001094B03EB4D
:103650008402C2F8001C00BF084909684869804715
:1036600000206AE700BF022067E70000500000204A
:10367000DC00002000500040E00000205C00002042
:1036800010B504462CB901200649096808820020BB
:1036900010BD0549096808688047024800680A307B
:1036A000F6E70000500000205C00002010B5024644
:1036B00006480068438A32B98888C01A034C2468D7
:1036C0002082002010BD08681844FBE7500000204D
:1036D00010B504462CB9012006490968088200206B
:1036E00010BD0549096888688047024800680C30A9
:1036F000F6E70000500000205C00002010B50446F2
:103700002CB90220394909680882002010BD002028
:103710003749088035480068007800F07F0018BB02
:1037200032490968487A00F0200131B130490978FE
:1037300041F002012E4A117005E02D49097801F08F
:10374000FD012B4A117000F0400131B12849097880
:1037500041F00101264A117005E02549097801F080
:10376000FE01234A11703AE020480068007800F01A
:103770007F00012801D11E48C8E71C480068007876
:1037800000F07F00022828D1184A1268517901F010
:103790000F0001F080027AB1164B03EB8002D2F8E1
:1037A000002C02F03002102A16D1114A127842F091
:1037B00001020F4B1A700FE00E4B03EB8002D2F8A0
:1037C000002C02F44052B2F5805F05D1084A12780D
:1037D00042F00102064B1A7001E0002096E706490C
:1037E000096808698047024890E7000050000020FF
:1037F00048000020005000405C00002010B50E483A
:103800000068C0780D494978884213DC0A4800688E
:10381000807878B908480068808858B906480068F8
:10382000C078054909688872054909684868804771
:10383000002010BD0220FCE750000020DC0000202A
:103840005C00002010B507480068407A40F0200076
:1038500004490968487204490968C869804700201A
:1038600010BD0000500000205C0000202DE9F04158
:103870002E480068467926F080073C462B480068B1
:10388000407900F0800038B1294901EB8400D0F87C
:10389000000C00F0300506E0254901EB8400D0F86B
:1038A000000C00F4405523480078A04208D91F4876
:1038B0000068408820B91DB11C480068807A10B9A2
:1038C0000220BDE8F08106F08000A0B1184A02EBAA
:1038D0008401D1F8001C48F6BF7201EA020080F0B2
:1038E000100040F4004141F08001114B03EB8402D1
:1038F000C2F8001C14E00E4A02EB8401D1F8001C4F
:103900004BF68F7201EA020080F4805040F40041CF
:1039100041F08001064B03EB8402C2F8001C00BF9B
:1039200005490968886980470020CAE750000020DF
:1039300000500040DC0000205C00002010B5174B58
:103940001B68D978154B1B685879154B1B689A6909
:103950009047044611480068807AE8B13CB90F48A6
:103960000068007918B90D480068807808B1022015
:1039700010BD8CB90B490968C868804707480068C2
:10398000407906490968C87204480068C07803494C
:10399000096808730020EBE70220E9E750000020E7
:1039A000540000205C00002010B5044600200649A9
:1039B0000870064804802146054800F0A4F801215B
:1039C000034800F08EF810BD1800002022000020EF
:1039D0000004004010B50021014800F082F810BD3D
:1039E0000004004002480068401C0149086070471C
:1039F0001400002010B51348006840F00100114980
:103A0000086008464068104908400E49486008466A
:103A100000680E4908400B4908600846006820F419
:103A2000802008600846406820F4FE0048604FF49B
:103A30001F008860FFF78CFC4FF0006004490860AD
:103A400010BD0000001002400000FFF8FFFFF6FE6E
:103A500008ED00E010B50121880700F03FF800F004
:103A6000DBFA10BD10B50B480088002805DD0948B9
:103A70000088401E0749088006E0012006490870BA
:103A80000021064800F02DF80121044800F026F836
:103A900010BD00002200002018000020000400409B
:103AA00010B50B480088002805DD09480088401E35
:103AB0000749088006E001200649087000210648F1
:103AC00000F00FF80121044800F008F810BD0000D4
:103AD000200000202E00002000080040C943018281
:103AE00070470029018802D041F0010101E021F076
:103AF000010101807047002A828901D00A4300E059
:103B00008A438281704781847047000030B5028803
:103B10001B4B1C4C98420DD0A0420BD0B0F1804FF3
:103B200008D0194DA84205D0184DA84202D0184D12
:103B3000A84203D122F070054A882A43154DA842B5
:103B400006D0154DA84203D022F44075CA882A43F6
:103B500002808A8882850A88028598420AD0A0421B
:103B600008D00E4A904205D00D4A904202D00D4A2C
:103B7000904201D1097A01860121818230BD000085
:103B8000002C0140003401400004004000080040C7
:103B9000000C0040001000400014004000400140B4
:103BA00000440140004801400029018802D041F052
:103BB000040101E021F00401018070470EB54720A7
:103BC000ADF804004FF47A70ADF800000020ADF8B5
:103BD0000600ADF8020069464FF08040FFF796FFFF
:103BE00000214FF08040FFF7DFFF01218807FFF73A
:103BF00075FF012211469007FFF77DFF00214FF06E
:103C00008040FFF76EFF0EBD0EB52320ADF8040017
:103C10000120ADF800000020ADF80600ADF802006C
:103C200069464FF08040FFF771FF00214FF0804060
:103C3000FFF7BAFF01218807FFF750FF0122114665
:103C40009007FFF758FF00214FF08040FFF749FF32
:103C50000EBD10B500F003F800F007F810BD10B568
:103C600001210720FFF750F910BD0EB500F074FDDB
:103C700000F014FD4720ADF8040040F2E730ADF845
:103C800000000020ADF80600ADF8020069464FF0D4
:103C90008040FFF73BFF00214FF08040FFF784FF9B
:103CA00001218807FFF71AFF012211469007FFF74D
:103CB00022FF0EBD2DE9F04107460E461546B5F52B
:103CC000047F02DD4FF4047000E02846054600241E
:103CD00005E0384600F008F83055601C84B2AC426C
:103CE000F7DBBDE8F081000010B5044640F6B830BF
:103CF000FFF75AFE00BF2021204600F073F818B9E4
:103D0000054800780128F6D1FFF764FE204600F050
:103D1000C7F8C0B210BD0000180000202DE9F04126
:103D200007460D461646002405E0295D384600F09A
:103D300006F8601C84B2B442F7DBBDE8F08170B5D0
:103D400004460D4600BF8021204600F04BF80028B5
:103D5000F9D02946204600F0A7F870BD00298189D6
:103D600002D041F4005101E021F4005181817047FB
:103D7000174910B588420AD101218C032046FFF76C
:103D8000E7F82046BDE810400021FFF7E1B81149EF
:103D9000884202D101214C0410E00F49884202D12F
:103DA00001218C040AE00D49884202D10121CC0492
:103DB00004E00B4988420AD101210C052046FFF797
:103DC000AFF82046BDE810400021FFF7A9B810BDAC
:103DD000003801400044004000480040004C0040D2
:103DE000005000400246002012880A4200D0012004
:103DF0007047000030B50446008A85B00D464CF689
:103E0000FF710840E98801432182A1894EF6F31031
:103E10000140A8882A8910436A890A431043A08177
:103E2000A08A4FF6FF410840A9890143A182684654
:103E3000FFF79AF81948844201D1039800E00298EC
:103E4000A189090400EBC00101EB0010296801D52C
:103E5000490000E08900B0FBF1F06422B0FBF2F110
:103E600009010B096FF018056B4300EB8300A38970
:103E70001D044FF0320306D503EBC000B0FBF2F097
:103E800000F0070005E003EB0010B0FBF2F000F0DB
:103E90000F000843208105B030BD0000003801400C
:103EA0008088C0F308007047C1F308018180704723
:103EB00010B5044624B101210448FDF7ECF803E0F5
:103EC00001210248FDF7E9F810BD0000000C014097
:103ED00008B501210820FFF72FF80120ADF80000F8
:103EE00003208DF8020014208DF803006946024873
:103EF000FDF776F808BD0000000C014010B5FCF796
:103F000079FB10BD10B50F4800680F4908800846BE
:103F1000008800F400400D490988084008B1FCF70A
:103F2000CDFB0948008800F48060084909880840F2
:103F300030B14FF6FF3003490860054948688047B3
:103F400010BD0000445C0040A00000205A0000208A
:103F5000E000002010B5FFF7D5FF10BD0020064996
:103F600008604FF40440054908800846008802496B
:103F7000091F086000207047445C00405A00002080
:103F80002DE9F04104460E46002504F07F00FDF7C0
:103F90009BF8054604F07F00FDF786F807462A46A1
:103FA00039463046FEF74EFF2846BDE8F0812DE940
:103FB000F04104460E46154604F07F00FDF796F8E2
:103FC0000746AAB23946304600F00AF8A9B204F012
:103FD0007F00FFF77DF90020BDE8F08100BFFEE71C
:103FE000F0B5144604F1010C4FEA6C07DFF824C069
:103FF0000CEB41033D460AE00678401C90F800C0F7
:1040000046EA0C2223F8022B9B1C401C6D1E002D3F
:10401000F2D1F0BD006000400448008820B10348A0
:104020000088401E01490880704700000A000020F7
:1040300038B50446601C1B4908801C208DF8000020
:1040400000208DF801008DF8020001208DF803009A
:104050006846FEF7CBFC01218807FFF73FFD0021F2
:104060004FF08040FFF74FFD01218807FFF739FD32
:1040700000BF0C4800880028FBD100214FF0804091
:10408000FFF72FFD1C208DF8000001208DF80100A6
:1040900003208DF8020001208DF803006846FEF72A
:1040A000A5FC38BD0A00002010B50446601C0C4970
:1040B0000880FFF783FD00214FF08040FFF723FDCC
:1040C00001218807FFF70DFD00BF05480088002883
:1040D000FBD100214FF08040FFF703FD10BD000031
:1040E0000A00002010B504460B480480FFF78CFD41
:1040F00000214FF08040FFF706FD01218807FFF700
:10410000F0FC00BF044800880028FBD100214FF0DC
:104110008040FFF7E6FC10BD0A00002010B500F05B
:1041200001FB01200149C87010BD00001A000020E9
:1041300008B52020ADF8000003208DF802001820FB
:104140008DF8030069461148FCF74AFF8020ADF85E
:10415000000069460D48FCF743FF04208DF803007A
:104160004020ADF8000069460848FCF739FF1020F0
:10417000ADF800008DF8030069460448FCF730FFF5
:1041800010210248FCF789FF08BD0000000801402B
:1041900008B50420ADF8000003208DF802001820B7
:1041A0008DF8030069460748FCF71AFF0820ADF8B0
:1041B000000004208DF8030069460248FCF710FF58
:1041C00008BD00000008014010B502210248FCF7BC
:1041D0005BFF40B210BD0000000C014001480078B8
:1041E000704700001A0000200120054908700020D7
:1041F000C870032048700020087188707047000064
:104200001A00002010B50548FEF706FF00F04EF832
:10421000FFF78EFF00F006FA10BD000000300140ED
:1042200010B504460548FFF7A3FD00F049F8FFF775
:10423000AFFF204600F018FA10BD00000044004017
:1042400010B5FFF7C1FF38B1012007490870FFF72B
:10425000D9FFFDF7B9FB06E00020034908704FF4D1
:104260006140FFF7DDFF10BD1A00002010B50446C5
:10427000FE202070002060700B48007801280BD1D0
:1042800000F0BAF820B1FD2020706FF0020010BDE0
:10429000204600F01FF805E00348007810B92046DA
:1042A00000F06EF80020F2E71A00002010B501219E
:1042B0000420FEF741FE01210803FEF73DFE10BD7C
:1042C00010B501210420FEF737FE01214804FEF756
:1042D0001BFE10BD30B5ADF5057D0446002510214F
:1042E0002548FCF7D8FE02212448FEF701FFFF21F4
:1042F0002248FEF7FDFE2070207855280CD10020C2
:104300006070FF211D48FEF7F3FEA070FF211B48DF
:10431000FEF7EEFEE07027E02078FF280CD10020A9
:104320006070FF211548FEF7E3FEA070FF211348DF
:10433000FEF7DEFEE07017E0FF211048FEF7D8FE22
:104340006070207800F0E000802801D1607858B1DA
:10435000207800F06005607800EBC505A31C2A46B4
:1043600001A90648FEF7A9FE10210348FCF795FEB7
:104370000DF5057D30BD0000000801400030014012
:1043800010B504460A48FFF7AFFC20702078552886
:1043900002D1002060700AE00548FFF7A5FC6070BC
:1043A000607820B16278A11C0148FFF783FC10BD42
:1043B0000044004010B510210D48FCF76EFE0120AE
:1043C000FFF736FE10210A48FCF765FE00F0FEF804
:1043D00010210748FCF761FE0320FFF729FE00F0DB
:1043E00061F80A20FFF724FE05200249487010BD3D
:1043F000000801401A00002010B50024224800786F
:1044000018B140F6B830FFF7CFFA2048C078E8B9C5
:1044100000BF01211E48FFF764FB10211D48FCF777
:104420003AFE0220FFF740FE03211B48FEF760FE24
:10443000044604F00804082C03D01848007801282A
:10444000E7D110211348FCF728FE11E00F48C0788F
:1044500001280DD100BF1248007880F001000F49FB
:10446000097809B9012100E0002108400028F2D1B3
:104470000548007808B1FFF7ADFA08480078012830
:1044800000D110BD0020FCE7190000201A00002018
:1044900000040040000801400030014018000020E6
:1044A0000C00002010B512480078012815D1012217
:1044B00004211048FCF7F3FD0120FFF7B9FD0022AD
:1044C00004210C48FCF7EBFD0120FFF7B1FD0122B0
:1044D00004210848FCF7E3FD06E00548007818B918
:1044E00000210548FFF72BFC0A20FFF7A1FD10BDB6
:1044F0001A000020000801400044004070B5054645
:104500000C462E781548C078012801D100F00AF930
:104510001248007801280DD1284600F021F8FFF755
:104520006BFF18B1FD202070012070BD2046FFF701
:10453000D1FE08E00948007828B9284600F04EF876
:104540002046FFF71DFF052E05D10448C07801283D
:1045500001D100F0CDF80020E7E700001A000020AC
:1045600030B5ADF5057D0446002510211548FCF752
:1045700092FD00211448FEF7BBFD2078552804D198
:1045800055211148FEF7B4FD15E02078242803D109
:10459000607800F5817508E02078442803D16078C0
:1045A00000F2022501E06078851C01AB2A46214615
:1045B0000548FEF782FD10210248FCF76EFD0DF55F
:1045C000057D30BD000801400030014010B50121DB
:1045D0000148FEF78DFD10BD0030014070B5044666
:1045E00000252078552804D155210D48FFF7A7FB59
:1045F00014E02078242803D1607800F5817508E064
:104600002078442803D1607800F2022501E0607828
:10461000851C2A4621460248FFF780FB70BD00003A
:104620000044004000B585B06846FEF77BFD4FF4BE
:104630008270ADF802002820ADF80C004FF4007035
:10464000ADF80A000220ADF806000120ADF8080020
:1046500069460448FEF715FD01210248FEF7D2FC29
:1046600005B000BD003001401FB504460094002095
:10467000ADF80400ADF80600ADF80800ADF80C0088
:104680000C20ADF80A0069460348FFF7B3FB01218F
:104690000148FFF763FB1FBD004400400EB54FF417
:1046A0007A70ADF804004820ADF800000020ADF8A5
:1046B00006001020ADF8020000208DF808006946C1
:1046C0000A48FFF723FA00210848FFF76DFA012195
:1046D0000648FFF703FA012211460448FFF70BFAD8
:1046E00000210248FFF7FDF90EBD00000008004060
:1046F0001CB50120094908700020094908700820EC
:10470000009000208DF804000C208DF80500012099
:104710008DF806006846FCF72BFC1CBD0D00002040
:104720000C0000201CB500200949087009490870D8
:104730000820009000208DF804000C208DF8050062
:1047400001208DF806006846FCF712FC1CBD000035
:104750000D0000200C0000200EB54FF47A70ADF86B
:1047600004004820ADF800000020ADF8060010203D
:10477000ADF8020069460A48FFF7C8F90021084869
:10478000FFF712FA01210648FFF7A8F901221146A6
:104790000348FFF7B0F900210148FFF7A2F90EBD69
:1047A0000004004010B5044621460548FFF77CFB95
:1047B00000BF40210248FFF715FB0028F9D010BDCB
:1047C0000038014070B504460D46002605E014F897
:1047D000010BFFF7E7FF701CC6B2AE42F7DB70BDFE
:1047E00086B000BF00BF00214FF00060FEF73AF92D
:1047F000FEF722FE01214020FEF77AFBFEF744F887
:10480000FFF727FA2C4800684FF47A72B0FBF2F1F8
:10481000B1F1807F00D31DE021F07F40401E4FF0BA
:10482000E022506150170F22002807DA13071D0EEF
:10483000224B00F00F04241F1D5503E013071C0E2C
:104840001F4B1C5400BF00204FF0E0229061072056
:10485000106100BF0020FEF78DF8FEF7F5FD0A207D
:10486000FFF722FCFCF7C6F800F02EF80020FEF758
:10487000ADF84FF4C870FFF717FC0020FEF79AF868
:104880000020FFF715FB00200E49087012E001A878
:10489000FFF7ECFC58B901A8FBF7D8FCC4B22146DD
:1048A00001A8FFF78FFF142101A8FBF765FD142075
:1048B000FFF7FAFBEBE700007401002018ED00E0C1
:1048C00000E400E00800002000B585B0012144F2BA
:1048D0000500FEF731FB4FF40070ADF81000032027
:1048E0008DF8120018208DF8130004A91348FCF766
:1048F00077FB4FF48060ADF8100004208DF81300B2
:1049000004A90E48FCF76CFB4FF4E1300090002046
:10491000ADF80400ADF80600ADF80800ADF80C00E5
:104920000C20ADF80A0069460548FFF763FA01213B
:104930000348FFF713FA05B000BD0000000801406E
:1049400000380140040000000100120100020000D4
:1049500000408304D0D000020102030109022900B3
:104960000101008032090401000203000012092144
:104970001001000122340007050303400001070570
:104980008303400001040309042603530054004D2F
:10499000006900630072006F0065006C00650063D1
:1049A00000740072006F006E0069006300730026DF
:1049B00003530054004D003300320020004D0061CD
:1049C00000730073002000530074006F00720061D8
:1049D000006700650010035300540020004D006183
:1049E0000073007300120100020000004083040500
:1049F0002100020102030109027D0002010080FA88
:104A000009040000030B000000362100010007022A
:104A1000000000A00F0000A00F000000002A00000E
:104A200090D0030000000100000000000000000022
:104A300000380002000F0100000000000000010724
:104A400005810308000207050202400000070582F5
:104A500002400000090401000203000000092110C7
:104A600001000122340007050303400010070583FD
:104A700003400010040309042603530054004D00B2
:104A80006900630072006F0065006C0065006300E0
:104A9000740072006F006E006900630073001203FF
:104AA00053005400520046004E00460043004100AF
:104AB000058C0901A1018501953F750826FF0015A8
:104AC00000090191028502953F750826FF00150037
:104AD000090191028507953F750826FF0015000919
:104AE000018102C010990003F3E0E1D11000936C42
:104AF000033B8810009700F239E29702F239E21581
:104B0000F239E214F239E2E5E4F7F69380003A97DD
:104B10000090EC0090EF002A52AF0189032B2F0385
:104B20002A509F5581389F008513ECA71F90EE00F7
:104B300014969696A703F5F22DE23B90EC009B00AD
:104B400000810CEBD21201F22DE2A0C2CB8D0897AE
:104B50000190EF0094EF00AF0185442B6C0394EFBC
:104B600000B70290EF002A52AF0181042A50B50A23
:104B700094EF00AF048D609755F239E2B567F60007
:104B800010EC0003F3E0E1970C220A9799220B93B3
:104B900029033B90D800E89700F239E29702F239F6
:104BA000E215F239E214F239E2E5E4F7F6E3E2E085
:104BB000E19786F3F22DE8F274E7F20AE93B5E062C
:104BC000D300003B5B089700220C9801F2D4E789E0
:104BD000059787FAD7039703220C937F1FF248E8C3
:104BE000F23CE7990697818172B1642A00BF01EE19
:104BF0008F01EF937F09F248E8F2FAE69782915B22
:104C0000B11D937F02F248E8F23CE7912C937F09B3
:104C1000F248E8F2FAE6978491412A001E81342A8C
:104C2000033FEC2A001E890D60C2C3DB1002A927D6
:104C3000142241B533DC00891A2A43F52A429BB875
:104C4000F08104970298019780B110978EB10C976C
:104C500086B108978AB1049789B10098009700221D
:104C60000C970022303B5B08F7E5E4E6E7F600002E
:104C7000904C000800000020880100006C01000832
:104C8000544D00088801002038120000C8010008B7
:104C90000119C201122032041A34143D020406081C
:104CA0001F2C020304041506070809041C08014010
:104CB000141A03531254124D123312321231BA30F5
:104CC0001A125512531A42602922125212461A4ED3
:104CD000041243D24113EF0E1B08F1041AF5040B22
:104CE00010EB29041AF3180A11FD1C1A05B013D190
:104CF000051B0811041ACD041ACF041351041B0814
:104D00000B081AF5081AB9041AA5041ACD0441298A
:104D1000C529381AD9D2A9489AD5101AF10C134AC4
:104D2000493308121A5C0832291A850832041A8994
:104D30000832265AAF08226433201A13B04A730887
:104D4000341993212BA24A2F4910000800020304B2
:044D50000607080941
:0400000508000131BD
:00000001FF
