:020000040800F2
:10000000F0120020CD010008751A00089F090008B1
:10001000711A00089B040008212700080000000056
:100020000000000000000000000000009D2000080B
:100030008506000800000000731E0008D521000896
:10004000E7010008E7010008E7010008E7010008F0
:10005000E7010008E7010008E7010008E7010008E0
:10006000E701000889060008E7010008E701000829
:10007000E7010008E7010008E7010008E7010008C0
:10008000E7010008E7010008E7010008E7010008B0
:10009000E7010008E7010008E7010008E7010008A0
:1000A000E7010008E7010008E7010008E701000890
:1000B000392200084922000885220008E7010008CB
:1000C000E7010008E7010008E7010008E701000870
:1000D000E7010008E7010008E7010008E701000860
:1000E000E7010008E7010008E7010008E701000850
:1000F000E7010008E7010008E7010008E701000840
:10010000E7010008E7010008E7010008E70100082F
:10011000E7010008E7010008E7010008E70100081F
:10012000E7010008E7010008E7010008E70100080F
:1001300000F002F800F03AF80AA090E8000C8244BF
:100140008344AAF10107DA4501D100F02FF8AFF29C
:10015000090EBAE80F0013F0010F18BFFB1A43F0A5
:1001600001031847F030000010310000103A24BF9E
:1001700078C878C1FAD8520724BF30C830C144BF0C
:1001800004680C607047000000230024002500264E
:10019000103A28BF78C1FBD8520728BF30C148BFEA
:1001A0000B6070471FB51FBD10B510BD00F03CF9C6
:1001B0001146FFF7F7FF02F079FE00F05AF903B499
:1001C000FFF7F2FF03BC00F061F900000948804727
:1001D00009480047FEE7FEE7FEE7FEE7FEE7FEE729
:1001E000FEE7FEE7FEE7FEE704480549054A064B41
:1001F00070470000D921000831010008F0060020F6
:10020000F0120020F00A0020F00A002040EA01036A
:1002100010B59B070FD1042A0DD310C808C9121FAF
:100220009C42F8D020BA19BA884201D9012010BDE9
:100230004FF0FF3010BD1AB1D30703D0521C07E0B6
:10024000002010BD10F8013B11F8014B1B1B07D11A
:1002500010F8013B11F8014B1B1B01D1921EF1D18B
:10026000184610BD10B5431C02E010F8011B71B117
:100270008107FAD14FF0013202C88C1A8C4314EA7C
:10028000C211F9D0C01A0A0603D0C01E10BDC01A90
:1002900010BD0A0401D0801E10BD0902FCD0401E12
:1002A00010BD032A40F2308010F0030C00F01580DE
:1002B00011F8013BBCF1020F624498BF11F801CB69
:1002C00000F8013B38BF11F8013BA2F1040298BFCE
:1002D00000F801CB38BF00F8013B11F0030300F038
:1002E0007180083AC0F0088051F8043B083A51F890
:1002F00004CBA0E80810F5E7121D5CBF51F8043BE1
:1003000040F8043BAFF30080D20724BF11F8013B53
:1003100011F801CB48BF11F8012B24BF00F8013BB5
:1003200000F801CB48BF00F8012B70474FF00002E6
:100330000429C0F0128010F0030C00F01B80CCF1F7
:10034000040CBCF1020F18BF00F8012BA8BF20F865
:10035000022BA1EB0C0100F00DB85FEAC17C24BFB9
:1003600000F8012B00F8012B48BF00F8012B704763
:100370004FF0000200B5134694469646203922BF3E
:10038000A0E80C50A0E80C50B1F12001BFF4F7AF89
:10039000090728BFA0E80C5048BF0CC05DF804EB6B
:1003A000890028BF40F8042B08BF704748BF20F8D9
:1003B000022B11F0804F18BF00F8012B70477047D7
:1003C0007047704710B5203AC0F00B80B1E8185064
:1003D000203AA0E81850B1E81850A0E81850BFF42F
:1003E000F5AF5FEA027C24BFB1E81850A0E81850CE
:1003F00044BF18C918C0BDE810405FEA827C24BF22
:1004000051F8043B40F8043B08BF7047D20728BFAF
:1004100031F8023B48BF11F8012B28BF20F8023BFE
:1004200048BF00F8012B7047754600F02BF8AE4628
:1004300005006946534620F00700854618B020B5F0
:10044000FFF7D2FEBDE820404FF000064FF0000756
:100450004FF000084FF0000B21F00701AC46ACE86C
:10046000C009ACE8C009ACE8C009ACE8C0098D46D9
:10047000704710B50446AFF300802046BDE8104039
:10048000FFF79DBE004870478C06002001491820E8
:10049000ABBEFEE726000200704700BFFEE700008B
:1004A00010B500F01DF800F023F8044800F00AF839
:1004B0000248407B0249087010BD00004400002043
:1004C0002500002038B5044604A0006800902146AD
:1004D000684602F079FB002038BD000001000000F2
:1004E00010B502F007FA02F09FF902F02FFA10BDE2
:1004F00038B500241EA00068009002F039FB02F01D
:10050000F3F9012801D102F0BBFA00BF194968468E
:1005100002F05AFB17480078552801D1002038BD59
:1005200002F0E2F9012802D102F0AAFA13E002F087
:10053000DBF980B900BF0F49684602F045FB0D4862
:100540000078552801D10020E9E72046611C8CB2D3
:10055000B0F5407FEFDB07480078552804D02046EF
:10056000611C8CB20528D1DB6FF00D00D7E70000CD
:100570005500000044000020002004490870044990
:10058000087004490870044908707047280000206A
:1005900027000020230000202400002010B504467E
:1005A000FFF7EAFF04F0010078B101F0BFFA05207F
:1005B00002F000F900F046FE00F06EFE28B92F4868
:1005C00001F0EEFE08B9012010BD04F0020010B9E0
:1005D00004F0080000B301F0A9FA052002F0EAF8DF
:1005E00000F030FE00F058FEB0B900F099FC98B968
:1005F0002348807B00F0600020B904F0020008B1BD
:100600000220E1E71E48807B00F0200020B104F0CA
:10061000080008B10820D7E704F0040058B101F041
:1006200085FA052002F0C6F800F0E6F800F0EEF8D2
:1006300008B90420C8E704F0100060B101F076FAB0
:10064000052002F0B7F800F09BFF20B900F0D4FEBF
:1006500008B91020B8E704F0200050B101F066FAA4
:10066000052002F0A7F8054801F038F808B9202065
:10067000AAE701F05BFA0020A6E700007A06002056
:100680005D0300207047000010B5082000F022F83C
:1006900088B1082000F018F80748006820F008002A
:1006A000054908600548007810B101200449087028
:1006B00001200449087010BD00040140050000201D
:1006C0000600002004000020014908607047000077
:1006D00014040140064A014600201268044B0A40F7
:1006E00014331B680B4202D0002A00D0012070474F
:1006F0000004014030B51A498379026853B30B688E
:1007000093430B600A1D13680468A34313600279C6
:100710000A441368046823431360114A08321368BB
:100720000468A3431360131D1C680568AC431C6078
:100730004479102C05D021440A68006802430A60FD
:1007400030BD1168046821431160196800680143D5
:10075000196030BD0079084401689143016030BDE3
:10076000000401407FB504461FA0006803901FA04D
:10077000006802901EA000680190234603AA04218D
:10078000052001F0CDFA05460DB1012000E0002062
:1007900000B125E003201749087002AB012268214F
:1007A0000420009401F046FB05460DB1012000E055
:1007B000002000B114E001AB01220A2104200094C2
:1007C00001F038FB05460DB1012000E0002000B12A
:1007D00006E044F6B07002F00BF8002004B070BDE3
:1007E0006FF03E00FAE700005113010D01510000C7
:1007F00002A100002200002000B5ADF5057D01A892
:10080000FFF7B0FF0DF5057D00BD000000B5ADF5AB
:10081000057D4FF4047101A8FFF7AAFD01A800F0BF
:1008200025F820B16FF03E000DF5057D00BD0120DB
:100830000B4981F8280020220DF106010848FFF736
:1008400030FD0748411C0A68026249684162022083
:10085000044908700320044908700020E4E7000000
:1008600051060020230000202400002010B504467B
:100870002146074801F03CF910B16FF03E0010BD71
:10088000A078012802D06FF03E00F8E70020F6E7DC
:1008900045320008014609B910207047012901D1ED
:1008A0001820FAE7022901D12020F6E7032901D117
:1008B0002820F2E7042901D13020EEE7052901D1F3
:1008C0004020EAE7062901D16020E6E7072901D1A7
:1008D0008020E2E74FF48070DFE70000F0B5CA78CF
:1008E000002502F00F03D20601D58A7813430A7857
:1008F0004FF00F0E12F0FF0F4FF001021CD00468F2
:100900000F8802FA05F63740B74211D14FEA850C3D
:100910000EFA0CF724EA070703FA0CF43C43CF78ED
:10092000282F02D0482F02D002E0466100E0066185
:100930006D1C082DE4D304600C88FF2C1ED944687C
:100940005FF0000606F1080702FA07F50F882F404E
:10095000AF420FD14FEA860C0EFA0CF7BC4303FAF4
:100960000CF73C43CF78282F00D14561CF78482F32
:1009700000D10561761C082EE4D34460F0BD024628
:10098000002092680A4200D0012070474161704700
:10099000016170470AB1016170474161704700BF52
:1009A000FEE730B50346002400BF1BE01D78280990
:1009B0000A2803DA00F13005157002E000F137056E
:1009C0001570521C1D7805F00F000A2803DA00F19B
:1009D0003005157002E000F137051570521C5B1CE4
:1009E000651CECB28C42E1DB30BD10B500F002F8C2
:1009F00010BD000008B514208DF8030003208DF809
:100A000002000420ADF8000069460448FFF766FFC5
:100A1000012204210148FFF7BDFF08BD0008014085
:100A20002DE9F04F87B004468B46A9A103C9CDE953
:100A300005010027B846B94600260025002004908D
:100A40008246039002908DF814B0224605A9032037
:100A500001F0BFF90190019808B1012000E00020E9
:100A600000B133E16778B846781E205C00F0800959
:100A7000E65D781C255C082D03D1612007B0BDE838
:100A8000F08F1DE14FF00009202000EB0611681CDB
:100A90000844C0B28DF815008EB9A078691CFF22F9
:100AA0008A4090438DF81600681CC0B240F04000A8
:100AB0008DF817009DF816008DF8080067E0012EEC
:100AC00018D1A0788DF81600E078691CFF228A40C2
:100AD00090438DF81700681CC0B240F040008DF8BC
:100AE00018009DF816008DF808009DF817008DF885
:100AF00009004CE0022E1FD1A0788DF81600E07896
:100B00008DF817002079691CFF228A4090438DF8E8
:100B10001800681CC0B240F040008DF819009DF824
:100B200016008DF808009DF817008DF809009DF853
:100B300018008DF80A002AE0032E26D1A0788DF83F
:100B40001600E0788DF8170020798DF8180060798C
:100B5000691CFF228A4090438DF81900681CC0B2BE
:100B600040F040008DF81A009DF816008DF808003E
:100B70009DF817008DF809009DF818008DF80A00FF
:100B80009DF819008DF80B0001E0612076E7311D1A
:100B9000C8B2224605A901F01CF92078802801D0AE
:100BA00061206BE76778781E205C00F08009B9F15E
:100BB000800F04D114F807A0781C205C0390781EE5
:100BC000205C00F00F00C0F10800C0B20490691C66
:100BD0000498884245D196B99DF81600FF228A40B4
:100BE0009043A17808438DF80800E0788DF809005B
:100BF00020798DF80A0060798DF80B0033E0012E22
:100C000010D19DF81700691CFF228A409043A178FB
:100C100008438DF80900E0788DF80A0020798DF8F6
:100C20000B0020E0022E0DD19DF81800691CFF2258
:100C30008A409043A17808438DF80A00E0788DF847
:100C40000B0010E0032E0AD19DF81900691CFF2249
:100C50008A409043A17808438DF80B0003E061209F
:100C60000CE761200AE78020207084F801809DF85D
:100C70000800A0709DF80900E0709DF80A0020713E
:100C80009DF80B0060719DF808009DF80910484020
:100C90009DF80A1048409DF80B104840A071B9F12A
:100CA000800F0DD1564504D006EB0A00C6B2039D55
:100CB00006E006EB0A00C6B20398401C2844C5B201
:100CC000B9F1800F3FF4DEAE0020D7E66120D5E613
:100CD00000200800000000002DE9F0410646304DDC
:100CE000002493213046FFF79BFE8046B8F1000FA9
:100CF00001D0012000E0002000B14EE02948C0787A
:100D0000042804D12748D6F80210416005E02548A0
:100D1000B6F80310818071798171B77993222046EA
:100D2000611CCCB22A5470222046611CCCB22A54D9
:100D30001C48C078042806D128191A49496801605E
:100D4000201DC4B20CE088222046611CCCB22A547B
:100D5000281914498A88028089798170E01CC4B2FC
:100D60002046611CCCB22F5428222046611CCCB2F4
:100D70002A5432462946204601F02BF88046B8F125
:100D8000000F01D0012000E0002000B105E0B078A4
:100D9000044988730020BDE8F0816120FBE7000072
:100DA000460000205D0300202DE9F0410646324D4B
:100DB000002495213046FFF733FE8046B8F1000F3E
:100DC00001D0012000E0002000B152E02B48C078A3
:100DD000072805D12948D6F80210C0F8071006E008
:100DE0002648B6F80310A0F8071071794172B77958
:100DF00095222046611CCCB22A5470222046611CE8
:100E0000CCB22A541D48C078072807D129191B489D
:100E1000D0F807000860201DC4B20DE088222046EB
:100E2000611CCCB22A5429191448B0F807200A8052
:100E3000407A8870E01CC4B22046611CCCB22F54AA
:100E400028222046611CCCB22A543246294620462C
:100E500000F0BFFF8046B8F1000F01D0012000E094
:100E6000002000B105E0B078044988730020BDE897
:100E7000F0816120FBE70000460000205D030020B8
:100E80002DE9F0410646244D002497213046FFF716
:100E9000C7FD8046B8F1000F01D0012000E000201E
:100EA00000B137E01D48D6F80210C0F80710B77936
:100EB00097222046611CCCB22A5470222046611C25
:100EC000CCB22A541548C0780A2806D129191348EB
:100ED000D0F807000860201DC4B22046611CCCB2C7
:100EE0002F5428222046611CCCB22A54324629466F
:100EF000204600F06EFF8046B8F1000F01D00120BF
:100F000000E0002000B105E0B078044988730020BB
:100F1000BDE8F0816120FBE7460000205D03002072
:100F200070B52C4D2846FFF7D7FE04460CB10120C2
:100F300000E0002000B14BE02748807B00F0040077
:100F400048B12846FFF730FF04460CB1012000E00D
:100F5000002000B13CE02048807B00F0040048B154
:100F60002846FFF78DFF04460CB1012000E0002069
:100F700000B12DE01848807B00F0200070B100F037
:100F800007F901201449C873284600F0A7F9044660
:100F90000CB1012000E0002000B119E0012000F0B8
:100FA00041F802200D4908700B48807B00F060007A
:100FB00018B902200A49087008E00748807B00F051
:100FC0002000202802D1042005490870002070BDAF
:100FD0006120FCE7440000205D0300202300002086
:100FE000240000200E490978890921B1012908D07F
:100FF000022912D10BE00421094AD170012191701C
:101000000BE00721064AD1700221917005E00A2108
:10101000034AD1700321917000BF00BF70470000E8
:101020005D030020F0B585B0054629A103C9CDE9CF
:10103000030129A00068029028A000680190002701
:10104000274E28480078342801DB062700E00427D3
:1010500025480088042802DA042023490880224811
:1010600000788DF80D008DF80E5000208DF80F00DF
:10107000791CC8B2334603AA022100F051FE04468F
:101080000CB1012000E0002000B11FE002AB002203
:101090003A210420009600F0CDFE04460CB1012058
:1010A00000E0002000B111E00D4801AB01226821F1
:1010B0000090042000F0BEFE04460CB1012000E0C8
:1010C000002000B102E0002005B0F0BD6120FBE788
:1010D00000000000030300005A04000001DF0000CC
:1010E00044000020250000202000002070B586B0BC
:1010F00021A103C9CDE9040121A00068039021A02A
:10110000006802900026204D20480078342801DB3A
:10111000062600E00426711CC8B22B4604AA022150
:1011200000F0FEFD04460CB1012000E0002000B1FB
:101130001FE003AB00223A210420009500F07AFE64
:1011400004460CB1012000E0002000B111E00E487F
:1011500002AB012268210090042000F06BFE0446DF
:101160000CB1012000E0002000B102E0002006B038
:1011700070BD6120FBE700000000000002020000DB
:101180005A04000001DF0000440000202500002078
:1011900070B586B025A103C9CDE9040125A000687A
:1011A000039025A0006802900026244D2448007872
:1011B000342801DB062600E0042604208DF8110007
:1011C00000208DF812000C208DF81300711CC8B29D
:1011D0002B4604AA022100F0A3FD04460CB1012015
:1011E00000E0002000B11FE003AB00223A21042000
:1011F000009500F01FFE04460CB1012000E0002025
:1012000000B111E00D4802AB0122682100900420DA
:1012100000F010FE04460CB1012000E0002000B1F7
:1012200002E0002006B070BD6120FBE70000000076
:10123000030300005A04000001DF00004400002006
:101240002500002010B500F017F8FFF74FFF044607
:101250000CB1012000E0002000B108E001200549A8
:10126000087041F2EC3001F0C3FA002010BD61209B
:10127000FCE70000220000200648002101804160B8
:1012800081608181002003498870C870C873087428
:10129000704700005D03002070B50E4C204600F042
:1012A00069F805460DB1012000E0002000B10FE013
:1012B0002146042000F079FC05460DB1012000E034
:1012C000002000B104E0012003490874002070BD33
:1012D0006120FCE7440000205D030020F8B50446CF
:1012E00021A00068009022466946032000F071FDAD
:1012F00005460DB1012000E0002000B132E021469A
:10130000042000F052FC05460DB1012000E0002051
:1013100000B127E02146022000F012FC05460DB185
:10132000012000E0002000B11CE0E07800F00F0692
:101330003046FFF7AFFA0D490880E07800F0200052
:1013400020280DD1E07800F01000102804D1607939
:1013500000090749088003E0207900090449088052
:101360000020F8BD6120FCE7E08028001E0000207E
:101370002000002038B504460BA0006800902246EB
:101380006946022000F025FD05460DB1012000E070
:10139000002000B106E0054861880180FFF722FEC9
:1013A000002038BD6120FCE7260700005D03002017
:1013B0007CB504460120019001AB00226821032086
:1013C000009400F037FD05460DB1012000E000203B
:1013D00000B10FE00123022268210320009400F0F5
:1013E000D7FC05460DB1012000E0002000B101E06E
:1013F00000207CBD7120FCE738B5124D12A00068BA
:101400000090284600F026F804460CB1012000E0C8
:10141000002000B114E02B466A460321042000F0AE
:101420007FFC04460CB1012000E0002000B107E081
:10143000022006490870052005490870002038BDC3
:101440007120FCE74400002001043E00230000203E
:10145000240000207FB50446124B0FCB8DE80F000F
:101460001148D0F80D00CDF8010022466946092048
:1014700000F0AFFC05460DB1012000E0002000B1F6
:101480000DE02146032000F05BFB05460DB1012075
:1014900000E0002000B102E0002004B070BD712027
:1014A000FBE7000038320008FB05002010B50446B9
:1014B0000D22A11C0748FEF7F4FE064854F8031F4E
:1014C000C0F80D106168C0F81110A168E41EC0F8E2
:1014D000151010BDFB0500202DE9FC41194E1AA086
:1014E0000068019019A0006800900427184800784F
:1014F000342801DA01AD00E06D4600F02DF83346E6
:101500002A460321042000F00BFC04460CB1012004
:1015100000E0002000B112E002200E49087000F047
:1015200087F804460CB1012000E0002000B106E07D
:1015300041F2EC3001F05CF90020BDE8FC81712043
:10154000FBE70000440000200102000001001A0037
:10155000250000202200002010B50D210748FEF7CD
:10156000E5FE06480021C0F80D100020034948762A
:101570003C2102481A30FEF7D9FE10BDFB050020C1
:1015800070B50C4DFFF7A8FF04460CB1012000E038
:10159000002000B10BE0284600F00EF804460CB124
:1015A000012000E0002000B101E0002070BD7120AA
:1015B000FCE700004400002038B504460CA0006899
:1015C000009022466946032000F003FC05460DB159
:1015D000012000E0002000B107E001200549487625
:1015E0002046FFF763FF002038BD7120FCE70000B4
:1015F00005000000FB0500207CB50BA000680190F1
:101600000A4D01AB012268210420009500F012FC74
:1016100004460CB1012000E0002000B101E00020F0
:101620007CBD7120FCE70000015100004400002057
:1016300070B5104CFFF7E0FF05460DB1012000E04A
:10164000002000B113E02046FFF7B2FE05460DB1C1
:10165000012000E0002000B109E0A078012804D1B9
:10166000E078512801D1002070BD7120FCE7712085
:10167000FAE70000440000202DE9F043044607ADDE
:1016800095E8E0104FF0000801F00109204669F3E9
:101690005F0002F0010940EA890003F0010940EA15
:1016A000C90005F0010940EA091006F0010940EA05
:1016B000491007F0010940EA89100CF0010940EADD
:1016C000C9184FFA88F0BDE8F083014601F0100018
:1016D00008B1012070470020FCE70000F0B589B098
:1016E000054600F045F804460CB1012000E000205A
:1016F00000B136E0052001F05DF800200122CDE9BF
:1017000000020290034611460390FFF7B5FF06461C
:1017100005A80090F0B200231A46194600F062F8BE
:1017200004460CB1012000E0002000B119E09DF852
:101730001500401CC7B205A8C05D00F0020018B13A
:101740006FF00E0009B0F0BD1CB90698286007982C
:1017500068600220044908700620044908700020CF
:10176000F0E76FF00E00EDE72300002024000020DA
:101770001FB50020039019A0006801900920039074
:1017800002AB03AA0121022000F0CAFA04460CB100
:10179000012000E0002000B11DE004201049087085
:1017A00002A801AB012268210090042000F042FB56
:1017B00004460CB1012000E0002000B10BE002A9BA
:1017C000022000F0F2F9F12803D16FF00E0004B00E
:1017D00010BD0020FBE76FF00E00F8E701D100001C
:1017E000220000202DE9FF4F85B014469946129E35
:1017F00000250020009082460027FF203070002046
:101800007070402C04DD6FF00C0009B0BDE8F08F63
:10181000059800F07EF88046B8F1000F01D0012055
:1018200000E0002000B171E029466A1CD5B201AA8F
:101830000598505401222846691CCDB201A90A54CA
:101840000598FFF742FF012805D129466A1CD5B249
:1018500001AA069850542846691CCDB201A90C541F
:10186000E4B3402C02D10820009007E02046E117A5
:1018700004EB5171C910491CC9B200910098401E77
:10188000A4EBC00000F0FF0ABAF1000F06D001205F
:1018900000FA0AF0401E4FFA80FB01E04FF0FF3BD8
:1018A000009801280EDD002708E019F807202846D7
:1018B000691CCDB201A90A54781C47B20098401E99
:1018C000B842F2DCBAF1000F08D019F8070000EABC
:1018D0000B0029466A1CD5B201AA5054324601A910
:1018E000284600F076FA8046B8F1000F01D00120BA
:1018F00000E0002000B109E03146042000F055F975
:1019000010B16FF00E0080E700207EE76FF00E0050
:101910007BE7014601F0040008B1002070476FF03A
:101920000E00FBE708B54FF4A06000F0D7F80920DF
:101930008DF8000001208DF801008DF802008DF86F
:101940000300684600F098F81D208DF80000002084
:101950008DF801008DF8020001208DF80300684623
:1019600000F08AF81E208DF8000000208DF801009C
:1019700001208DF802008DF80300684600F07CF825
:101980001C208DF8000001208DF8010003208DF847
:10199000020001208DF80300684600F06DF8172062
:1019A0008DF8000000208DF801008DF80200012064
:1019B0008DF80300684600F05FF80A208DF80000FB
:1019C00000208DF8010001208DF802008DF8030041
:1019D000684600F051F808BD014605290ED2DFE83F
:1019E00001F0030507090B00002070470020FCE709
:1019F0000020FAE70020F8E70020F6E72220F4E7CD
:101A000038B504460B4951F82400012100F04AFA88
:101A1000094830F81400ADF8000010208DF80300DC
:101A200003208DF80200054951F824006946FEF7AD
:101A300055FF38BD4C3200085032000840000020ED
:101A4000034931F81010034A52F8202051617047C1
:101A50005032000840000020034931F81010034ABA
:101A600052F82020116170475032000840000020D9
:101A700000BFFEE77047000070B50F23C4780178FF
:101A80000122F4B1144C2468457804F4E064C4F5F0
:101A9000E064240AC4F10406E3408478B5401C40A5
:101AA0002C4301F1E021230181F80034007800F09B
:101AB0001F018A404009800000F1E020C0F80021A9
:101AC00070BD01F01F0082404809800000F1E02055
:101AD000C0F8802170BD00000CED00E00249084311
:101AE00002490860704700000000FA050CED00E0B4
:101AF00070B504460D462946204601F065F8294692
:101B0000042000F052F808B1212070BD0020FCE74D
:101B100038B5044604A0006800902146684601F0EC
:101B200053F8002038BD0000550000001FB500200C
:101B300003906B4603AA0021022000F0F1F81FBDBC
:101B400003464A78012B06D0022B0ED0032B16D069
:101B5000042B28D11DE0501C085C00F00200022874
:101B600001D1212070470020FCE7501E085C00F0E6
:101B70002000202801D12120F4E70020F2E7501CAA
:101B8000085C00F00200022801D12120EAE70020D1
:101B9000E8E7501C085C00F00200022801D1212077
:101BA000E0E70020DEE70120DCE702460878212894
:101BB00001D123207047082A61D008DC012A13D004
:101BC000022A17D0042A24D0072A6BD14CE0092A14
:101BD00060D00A2A64D0552A64D10878552801D1EA
:101BE0000020E7E72120E5E7087808B90020E1E7D1
:101BF0002120DFE7087820B1822804D0832806D18D
:101C000003E00020D6E72120D4E72120D2E72120DD
:101C1000D0E708788038112824D2DFE800F00923C3
:101C20002323232311131517191B1D1F21230F0015
:101C3000487808B10020BDE72120BBE70020B9E7C4
:101C40002120B7E72120B5E72120B3E72120B1E724
:101C50002120AFE72120ADE72120ABE72120A9E734
:101C60002120A7E72120A5E7087810B1822804D118
:101C700001E000209EE721209CE721209AE70878D8
:101C800010B1822804D101E0002093E7212091E7E0
:101C900021208FE7087808B900208BE7212089E709
:101CA000212087E7012085E710B500241A48007835
:101CB000012801D100F0E4FE00BF1848FFF728FF1B
:101CC00016480078552801D1002010BD1248007830
:101CD000012802D100F0D4FE12E00F48007878B954
:101CE00000BF0E48FFF714FF0C480078552801D1BB
:101CF0000020EAE72046611C8CB2B0F5407FF0DBA3
:101D000006480078552804D02046611C8CB205286E
:101D1000D3DB2620D9E70000120000204400002079
:101D20002DE9FE4305460E4617461C461748FFF7A9
:101D3000EFFE16480078552801D0FFF7B5FF2120A7
:101D40002070002060703046FFF746FE4FFA80F8A2
:101D5000B8F1000F01D0012000E0002000B113E035
:101D600002208DF800008DF801508DF802606A1E87
:101D700039460DF10300FEF794FA2146684600F05B
:101D800023FF0020BDE8FE832220FBE74400002063
:101D90002DE9FC4104460D4616461F46DDF820801D
:101DA00008208DF800008DF801408DF802508DF864
:101DB00003608DF804704146684600F005FF414617
:101DC0000720FFF7F2FE10B12120BDE8FC810020C2
:101DD000FBE770B5C2B004460E46154621202870B8
:101DE00000206870012C03DBFF2C01DC012000E0E7
:101DF000002010B9272042B070BD04208DF80400E7
:101E00008DF80540224631460DF10600FEF749FAED
:101E1000294601A800F0D8FE29460420FFF7C5FE98
:101E200030B12878872801D12820E4E72120E2E793
:101E30000020E0E72DE9F041C2B004460D46164609
:101E40001F46DDF8208109208DF804008DF805403B
:101E50008DF806508DF80760A21E394602A8FEF7DD
:101E600020FA414601A800F0AFFE002042B0BDE8D4
:101E7000F0817047044A0029D16901D0014300E094
:101E80008143D1617047000000100240044A0029DC
:101E9000116901D0014300E08143116170470000E6
:101EA00000100240044A0029916901D0014300E07A
:101EB000814391617047000000100240044A0029EC
:101EC000D16801D0014300E08143D1607047000038
:101ED0000010024030B51F494A6812F00C031E4A38
:101EE00003D0042B01D0082B21D002604A680F23B5
:101EF0001A4C03EA1212A35C0268DA4042604B6893
:101F0000072505EA1323E35C22FA03F383604B6899
:101F100005EAD323E35CDA40C2604968032303EA9D
:101F20009131231F595CB2FBF1F1016130BD4A6868
:101F30004B6802F470124FF0020413F4803F04EB7C
:101F4000924202D04B689B0301D5054B00E0024B47
:101F50005A43CAE70010024000127A002D00002008
:101F600000093D000029018802D041F0400101E054
:101F700021F0400101807047114910B588420AD113
:101F8000841401212046FFF799FF2046BDE8104048
:101F90000021FFF793BF0B49884202D101210414AD
:101FA00004E0094988420AD10121C4132046FFF701
:101FB0006DFF2046BDE810400021FFF767BF10BD50
:101FC0000030014000380040003C00400246002044
:101FD00012890A4200D001207047808970478181B0
:101FE000704730B502884C8802F441530A88CD8886
:101FF00022438C882C4322430C8922434C89224360
:102000008C892243CC8922431A430280828B22F49A
:1020100000628283098A018230BD2DE9F041804649
:102020000E4615461F46B5F5047F02DD4FF40470D9
:1020300000E028460546002406E0315D404600F0F9
:1020400007F83855601C84B2AC42F6DBBDE8F0817D
:1020500070B504460D4600BF02212046FFF7B6FFCB
:102060000028F9D029462046FFF7B9FF00BF01211B
:102070002046FFF7ABFF0028F9D02046FFF7ADFF61
:10208000C0B270BD0021018041808180C18001818A
:1020900041818181C181072101827047704710B55C
:1020A00000F002F810BD00000CB500200190009077
:1020B0003348006840F480303149086000BF304840
:1020C000006800F4003000900198401C01900098D6
:1020D00018B90198B0F5A06FF1D12948006800F453
:1020E000003010B10120009001E000200090009825
:1020F000012843D12348006840F0100021490860BE
:102100000846006820F0030008600846006840F0B8
:10211000020008601A48406819494860084640684B
:1021200048600846406840F480604860084640685F
:1021300020F47C1048600846406840F4E81048608D
:102140000846006840F08070086000BF0C480068D6
:1021500000F000700028F9D00948406820F0030022
:10216000074948600846406840F00200486000BFE8
:102170000348406800F00C000828F9D10CBD0000AD
:10218000001002400020024010B500F0B3FA012117
:10219000C806FFF76FFE10BD10B5044600200649C3
:1021A0000870064804802146054800F09EF8012189
:1021B000034800F088F810BD100000201A0000202D
:1021C0000004004010B50021014800F07CF810BD6B
:1021D000000400407047000010B51348006840F04C
:1021E00001001149086008464068104908400E493E
:1021F0004860084600680E4908400B4908600846D8
:10220000006820F4802008600846406820F4FE0042
:1022100048604FF41F008860FFF741FF4FF00060F7
:102220000449086010BD0000001002400000FFF8E3
:10223000FFFFF6FE08ED00E010B50121880700F071
:102240003FF800F06FFA10BD10B50B480088002869
:1022500005DD09480088401E0749088006E0012086
:10226000064908700021064800F02DF801210448B5
:1022700000F026F810BD00001A0000201000002019
:102280000004004010B50B480088002805DD09480F
:102290000088401E0749088006E0012006490870B2
:1022A0000021064800F00FF80121044800F008F86A
:1022B00010BD00001800002027000020000800408A
:1022C000C943018270470029018802D041F0010111
:1022D00001E021F0010101807047002A828901D0CC
:1022E0000A4300E08A43828170478184704700007E
:1022F00030B502881B4B1C4C98420DD0A0420BD02D
:10230000B0F1804F08D0194DA84205D0184DA84211
:1023100002D0184DA84203D122F070054A882A4302
:10232000154DA84206D0154DA84203D022F44075A1
:10233000CA882A4302808A8882850A880285984250
:102340000AD0A04208D00E4A904205D00D4A9042D1
:1023500002D00D4A904201D1097A01860121818281
:1023600030BD0000002C014000340140000400405A
:1023700000080040000C0040001000400014004025
:10238000004001400044014000480140002901880C
:1023900002D041F0040101E021F004010180704706
:1023A00070B5044621461348FFF7A2FB08B161202F
:1023B00070BD6078401EC5B2605D00F0200020282E
:1023C00001D16220F4E72078802804D160780428C5
:1023D00001D16120ECE702200749087020788028AD
:1023E00003D101200549087001E06120E0E70020E9
:1023F000DEE700002C32000823000020240000202B
:102400000EB54720ADF804004FF47A70ADF8000027
:102410000020ADF80600ADF8020069464FF080409C
:10242000FFF766FF00214FF08040FFF7AFFF01216B
:102430008807FFF745FF012211469007FFF74DFF80
:1024400000214FF08040FFF73EFF0EBD0EB5232068
:10245000ADF804000120ADF800000020ADF8060042
:10246000ADF8020069464FF08040FFF741FF0021C0
:102470004FF08040FFF78AFF01218807FFF720FF18
:10248000012211469007FFF728FF00214FF08040FE
:10249000FFF719FF0EBD10B500F003F800F007F8C4
:1024A00010BD10B501210720FFF7E4FC10BD0EB5EB
:1024B00000F0B8FC00F058FC4720ADF8040040F2F2
:1024C000E730ADF800000020ADF80600ADF80200DE
:1024D00069464FF08040FFF70BFF00214FF080402E
:1024E000FFF754FF01218807FFF7EAFE012211469A
:1024F0009007FFF7F2FE0EBD2DE9F04107460E46AC
:102500001546B5F5047F02DD4FF4047000E028465F
:102510000546002405E0384600F008F83055601CF8
:1025200084B2AC42F7DBBDE8F081000010B5044690
:1025300040F6B830FFF730FE00BF2021204600F003
:1025400073F818B9054800780128F6D1FFF73AFE6C
:10255000204600F0C7F8C0B210BD000010000020F7
:102560002DE9F04107460D461646002405E0295D99
:10257000384600F006F8601C84B2B442F7DBBDE8D0
:10258000F08170B504460D4600BF8021204600F062
:102590004BF80028F9D02946204600F0A7F870BD76
:1025A0000029818902D041F4005101E021F4005159
:1025B00081817047174910B588420AD101218C03E7
:1025C0002046FFF77BFC2046BDE810400021FFF7C6
:1025D00075BC1149884202D101214C0410E00F4919
:1025E000884202D101218C040AE00D49884202D1BF
:1025F0000121CC0404E00B4988420AD101210C05D9
:102600002046FFF743FC2046BDE810400021FFF7BD
:102610003DBC10BD0038014000440040004800406F
:10262000004C0040005000400246002012880A4240
:1026300000D001207047000030B50446008A85B004
:102640000D464CF6FF710840E98801432182A189BB
:102650004EF6F3100140A8882A8910436A890A437C
:102660001043A081A08A4FF6FF410840A989014389
:10267000A1826846FFF72EFC1948844201D10398D5
:1026800000E00298A189090400EBC00101EB0010F1
:10269000296801D5490000E08900B0FBF1F064220F
:1026A000B0FBF2F109010B096FF018056B4300EB69
:1026B0008300A3891D044FF0320306D503EBC0004D
:1026C000B0FBF2F000F0070005E003EB0010B0FBF8
:1026D000F2F000F00F000843208105B030BD00008B
:1026E000003801408088C0F308007047C1F308013A
:1026F0008180704708B501210820FFF7D3FB012036
:10270000ADF8000003208DF8020014208DF80300BE
:1027100069460248FEF7E2F808BD0000000C0140DF
:1027200000BFFEE70448008820B103480088401E2F
:1027300001490880704700000000002038B50446B9
:10274000601C1B4908801C208DF8000000208DF8BB
:1027500001008DF8020001208DF803006846FFF7A4
:102760008BF901218807FFF7ABFD00214FF0804076
:10277000FFF7BBFD01218807FFF7A5FD00BF0C484F
:1027800000880028FBD100214FF08040FFF79BFD1F
:102790001C208DF8000001208DF8010003208DF829
:1027A000020001208DF803006846FFF765F938BD87
:1027B0000000002010B50446601C0C490880FFF79B
:1027C0001FFE00214FF08040FFF78FFD0121880799
:1027D000FFF779FD00BF054800880028FBD10021E4
:1027E0004FF08040FFF76FFD10BD0000000000209B
:1027F00010B504460B480480FFF728FE00214FF077
:102800008040FFF772FD01218807FFF75CFD00BFE4
:10281000044800880028FBD100214FF08040FFF7DA
:1028200052FD10BD0000002010B500F0E1FA0120BB
:102830000149C87010BD00001200002008B520201A
:10284000ADF8000003208DF8020018208DF8030079
:1028500069461148FEF742F88020ADF8000069464D
:102860000D48FEF73BF804208DF803004020ADF83A
:10287000000069460848FEF731F81020ADF8000066
:102880008DF8030069460448FEF728F81021024835
:10289000FEF77EF808BD00000008014008B50420DE
:1028A000ADF8000003208DF8020018208DF8030019
:1028B00069460748FEF712F80820ADF8000004202A
:1028C0008DF8030069460248FEF708F808BD0000CD
:1028D0000008014010B502210248FEF750F840B24E
:1028E00010BD0000000C0140014800787047000056
:1028F000120000200120054908700020C870032044
:102900004870002008718870704700001200002095
:1029100010B50548FFF730FB00F02EF8FFF78EFFEB
:1029200000F0E6F910BD00000030014010B504468B
:102930000548FFF73FFE00F029F8FFF7AFFF2046FC
:1029400000F0F8F910BD00000044004010B5FFF79A
:10295000C1FF38B1012007490870FFF7D9FFFEF722
:1029600044F806E00020034908704FF46140FFF787
:10297000DDFF10BD1200002010B501210420FFF77B
:1029800091FA01210803FFF78DFA10BD10B501215E
:102990000420FFF787FA01214804FFF76BFA10BD06
:1029A00030B5ADF5057D0446002510212548FDF71D
:1029B000EDFF02212448FFF74BFBFF212248FFF7E0
:1029C00047FB2070207855280CD100206070FF2133
:1029D0001D48FFF73DFBA070FF211B48FFF738FBA8
:1029E000E07027E02078FF280CD100206070FF21E4
:1029F0001548FFF72DFBA070FF211348FFF728FBB8
:102A0000E07017E0FF211048FFF722FB607020788C
:102A100000F0E000802801D1607858B1207800F003
:102A20006005607800EBC505A31C2A4601A906488D
:102A3000FFF7F3FA10210348FDF7AAFF0DF5057D16
:102A400030BD0000000801400030014010B50446D0
:102A50000A48FFF76BFD20702078552802D100202E
:102A600060700AE00548FFF761FD6070607820B192
:102A70006278A11C0148FFF73FFD10BD00440040F3
:102A800010B510210D48FDF783FF0120FFF756FE1A
:102A900010210A48FDF77AFF00F0FEF810210748E0
:102AA000FDF776FF0320FFF749FE00F061F80A20EA
:102AB000FFF744FE05200249487010BD00080140A0
:102AC0001200002010B500242248007818B140F60A
:102AD000B830FFF761FB2048C078E8B900BF01219A
:102AE0001E48FFF7F0FB10211D48FDF74FFF0220A5
:102AF000FFF760FE03211B48FFF7AAFA044604F023
:102B00000804082C03D0184800780128E7D11021C8
:102B10001348FDF73DFF11E00F48C07801280DD1A3
:102B200000BF1248007880F001000F49097809B908
:102B3000012100E0002108400028F2D1054800787A
:102B400008B1FFF73FFB08480078012800D110BD0D
:102B50000020FCE7110000201200002000040040CB
:102B60000008014000300140100000200400002057
:102B700010B512480078012815D10122042110480F
:102B8000FDF708FF0120FFF7D9FD002204210C48C2
:102B9000FDF700FF0120FFF7D1FD012204210848C5
:102BA000FDF7F8FE06E00548007818B90021054851
:102BB000FFF7E7FC0A20FFF7C1FD10BD120000205F
:102BC000000801400044004070B505460C462E78D0
:102BD0001548C078012801D100F00AF912480078A0
:102BE00001280DD1284600F021F8FFF76BFF18B13E
:102BF000FD202070012070BD2046FFF7D1FE08E0C7
:102C00000948007828B9284600F04EF82046FFF71A
:102C10001DFF052E05D10448C078012801D100F020
:102C2000CDF80020E7E700001200002030B5ADF538
:102C3000057D0446002510211548FDF7A7FE00215B
:102C40001448FFF705FA2078552804D1552111487A
:102C5000FFF7FEF915E02078242803D1607800F50D
:102C6000817508E02078442803D1607800F20225BD
:102C700001E06078851C01AB2A4621460548FFF734
:102C8000CCF910210248FDF783FE0DF5057D30BD1E
:102C9000000801400030014010B501210148FFF754
:102CA000D7F910BD0030014070B5044600252078EA
:102CB000552804D155210D48FFF763FC14E0207816
:102CC000242803D1607800F5817508E02078442835
:102CD00003D1607800F2022501E06078851C2A4665
:102CE00021460248FFF73CFC70BD00000044004054
:102CF00000B585B06846FFF7C5F94FF48270ADF8AE
:102D000002002820ADF80C004FF40070ADF80A0066
:102D10000220ADF806000120ADF80800694604481D
:102D2000FFF75FF901210248FFF71CF905B000BD6C
:102D3000003001401FB5044600940020ADF80400A7
:102D4000ADF80600ADF80800ADF80C000C20ADF8A9
:102D50000A0069460348FFF76FFC01210148FFF7AD
:102D60001FFC1FBD004400400EB54FF47A70ADF853
:102D700004004820ADF800000020ADF80600102047
:102D8000ADF8020000208DF8080069460A48FFF7F8
:102D9000AFFA00210848FFF7F9FA01210648FFF7CA
:102DA0008FFA012211460448FFF797FA00210248E2
:102DB000FFF789FA0EBD0000000800401CB5012095
:102DC0000949087000200949087008200090002077
:102DD0008DF804000C208DF8050001208DF8060008
:102DE0006846FDF787FC1CBD05000020040000209C
:102DF0001CB5002009490870094908700820009096
:102E000000208DF804000C208DF8050001208DF8BD
:102E100006006846FDF76EFC1CBD000005000020A2
:102E2000040000200EB54FF47A70ADF8040048207D
:102E3000ADF800000020ADF806001020ADF802004B
:102E400069460A48FFF754FA00210848FFF79EFA3E
:102E500001210648FFF734FA012211460348FFF723
:102E60003CFA00210148FFF72EFA0EBD0004004095
:102E700010B5044621460548FFF738FC00BF402145
:102E80000248FFF7D1FB0028F9D010BD00380140FF
:102E900070B504460D46002605E014F8010BFFF757
:102EA000E7FF701CC6B2AE42F7DB70BD90B00025E4
:102EB000FF2600200C900D900E900F90A748006800
:102EC0000B9000200790089009900A90A348001DDD
:102ED00000680690002002900390049005909F489F
:102EE000083000680190FFF74FF9FEF71BFDFFF770
:102EF000D2FA0020FEF784FD0A20FFF75BFCFDF705
:102F0000CFFA00F04FF90020FEF7A6FD4FF4C8708D
:102F1000FFF750FC0020FEF793FD102190A0FFF773
:102F2000B7FF1AE13046FDF739FB054605F0010011
:102F3000002837D00020FEF78FFD0BAA06218D4810
:102F4000FDF72FFD00240EE00BA9601C085CC4F106
:102F50000B0106AA50540BA8015D601CC0F10B00C8
:102F60001154A01CC4B20C2CEEDB83A00188ADF878
:102F7000291080788DF82B0006227E4901A8FDF7E4
:102F800045F900280DD07B48016801918088ADF893
:102F9000080006A8FDF766F9C7B2394606A8FFF78C
:102FA00077FFD7E005F0020030B30020FEF754FDB4
:102FB0007248C1780BAA001DFDF7F3FC70A00188D0
:102FC000ADF83D1080788DF83F006C48C278011D47
:102FD00001A8FDF71BF90028E3D06848C278011D5D
:102FE00001A8FDF75EF90BA8FDF73CF9C7B2394619
:102FF0000BA8FFF74DFFADE005F0040020B3002063
:10300000FEF72AFD0BAA08215E48FDF7CAFC5EA068
:103010000188ADF83D1080788DF83F0008225949AD
:1030200001A8FDF7F3F80028BBD056482038016A04
:103030000191406A02900BA8FDF714F9C7B2394616
:103040000BA8FFF725FF85E005F0080010B300206E
:10305000FEF702FD4948C1780BAA001DFDF7A1FC4F
:103060004AA000680F904548C278011D01A8FDF7ED
:10307000CDF800286ED04148C278011D01A8FDF7A7
:1030800010F90BA8FDF7EEF8C7B239460BA8FFF709
:10309000FFFE5FE005F01000F8B10020FEF7DCFC59
:1030A0000BAA04213B48FDF77CFC3BA000680F9075
:1030B0000422384901A8FDF7A9F800284AD035486C
:1030C0000D38D0F80D0001900BA8FDF7CBF8C7B272
:1030D00039460BA8FFF7DCFE3CE005F02000A8B362
:1030E0000020FEF7B9FC0BAA08212248FDF759FC85
:1030F00000240EE00BA9601C085CC4F10F0106AAB5
:1031000050540BA8015D601CC0F10F001154A01CAD
:10311000C4B2102CEEDB22A00188ADF82910807813
:103120008DF82B000822134901A8FDF76FF888B12C
:103130001048016801914068029006A8FDF792F8D6
:10314000C7B2394606A8FFF7A3FE03E0FFE7002059
:10315000FEF776FC1420FFF72DFBE3E62032000893
:1031600069276D206865726520666F7220796F75BA
:10317000000000007A060020545431005D03002056
:1031800054543200710600205454330054543441D6
:1031900000000000080600205454344200000000E3
:1031A0005454350000B585B0012144F20500FEF706
:1031B00079FE4FF40070ADF8100003208DF8120076
:1031C00018208DF8130004A91348FDF787FB4FF46E
:1031D0008060ADF8100004208DF8130004A90E489B
:1031E000FDF77CFB4FF4E13000900020ADF80400C7
:1031F000ADF80600ADF80800ADF80C000C20ADF8F5
:103200000A0069460548FFF717FA01210348FFF74E
:10321000C7F905B000BD00000008014000380140BA
:1032200020000000200000002000000004087800BA
:103230000000000000A800001D00000000000801C0
:10324000000000000004050012FC0103040000005F
:10325000010000007432000800000020440000005B
:103260006C010008B832000844000020AC120000D5
:1032700088010008000000000000000000000000BD
:10328000000000000001000000000000000000003D
:1032900000002000040000000034010000020406C9
:1032A00008000000000102030401020304060708ED
:0832B0000900000000080140C4
:0400000508000131BD
:00000001FF
