:020000040800F2
:10000000C0440020DD02000821210008A1100008E2
:100010001D210008B10500080D3E00080000000089
:1000200000000000000000000000000015020008B1
:10003000F9090008000000008D020008C90200084C
:10004000F7020008F7020008F7020008F7020008AC
:10005000F7020008F7020008F7020008F70200089C
:10006000F7020008FD090008F70200081D09000852
:100070003D0900085D0900087D0900089D09000888
:10008000BD090008DD090008F7020008093C000866
:10009000213D0008B5050008A1060008F702000888
:1000A000F7020008F7020008F7020008F70200084C
:1000B000F7020008F7020008F7020008F70200083C
:1000C000F7020008F7020008F7020008F70200082C
:1000D000F702000841290008F7020008F7020008AB
:1000E000F7020008F7020008F702000800F002F823
:1000F00000F03AF80AA090E8000C82448344AAF188
:100100000107DA4501D100F02FF8AFF2090EBAE885
:100110000F0013F0010F18BFFB1A43F0010318473B
:100120005459000074590000103A24BF78C878C1AF
:10013000FAD8520724BF30C830C144BF04680C60ED
:10014000704700000023002400250026103A28BF35
:1001500078C1FBD8520728BF30C148BF0B60704739
:100160001FB51FBD10B510BD00F0FAF91146FFF71D
:10017000F7FF0FB400F00CF80FBC04F0A1F900F089
:10018000D1F803B4FFF7EEFF03BC00F0E3F9000081
:1001900004B004F0ADF90448002104F0FDF904F0C6
:1001A000B9F900F0BFF80000645A000880F309882C
:1001B0007047EFF309807047684680F30988044868
:1001C0000078C00714BF0220032080F31488704712
:1001D000245A0008DFF818C0EFF305831B0618BF88
:1001E0006047EFF31483DB0708BF604700DF704709
:1001F00021490008DFF818C0EFF305831B0618BF7C
:100200006047EFF31483DB0708BF604700DF7047E8
:10021000054B0008EFF30980816911F8021CF1B960
:1002200090E80F10E047EFF3098C8CE80700144BBF
:1002300093E8060091420FD039B12CE9F00FC1F8D4
:1002400028C00CB404F0FAFF0CBC1A60D2F828C025
:10025000BCE8F00F8CF309886FF0020E704710B500
:10026000084A1268914209D8074C54F8214090E896
:100270000F10A047EFF3098C8CE80F0010BD0000B1
:1002800078000020AC050008AC05000804F0A8FECA
:100290000C4B93E80600914210D0EFF3098C2CE947
:1002A000F00FC1F828C00CB404F0C8FF0CBC1A60F1
:1002B000D2F828C0BCE8F00F8CF309886FF0020E6A
:1002C000704700007800002005F080F8E0E70000AB
:1002D00004F0C8F905F07AF8DAE700000948804729
:1002E00009480047FEE7FEE7FEE7FEE7FEE7FEE718
:1002F000FEE7FEE7FEE7FEE704480549054A064B30
:1003000070470000FD270008ED000008C03E0020F7
:10031000C0440020C0400020C0400020004870477A
:100320005C3E002010B50446AFF300802046BDE8D7
:100330001040FFF726BF40EA010310B59B070FD11D
:10034000042A0DD310C808C9121F9C42F8D020BA45
:1003500019BA884201D9012010BD4FF0FF3010BDFD
:100360001AB1D30703D0521C07E0002010BD10F8CB
:10037000013B11F8014B1B1B07D110F8013B11F891
:10038000014B1B1B01D1921EF1D1184610BD10B5B7
:10039000431C02E010F8011B71B18107FAD14FF044
:1003A000013202C88C1A8C4314EAC211F9D0C01A67
:1003B0000A0603D0C01E10BDC01A10BD0A0401D029
:1003C000801E10BD0902FCD0401E10BD032A40F261
:1003D000308010F0030C00F0158011F8013BBCF1E7
:1003E000020F624498BF11F801CB00F8013B38BFFF
:1003F00011F8013BA2F1040298BF00F801CB38BF0D
:1004000000F8013B11F0030300F07180083AC0F0DE
:10041000088051F8043B083A51F804CBA0E80810D2
:10042000F5E7121D5CBF51F8043B40F8043BAFF305
:100430000080D20724BF11F8013B11F801CB48BF5F
:1004400011F8012B24BF00F8013B00F801CB48BF95
:1004500000F8012B70474FF000020429C0F0128011
:1004600010F0030C00F01B80CCF1040CBCF1020F67
:1004700018BF00F8012BA8BF20F8022BA1EB0C013C
:1004800000F00DB85FEAC17C24BF00F8012B00F832
:10049000012B48BF00F8012B70474FF0000200B558
:1004A000134694469646203922BFA0E80C50A0E897
:1004B0000C50B1F12001BFF4F7AF090728BFA0E845
:1004C0000C5048BF0CC05DF804EB890028BF40F811
:1004D000042B08BF704748BF20F8022B11F0804F53
:1004E00018BF00F8012B704770477047704710B570
:1004F000203AC0F00B80B1E81850203AA0E818501C
:10050000B1E81850A0E81850BFF4F5AF5FEA027CDC
:1005100024BFB1E81850A0E8185044BF18C918C04B
:10052000BDE810405FEA827C24BF51F8043B40F8EC
:10053000043B08BF7047D20728BF31F8023B48BFD1
:1005400011F8012B28BF20F8023B48BF00F8012B0F
:100550007047000001491820ABBEFEE726000200EC
:100560007546FFF7DBFEAE4605006946534620F0B0
:100570000700854618B020B5FFF7BEFEBDE8204055
:100580004FF000064FF000074FF000084FF0000B4F
:1005900021F00701AC46ACE8C009ACE8C009ACE802
:1005A000C009ACE8C0098D467047704700000000E4
:1005B00000BFFEE770B53648407802281ED13548A6
:1005C000006800F0100058B110203249086032482D
:1005D0000068B0B13048062102680120904710E061
:1005E0002C48006800F0030058B12B48006840B167
:1005F0002948022102680120904702E02020254975
:100600000860244808300468001F056804F00400EE
:1006100088B905F4806070B91E48001D006840F478
:1006200080601C49091D08601C48006818B11B48FF
:1006300001680320884704F0020088B905F40070BF
:1006400070B91448001D006840F400701149091D7C
:1006500008601248006818B11048016801208847F6
:1006600004F0010090B905F4807078B9C4F3074034
:100670005F280BD25F20B0EB146F07D10548001D37
:10068000006840F480700349091D086070BD0000D7
:100690004E0000201064004058000020540000204C
:1006A00070B52248006800283FD021480468001F28
:1006B000056804201E491439086004F0040078B16C
:1006C00005F4806060B11A48001F006820F4806063
:1006D0001749091F0860154801680420884724E06D
:1006E00004F0020078B105F4007060B11048001FFA
:1006F000006820F400700E49091F08600B4801686B
:100700000320884711E004F0010070B105F4807007
:1007100058B10748001F006820F480700449091F81
:100720000860024801680220884770BD540000201C
:100730001864004010B500F01DF800F023F80448DC
:1007400000F00AF80248407B0249087010BD000022
:10075000980000202600002038B5044604A0006858
:1007600000902146684603F091FD002038BD00004E
:100770000100000010B503F065FC03F019FC03F064
:100780007DFC10BD38B500241EA00068009003F069
:100790005BFD03F051FC012801D103F0DDFC00BF3B
:1007A0001949684603F072FD17480078552801D1B1
:1007B000002038BD03F040FC012802D103F0CCFC3E
:1007C00013E003F039FC80B900BF0F49684603F01D
:1007D0005DFD0D480078552801D10020E9E720464D
:1007E000611C8CB2B0F5407FEFDB074800785528DC
:1007F00004D02046611C8CB20528D1DB6FF00D00BF
:10080000D7E70000550000009800002000200449B0
:10081000087004490870044908700449087070475A
:1008200029000020280000202400002025000020AE
:1008300010B50446FFF7EAFF04F0010078B101F0BB
:10084000D1FC052003F048FE01F07CF801F0A4F88B
:1008500028B92F4802F010F808B9012010BD04F0A3
:10086000020010B904F0080000B301F0BBFC052041
:1008700003F032FE01F066F801F08EF8B0B900F036
:10088000CFFE98B92348807B00F0600020B904F0C7
:10089000020008B10220E1E71E48807B00F0200042
:1008A00020B104F0080008B10820D7E704F00400E4
:1008B00058B101F097FC052003F00EFE00F06CF932
:1008C00000F074F908B90420C8E704F0100060B122
:1008D00001F088FC052003F0FFFD01F0D1F920B9FB
:1008E00001F00AF908B91020B8E704F0200050B16F
:1008F00001F078FC052003F0EFFD054801F06EFAE9
:1009000008B92020AAE701F06DFC0020A6E700004E
:10091000A9020020C10300207047000010B505485F
:10092000006800F00F04034844602046FFF7F4FF1E
:1009300010BD0000000002407047000010B50548DF
:100940000068C0F303142001024948602046FFF705
:10095000F3FF10BD000002407047000010B50548CD
:100960000068C0F303242002024948602046FFF7D4
:10097000F3FF10BD000002407047000010B50548AD
:100980000068C0F303342003024948602046FFF7A3
:10099000F3FF10BD000002407047000010B505488D
:1009A0000068C0F303442004024948602046FFF772
:1009B000F3FF10BD000002407047000010B505486D
:1009C0000068C0F303542005024948602046FFF741
:1009D000F3FF10BD000002407047000010B505484D
:1009E0000068C0F303642006024948602046FFF710
:1009F000F3FF10BD000002407047000010B5082052
:100A000000F022F888B1082000F018F807480068C4
:100A100020F00800054908600548007810B1012061
:100A20000449087001200449087010BD0004014009
:100A300001000020020000200000002001490860A1
:100A40007047000014040140014600200022074BBB
:100A50001B6803EA0102054B14331B680B4013B1FA
:100A60000AB1012000E000207047000000040140AE
:100A7000002123498279002A3AD00A461268036885
:100A80009A430B461A600A1D126803689A430B1DAD
:100A90001A60027911440A6803681A430A60184A06
:100AA0000832126803689A43154B08331A601A1DFE
:100AB000126803689A43124B0C331A604279102A69
:100AC0000ED11A1F126803681A430D4B08331A60BF
:100AD0001A1D126803681A43094B0C331A600DE0A3
:100AE0000749427911440A6803681A430A6005E01D
:100AF000027911440A6803689A430A60704700004B
:100B0000000401407FB504461FA0006803901FA0A9
:100B1000006802901EA000680190234603AA0421E9
:100B2000052001F059FC05460DB1012000E0002030
:100B300000B125E003201749087002AB01226821AB
:100B40000420009401F0D2FC05460DB1012000E024
:100B5000002000B114E001AB01220A21042000941E
:100B600001F0C4FC05460DB1012000E0002000B1F9
:100B700006E044F6B07003F0D7F9002004B070BD71
:100B80006FF03E00FAE700005113010D0151000023
:100B900002A100003000002000B5ADF5057D01A8E0
:100BA000FFF7B0FF0DF5057D00BD000000B5ADF508
:100BB000057D4FF4047101A8FFF76FFC01A800F058
:100BC00025F820B16FF03E000DF5057D00BD012038
:100BD0000B4981F8280020220DF106010848FFF793
:100BE000F5FB0748411C0A6802624968416202201D
:100BF000044908700320044908700020E4E700005D
:100C0000B5060020240000202500002010B5044671
:100C10002146074801F0C8FA10B16FF03E0010BD40
:100C2000A078012802D06FF03E00F8E70020F6E738
:100C300079590008014609B910207047012901D1EE
:100C40001820FAE7022901D12020F6E7032901D173
:100C50002820F2E7042901D13020EEE7052901D14F
:100C60004020EAE7062901D16020E6E7072901D103
:100C70008020E2E74FF48070DFE7000018B500281D
:100C800044D0C0F34211C0F30322214B9B6903F00F
:100C900001032BB91E4B9B6943F001031C4CA3615C
:100CA00000F48053A3B11B4BDB69009300F01F03DA
:100CB00001FA03F3009C9C43009400F01F0302FA26
:100CC00003F3009C23430093124C009BE3611DE05F
:100CD000104B5B68009300F01F0301FA03F3009CC4
:100CE0009C43009400F01F0302FA03F3009C23438B
:100CF000009307210022009B23EA01630093009BDD
:100D000043EA02630093034C009B636018BD00003C
:100D1000001002400000014001461D48814204D1FC
:100D20001C488069C0F3800070471B48814204D191
:100D300018488069C0F3C000F6E71848814204D122
:100D400014488069C0F30010EEE71548814204D1D1
:100D500010488069C0F34010E6E71248814204D190
:100D60000C488069C0F38010DEE70F48814204D14F
:100D700008488069C0F3C010D6E70C48814204D10E
:100D800004488069C0F30020CEE70020CCE70000D3
:100D90000008014000100240000C0140001001401A
:100DA0000014014000180140001C014000200140D7
:100DB0002DE9F041024600250026002000230024F2
:100DC000002791F803C00CF00F0591F803C00CF058
:100DD000100CBCF1000F03D091F802C04CEA0505DD
:100DE00091F800C0BCF1000F31D0146800202BE056
:100DF0004FF0010C0CFA00F3B1F800C00CEA030646
:100E00009E4220D183004FF00F0C0CFA03F7BC4335
:100E100005FA03FC4CEA040491F803C0BCF1280F66
:100E200006D14FF0010C0CFA00FCC2F814C00AE025
:100E300091F803C0BCF1480F05D14FF0010C0CFA3A
:100E400000FCC2F810C0401C0828D1D31460B1F8CF
:100E500000C0BCF1FF0F34DD546800202EE000F12B
:100E6000080C4FF0010808FA0CF3B1F800C00CEAC6
:100E700003069E4221D183004FF00F0C0CFA03F7BA
:100E8000BC4305FA03FC4CEA040491F803C0BCF12E
:100E9000280F05D100F1080C08FA0CF8C2F81480EC
:100EA00091F803C0BCF1480F07D100F1080C4FF0D6
:100EB000010808FA0CF8C2F81080401C0828CED3AC
:100EC0005460BDE8F0812DE9F04105460C46174617
:100ED00098460F2C02D90020BDE8F0812846FFF784
:100EE0001BFF18B90121284600F02AF8B8F1000FBD
:100EF00010D1022F05D1E8680121A1408843E860A4
:100F000008E0032F06D127F00107E8680121A1407E
:100F10000843E860082C01D22E4601E0083C2E1D53
:100F20003068A2000F2191408843306048EA870072
:100F3000A10088403168084330600120CCE7000000
:100F4000002945D0454A904206D1454A926942F06F
:100F50000402434B9A6180E0424A904206D1404AE3
:100F6000926942F008023E4B9A6176E03E4A904216
:100F700006D13B4A926942F01002394B9A616CE00B
:100F80003A4A904206D1364A926942F02002344BE6
:100F90009A6162E0364A904206D1314A926942F043
:100FA00040022F4B9A6158E0324A904206D12C4AB7
:100FB000926942F080022A4B9A614EE02E4A90429A
:100FC0004BD1274A926942F48072254B9A6144E0E2
:100FD000224A904206D1224A926922F00402204B12
:100FE0009A613AE01F4A904206D11D4A926922F066
:100FF00008021B4B9A6130E01B4A904206D1184A06
:10100000926922F01002164B9A6126E0174A90422C
:1010100006D1134A926922F02002114B9A611CE01A
:10102000134A904206D10E4A926922F040020C4BBC
:101030009A6112E00F4A904206D1094A926922F061
:101040008002074B9A6108E00B4A904205D1044A9E
:10105000926922F48072024B9A6170470008014045
:1010600000100240000C014000100140001401403B
:1010700000180140001C01400020014002460020F1
:1010800093680B400BB1012000E0002070474161E4
:101090007047016170470AB1016100E0416170472A
:1010A00000BFFEE730B50346002400BF1BE01D78FB
:1010B00028090A2803DA00F13005157002E000F172
:1010C00037051570521C1D7805F00F000A2803DA49
:1010D00000F13005157002E000F137051570521C63
:1010E0005B1C651CECB28C42E1DB30BD10B500F03E
:1010F00001F810BD08B514208DF8030003208DF809
:1011000002000420ADF8000069460448FFF750FED5
:10111000012204210148FFF7BEFF08BD000801407D
:101120002DE9F04F87B004468B46A9A103C9CDE94C
:1011300005010027B846B946002600250020049086
:101140008246039002908DF814B0224605A9032030
:1011500001F09BF90190019808B1012000E0002006
:1011600000B133E16778B846781E205C00F0800952
:10117000E65D781C255C082D03D1612007B0BDE831
:10118000F08F1DE14FF00009202000EB0611681CD4
:101190000844C0B28DF815008EB9A078691CFF22F2
:1011A0008A4090438DF81600681CC0B240F04000A1
:1011B0008DF817009DF816008DF8080067E0012EE5
:1011C00018D1A0788DF81600E078691CFF228A40BB
:1011D00090438DF81700681CC0B240F040008DF8B5
:1011E00018009DF816008DF808009DF817008DF87E
:1011F00009004CE0022E1FD1A0788DF81600E0788F
:101200008DF817002079691CFF228A4090438DF8E1
:101210001800681CC0B240F040008DF819009DF81D
:1012200016008DF808009DF817008DF809009DF84C
:1012300018008DF80A002AE0032E26D1A0788DF838
:101240001600E0788DF8170020798DF81800607985
:10125000691CFF228A4090438DF81900681CC0B2B7
:1012600040F040008DF81A009DF816008DF8080037
:101270009DF817008DF809009DF818008DF80A00F8
:101280009DF819008DF80B0001E0612076E7311D13
:10129000C8B2224605A901F0F8F82078802801D0CC
:1012A00061206BE76778781E205C00F08009B9F157
:1012B000800F04D114F807A0781C205C0390781EDE
:1012C000205C00F00F00C0F10800C0B20490691C5F
:1012D0000498884245D196B99DF81600FF228A40AD
:1012E0009043A17808438DF80800E0788DF8090054
:1012F00020798DF80A0060798DF80B0033E0012E1B
:1013000010D19DF81700691CFF228A409043A178F4
:1013100008438DF80900E0788DF80A0020798DF8EF
:101320000B0020E0022E0DD19DF81800691CFF2251
:101330008A409043A17808438DF80A00E0788DF840
:101340000B0010E0032E0AD19DF81900691CFF2242
:101350008A409043A17808438DF80B0003E0612098
:101360000CE761200AE78020207084F801809DF856
:101370000800A0709DF80900E0709DF80A00207137
:101380009DF80B0060719DF808009DF80910484019
:101390009DF80A1048409DF80B104840A071B9F123
:1013A000800F0DD1564504D006EB0A00C6B2039D4E
:1013B00006E006EB0A00C6B20398401C2844C5B2FA
:1013C000B9F1800F3FF4DEAE0020D7E66120D5E60C
:1013D00000200800000000002DE9F0410646304DD5
:1013E000002493213046FFF79BFE8046B8F1000FA2
:1013F00001D0012000E0002000B14EE02948C07873
:10140000042804D12748D6F80210416005E0254899
:10141000B6F80310818071798171B77993222046E3
:10142000611CCCB22A5470222046611CCCB22A54D2
:101430001C48C078042806D128191A494968016057
:10144000201DC4B20CE088222046611CCCB22A5474
:10145000281914498A88028089798170E01CC4B2F5
:101460002046611CCCB22F5428222046611CCCB2ED
:101470002A5432462946204601F007F88046B8F142
:10148000000F01D0012000E0002000B105E0B0789D
:10149000044988730020BDE8F0816120FBE700006B
:1014A0009A000020C10300202DE9F0410646324D8C
:1014B000002495213046FFF733FE8046B8F1000F37
:1014C00001D0012000E0002000B152E02B48C0789C
:1014D000072805D12948D6F80210C0F8071006E001
:1014E0002648B6F80310A0F8071071794172B77951
:1014F00095222046611CCCB22A5470222046611CE1
:10150000CCB22A541D48C078072807D129191B4896
:10151000D0F807000860201DC4B20DE088222046E4
:10152000611CCCB22A5429191448B0F807200A804B
:10153000407A8870E01CC4B22046611CCCB22F54A3
:1015400028222046611CCCB22A5432462946204625
:1015500000F09BFF8046B8F1000F01D0012000E0B1
:10156000002000B105E0B078044988730020BDE890
:10157000F0816120FBE700009A000020C1030020F9
:101580002DE9F0410646244D002497213046FFF70F
:10159000C7FD8046B8F1000F01D0012000E0002017
:1015A00000B137E01D48D6F80210C0F80710B7792F
:1015B00097222046611CCCB22A5470222046611C1E
:1015C000CCB22A541548C0780A2806D129191348E4
:1015D000D0F807000860201DC4B22046611CCCB2C0
:1015E0002F5428222046611CCCB22A543246294668
:1015F000204600F04AFF8046B8F1000F01D00120DC
:1016000000E0002000B105E0B078044988730020B4
:10161000BDE8F0816120FBE79A000020C1030020B3
:1016200070B52C4D2846FFF7D7FE04460CB10120BB
:1016300000E0002000B14BE02748807B00F0040070
:1016400048B12846FFF730FF04460CB1012000E006
:10165000002000B13CE02048807B00F0040048B14D
:101660002846FFF78DFF04460CB1012000E0002062
:1016700000B12DE01848807B00F0200070B100F030
:1016800007F901201449C873284600F0A7F9044659
:101690000CB1012000E0002000B119E0012000F0B1
:1016A00041F802200D4908700B48807B00F0600073
:1016B00018B902200A49087008E00748807B00F04A
:1016C0002000202802D1042005490870002070BDA8
:1016D0006120FCE798000020C103002024000020C6
:1016E000250000200E490978890921B1012908D077
:1016F000022912D10BE00421094AD1700121917015
:101700000BE00721064AD1700221917005E00A2101
:10171000034AD1700321917000BF00BF70470000E1
:10172000C1030020F0B585B0054629A103C9CDE964
:10173000030129A00068029028A0006801900027FA
:10174000274E28480078342801DB062700E00427CC
:1017500025480088042802DA04202349088022480A
:1017600000788DF80D008DF80E5000208DF80F00D8
:10177000791CC8B2334603AA022100F02DFE0446AC
:101780000CB1012000E0002000B11FE002AB0022FC
:101790003A210420009600F0A9FE04460CB1012075
:1017A00000E0002000B111E00D4801AB01226821EA
:1017B0000090042000F09AFE04460CB1012000E0E5
:1017C000002000B102E0002005B0F0BD6120FBE781
:1017D00000000000030300005A04000001DF0000C5
:1017E00098000020260000202E00002070B586B052
:1017F00021A103C9CDE9040121A00068039021A023
:10180000006802900026204D20480078342801DB33
:10181000062600E00426711CC8B22B4604AA022149
:1018200000F0DAFD04460CB1012000E0002000B118
:101830001FE003AB00223A210420009500F056FE81
:1018400004460CB1012000E0002000B111E00E4878
:1018500002AB012268210090042000F047FE0446FC
:101860000CB1012000E0002000B102E0002006B031
:1018700070BD6120FBE700000000000002020000D4
:101880005A04000001DF000098000020260000201C
:1018900070B586B025A103C9CDE9040125A0006873
:1018A000039025A0006802900026244D244800786B
:1018B000342801DB062600E0042604208DF8110000
:1018C00000208DF812000C208DF81300711CC8B296
:1018D0002B4604AA022100F07FFD04460CB1012032
:1018E00000E0002000B11FE003AB00223A210420F9
:1018F000009500F0FBFD04460CB1012000E0002043
:1019000000B111E00D4802AB0122682100900420D3
:1019100000F0ECFD04460CB1012000E0002000B115
:1019200002E0002006B070BD6120FBE7000000006F
:10193000030300005A04000001DF000098000020AB
:101940002600002010B500F017F8FFF74FFF0446FF
:101950000CB1012000E0002000B108E001200549A1
:10196000087041F2EC3002F0DFFA002010BD612077
:10197000FCE70000300000200648002101804160A3
:1019800081608181002003498870C870C873087421
:1019900070470000C103002070B50E4C204600F0D7
:1019A00069F805460DB1012000E0002000B10FE00C
:1019B0002146042000F055FC05460DB1012000E051
:1019C000002000B104E0012003490874002070BD2C
:1019D0006120FCE798000020C1030020F8B5044610
:1019E00021A00068009022466946032000F04DFDCA
:1019F00005460DB1012000E0002000B132E0214693
:101A0000042000F02EFC05460DB1012000E000206E
:101A100000B127E02146022000F0EEFB05460DB1A3
:101A2000012000E0002000B11CE0E07800F00F068B
:101A30003046FFF7FFF80D490880E07800F02000FD
:101A400020280DD1E07800F01000102804D1607932
:101A500000090749088003E020790009044908804B
:101A60000020F8BD6120FCE7E08028002C00002069
:101A70002E00002038B504460BA0006800902246D6
:101A80006946022000F001FD05460DB1012000E08D
:101A9000002000B106E0054861880180FFF722FEC2
:101AA000002038BD6120FCE726070000C1030020AC
:101AB0007CB504460120019001AB0022682103207F
:101AC000009400F013FD05460DB1012000E0002058
:101AD00000B10FE00123022268210320009400F0EE
:101AE000B3FC05460DB1012000E0002000B101E08B
:101AF00000207CBD7120FCE738B5124D12A00068B3
:101B00000090284600F026F804460CB1012000E0C1
:101B1000002000B114E02B466A460321042000F0A7
:101B20005BFC04460CB1012000E0002000B107E09E
:101B3000022006490870052005490870002038BDBC
:101B40007120FCE79800002001043E0024000020E2
:101B5000250000207FB50446124B0FCB8DE80F0007
:101B60001148D0F80D00CDF8010022466946092041
:101B700000F08BFC05460DB1012000E0002000B113
:101B80000DE02146032000F037FB05460DB1012092
:101B900000E0002000B102E0002004B070BD712020
:101BA000FBE700006C5900085F06002010B50446F2
:101BB0000D22A11C0748FEF709FC064854F8031F34
:101BC000C0F80D106168C0F81110A168E41EC0F8DB
:101BD000151010BD5F0600202DE9FC41194E1AA01A
:101BE0000068019019A00068009004271848007848
:101BF000342801DA01AD00E06D4600F02DF83346DF
:101C00002A460321042000F0E7FB04460CB1012022
:101C100000E0002000B112E002200E49087000F040
:101C200087F804460CB1012000E0002000B106E076
:101C300041F2EC3002F078F90020BDE8FC8171201F
:101C4000FBE70000980000200102000001001A00DC
:101C5000260000203000002010B50D210748FEF7B7
:101C6000FAFB06480021C0F80D1000200349487611
:101C70003C2102481A30FEF7EEFB10BD5F06002043
:101C800070B50C4DFFF7A8FF04460CB1012000E031
:101C9000002000B10BE0284600F00EF804460CB11D
:101CA000012000E0002000B101E0002070BD7120A3
:101CB000FCE700009800002038B504460CA000683E
:101CC000009022466946032000F0DFFB05460DB177
:101CD000012000E0002000B107E00120054948761E
:101CE0002046FFF763FF002038BD7120FCE70000AD
:101CF000050000005F0600207CB50BA00068019085
:101D00000A4D01AB012268210420009500F0EEFB92
:101D100004460CB1012000E0002000B101E00020E9
:101D20007CBD7120FCE700000151000098000020FC
:101D300070B5104CFFF7E0FF05460DB1012000E043
:101D4000002000B113E02046FFF7B2FE05460DB1BA
:101D5000012000E0002000B109E0A078012804D1B2
:101D6000E078512801D1002070BD7120FCE771207E
:101D7000FAE70000980000202DE9F043044607AD83
:101D800095E8E0104FF0000801F00109204669F3E2
:101D90005F0002F0010940EA890003F0010940EA0E
:101DA000C90005F0010940EA091006F0010940EAFE
:101DB000491007F0010940EA89100CF0010940EAD6
:101DC000C9184FFA88F0BDE8F083014601F0100011
:101DD00008B1012070470020FCE70000F0B589B091
:101DE000054600F045F804460CB1012000E0002053
:101DF00000B136E0052002F06FFB00200122CDE9A2
:101E000000020290034611460390FFF7B5FF064615
:101E100005A80090F0B200231A46194600F062F8B7
:101E200004460CB1012000E0002000B119E09DF84B
:101E30001500401CC7B205A8C05D00F0020018B133
:101E40006FF00E0009B0F0BD1CB906982860079825
:101E500068600220044908700620044908700020C8
:101E6000F0E76FF00E00EDE72400002025000020D1
:101E70001FB50020039019A000680190092003906D
:101E800002AB03AA0121022000F0A6FA04460CB11D
:101E9000012000E0002000B11DE00420104908707E
:101EA00002A801AB012268210090042000F01EFB73
:101EB00004460CB1012000E0002000B10BE002A9B3
:101EC000022000F0CEF9F12803D16FF00E0004B02B
:101ED00010BD0020FBE76FF00E00F8E701D1000015
:101EE000300000202DE9FF4F85B014469946129E20
:101EF00000250020009082460027FF20307000203F
:101F00007070402C04DD6FF00C0009B0BDE8F08F5C
:101F1000059800F07EF88046B8F1000F01D001204E
:101F200000E0002000B171E029466A1CD5B201AA88
:101F30000598505401222846691CCDB201A90A54C3
:101F40000598FFF742FF012805D129466A1CD5B242
:101F500001AA069850542846691CCDB201A90C5418
:101F6000E4B3402C02D10820009007E02046E1179E
:101F700004EB5171C910491CC9B200910098401E70
:101F8000A4EBC00000F0FF0ABAF1000F06D0012058
:101F900000FA0AF0401E4FFA80FB01E04FF0FF3BD1
:101FA000009801280EDD002708E019F807202846D0
:101FB000691CCDB201A90A54781C47B20098401E92
:101FC000B842F2DCBAF1000F08D019F8070000EAB5
:101FD0000B0029466A1CD5B201AA5054324601A909
:101FE000284600F052FA8046B8F1000F01D00120D7
:101FF00000E0002000B109E03146042000F031F992
:1020000010B16FF00E0080E700207EE76FF00E0049
:102010007BE7014601F0040008B1002070476FF033
:102020000E00FBE708B54FF4A06000F0B3F80920FC
:102030008DF8000001208DF801008DF802008DF868
:102040000300684600F06EF817208DF800000020AD
:102050008DF801008DF8020001208DF8030068461C
:1020600000F060F80A208DF8000000208DF80100D3
:1020700001208DF802008DF80300684600F052F848
:1020800008BD014605290ED2DFE801F00305070966
:102090000B00002070470020FCE70020FAE700203A
:1020A000F8E70020F6E72220F4E7000038B5044600
:1020B0000B4951F82400012100F048FA094830F892
:1020C0001400ADF8000010208DF8030003208DF8F7
:1020D0000200054951F824006946FEF769FE38BD43
:1020E000805900088459000834000020034931F861
:1020F0001010034A52F8202051617047845900089B
:1021000034000020034931F81010034A52F820200F
:1021100011617047845900083400002000BFFEE7B9
:102120007047000070B5002100230F22C47804B36B
:10213000154C246804F4E064C4F5E064210AC1F19C
:102140000403CA40447804FA03F18478144021431C
:1021500009010E4C0678A155047804F01F050124EE
:10216000AC4005786D11AD0005F1E025C5F80041E2
:1021700009E0047804F01F050124AC40044D067802
:10218000761145F8264070BD0CED00E000E400E05B
:1021900080E100E002490143024A116070470000FB
:1021A0000000FA050CED00E070B504460D46294626
:1021B000204602F06BF82946042000F052F808B1DE
:1021C000212070BD0020FCE738B5044604A000685B
:1021D00000902146684602F059F8002038BD000002
:1021E000550000001FB5002003906B4603AA002194
:1021F000022000F0F1F81FBD03464A78012B06D0FB
:10220000022B0ED0032B16D0042B28D11DE0501C1E
:10221000085C00F00200022801D121207047002054
:10222000FCE7501E085C00F02000202801D121208E
:10223000F4E70020F2E7501C085C00F002000228DE
:1022400001D12120EAE70020E8E7501C085C00F0FB
:102250000200022801D12120E0E70020DEE7012072
:10226000DCE702460878212801D123207047082A9C
:1022700061D008DC012A13D0022A17D0042A24D006
:10228000072A6BD14CE0092A60D00A2A64D0552A6B
:1022900064D10878552801D10020E7E72120E5E73F
:1022A000087808B90020E1E72120DFE7087820B1AD
:1022B000822804D0832806D103E00020D6E721201D
:1022C000D4E72120D2E72120D0E7087880381128F0
:1022D00024D2DFE800F00923232323231113151749
:1022E000191B1D1F21230F00487808B10020BDE7EE
:1022F0002120BBE70020B9E72120B7E72120B5E77F
:102300002120B3E72120B1E72120AFE72120ADE76D
:102310002120ABE72120A9E72120A7E72120A5E77D
:10232000087810B1822804D101E000209EE7212026
:102330009CE721209AE7087810B1822804D101E0B7
:10234000002093E7212091E721208FE7087808B942
:1023500000208BE7212089E7212087E7012085E7FE
:1023600010B500241A480078012801D101F0F4FECC
:1023700000BF1848FFF728FF16480078552801D1FC
:10238000002010BD12480078012802D101F0E4FEBF
:1023900012E00F48007878B900BF0E48FFF714FF2D
:1023A0000C480078552801D10020EAE72046611C3E
:1023B0008CB2B0F5407FF0DB06480078552804D099
:1023C0002046611C8CB20528D3DB2620D9E700000B
:1023D0001B000020980000202DE9FE4305460E4614
:1023E00017461C461748FFF7EFFE16480078552899
:1023F00001D0FFF7B5FF212020700020607030462B
:10240000FFF73FFE4FFA80F8B8F1000F01D001202E
:1024100000E0002000B113E002208DF800008DF8EC
:1024200001508DF802606A1E39460DF10300FDF778
:10243000CDFF2146684601F029FF0020BDE8FE835C
:102440002220FBE7980000202DE9FC4104460D46C0
:1024500016461F46DDF8208008208DF800008DF814
:1024600001408DF802508DF803608DF804704146EC
:10247000684601F00BFF41460720FFF7F2FE10B15E
:102480002120BDE8FC810020FBE770B5C2B0044606
:102490000E4615462120287000206870012C03DBB1
:1024A000FF2C01DC012000E0002010B9272042B001
:1024B00070BD04208DF804008DF805402246314699
:1024C0000DF10600FDF782FF294601A801F0DEFEAE
:1024D00029460420FFF7C5FE30B12878872801D1AE
:1024E0002820E4E72120E2E70020E0E72DE9F041A1
:1024F000C2B004460D4616461F46DDF8208109206D
:102500008DF804008DF805408DF806508DF80760B1
:10251000A21E394602A8FDF759FF414601A801F065
:10252000B5FE002042B0BDE8F081000029B1064AA6
:1025300012690243044B1A6104E0034A12698243A0
:10254000014B1A61704700000010024029B1064A91
:1025500092690243044B9A6104E0034A9269824300
:10256000014B9A61704700000010024029B1064AF1
:10257000D2680243044BDA6004E0034AD268824323
:10258000014BDA60704700000010024021B1028860
:1025900042F04002028004E002884FF6BF731A4006
:1025A0000280704710B504461148844208D10121C9
:1025B0008014FFF7DBFF0021A014FFF7D7FF16E020
:1025C0000C48844208D101210014FFF7AFFF00211D
:1025D0002014FFF7ABFF0AE00748844207D101212E
:1025E000C013FFF7A3FF0021E013FFF79FFF10BD0B
:1025F0000030014000380040003C0040024600200E
:1026000013890B400BB1012000E000207047014608
:10261000888970478181704710B50022028802F4D2
:1026200041520B884C8823438C882343CC88234316
:102630000C8923434C8923438C892343CC8923432E
:102640001A430280838B4FF2FF74234083830B8AEB
:10265000038210BD2DE9F04180460E4615461F4607
:10266000B5F5047F02DD4FF4047000E0284605460E
:10267000002406E0315D404600F007F83855601C44
:1026800084B2AC42F6DBBDE8F08170B504460D467D
:1026900000BF02212046FFF7B1FF0028F9D02946EC
:1026A0002046FFF7B7FF00BF01212046FFF7A6FF36
:1026B0000028F9D02046FFF7AAFFC0B270BD002164
:1026C000018041808180C180018141818181C181FE
:1026D00007210182704710B500F002F810BD00001C
:1026E0000CB50020019000903348006840F4803021
:1026F0003149086000BF3048006800F400300090A5
:102700000198401C0190009818B90198B0F5A06F8D
:10271000F1D12948006800F4003010B10120009088
:1027200001E0002000900098012843D12348006870
:1027300040F01000214908600846006820F00300BE
:1027400008600846006840F0020008601A484068C7
:10275000194948600846406848600846406840F4A7
:10276000806048600846406820F47C104860084655
:10277000406840F4E81048600846006840F0807007
:10278000086000BF0C48006800F000700028F9D015
:102790000948406820F0030007494860084640683F
:1027A00040F00200486000BF0348406800F00C00A1
:1027B0000828F9D10CBD00000010024000200240A2
:1027C00010B50446002006490870064804802146DA
:1027D000054800F04FF80121034800F03FF810BD14
:1027E00019000020220000200004004010B5002144
:1027F000014800F033F810BD0004004010B5134844
:10280000006840F00100114908600846406810491E
:1028100008400E494860084600680E4908400B49C8
:1028200008600846006820F4802008600846406878
:1028300020F4FE0048604FF41F008860FFF74BFF54
:102840004FF000600449086010BD00000010024015
:102850000000FFF8FFFFF6FE08ED00E021B102885E
:1028600042F00102028004E002884FF6FE731A4033
:10287000028070478184704770B504462146134832
:10288000FFF792FC08B1612070BD6078401EC5B2B0
:10289000605D00F02000202801D16220F4E720785C
:1028A000802804D16078042801D16120ECE702205F
:1028B000074908702078802803D101200549087055
:1028C00001E06120E0E70020DEE700006059000839
:1028D000240000202500002070B504460D46034A60
:1028E0002946204600F0B4F870BD00009C5900084D
:1028F00008B5024800F0BCFC009008BD9C590008D7
:1029000008B5024800F0B7FC009008BD9C590008CB
:1029100010B5024800F0F7FC10BD00009C590008FB
:1029200008B5024800F0F3FC009008BD9C5900086F
:1029300010B5024800F055FD10BD00009C5900087C
:1029400010B5024800F051FD10BD00009C59000870
:1029500010B504460249204600F082FE10BD00007A
:102960009C59000810B504460249204600F00EFFAD
:1029700010BD00009C59000870B504460D46034A7E
:102980002946204600F0EAFF70BD00009C5900086F
:1029900070B504460D46034A2946204601F02FF83B
:1029A00070BD00009C59000810B50446024920463D
:1029B00001F069F810BD00009C59000870B504468C
:1029C0000D461646034B32462946204601F0A9F82B
:1029D00070BD00009C59000810B5024801F0D6F8FF
:1029E00010BD00009C5900087047000010B50F484A
:1029F00081680F4888470D480169022088470B48C5
:102A00004FF4E131826A0120904708480121826A2F
:102A10001520904705480121826A162090470348F7
:102A20001921426903A0904710BD0000D459000845
:102A3000E929000869276D20757361727431206679
:102A40006F7220416E64726F69640D0A00000000AD
:102A50002DE9FE4F07460D461446206BC07A00F064
:102A6000020018B94FF0FF30BDE8FE8F0020009043
:102A700080468346F8B2153806287CD2DFE800F09D
:102A8000A3DC032C4E6CA5B1606B90F8210010B153
:102A90006FF00100E8E70120616B81F82100616BB4
:102AA00081F820006068808940F081006168888139
:102AB00010E0606B90F8200060B16068808920F0C1
:102AC0008000616888810020616B81F82000616B63
:102AD00081F821000020C7E76068808920F0C000ED
:102AE00061688881A06A88B1606B90F8210068B144
:102AF0006068808A20F0800061688882A16A086826
:102B0000016821F00101016000BF00BF0020616B7E
:102B100081F82000616B81F82100A5E76068808959
:102B200020F0200061688881E06A80B1206B4079E4
:102B300068B16068808A20F0400061688882E16A3C
:102B40000868016821F00101016000BF00BF002199
:102B5000206B4171002087E76068808920F0E000E9
:102B600061688881A06A98B1606B90F8210078B1A3
:102B70006068808A00E0C2E020F08000616888829E
:102B8000A16A0868016821F00101016000BF00BF6F
:102B9000E06A80B1206B407968B16068808A20F07B
:102BA000400061688882E16A0868016821F00101DB
:102BB000016000BF00BF0021206B41710020616BEC
:102BC00081F8210050E7E06810B94FF0FF304BE783
:102BD000BDB1206BC068062806D0E2689188032347
:102BE00010680222FEF76FF9206BC07A40F00800EF
:102BF000216BC8726068808940F008006168888134
:102C000018E06068808920F0080061688881206B86
:102C1000C07A20F00800216BC872206BC0680628BB
:102C200008D0E06830B1E2689188002310681A4645
:102C3000FEF749F9002017E7206910B94FF0FF307F
:102C400012E7E5B3206BC06806280AD0206BC06885
:102C5000042806D022699188002310680122FEF71B
:102C600032F9206BC07A40F01000216BC8726068A6
:102C7000808A40F00100616888826068008A40F0C4
:102C80004000616808826068808940F010006168D7
:102C90008881206B407918B1E06A08B1012000E01A
:102CA000002028B96068808940F020006168888130
:102CB0006068808940F00400616888811DE0FFE75A
:102CC0006068808920F0040061688881206BC07A88
:102CD00020F01000216BC872206BC06806280CD051
:102CE000206BC068042808D0206930B1226991881F
:102CF000002310681A46FEF7E6F80020B4E600BF8D
:102D000000BF206B407918B9606B90F8210010B1BA
:102D10006FF00100A8E66068808900F0080038B113
:102D20006068008800F0400010B96FF001009BE679
:102D3000F8B2152872D2DFE800F0C90B0E1D20256D
:102D40002AC9C9C9C9C9C9C9C9C9373B697EB80037
:102D500001200290BDE02078C0F3400020B148F48B
:102D6000006848F4807802E06FF006007CE60220FC
:102D70000290AEE06FF0060076E64BF0080B042000
:102D80000290A6E04BF0020B05200290A1E0207813
:102D9000C0F3401010B14BF0200B02E06FF00600C2
:102DA00062E60620029094E0616B4D8300205BE6B2
:102DB000206BC068052824D015B36068808A40F075
:102DC000040061688882D4F808A0FE48B0FBFAFAD3
:102DD000012605E00AFB06F0A84200D902E0761CB5
:102DE000FF2EF7D900BFB6F5807F02D14FF0FF303C
:102DF0003AE66068008B20F0FF003043616808838A
:102E000002E04FF0FF302FE600202DE6206BC06877
:102E100006280BD1FF2D02D9C01F25E656E06068B9
:102E2000008BC0B228436168088302E04FF0FF3096
:102E30001AE6002018E6206BC068062830D1D4F8C6
:102E400008A0E048B0FBFAFA012619E00AFB06F0F8
:102E500040006421484305EB051101EB4101B0EB53
:102E6000410F0CD20AFB06F040006421484305EBF9
:102E7000051101EB4511B0EB410F00D902E0761CC2
:102E8000402EE3D300BF402E02D14FF0FF30EBE5E0
:102E90006068008B20F0FF0030436168088302E027
:102EA0004FF0FF30E0E50020DEE5206BC06806282B
:102EB00007D14DB16068808A40F010006168888257
:102EC00002E04FF0FF30CFE50020CDE56FF00300CA
:102ED000CAE500BF07F4E06060B1B0F5807F13D0B1
:102EE000B0F5E06F1DD107F4405010B96FF0080045
:102EF000BAE519E007F4405028B148F020080098DE
:102F000040F4805000900FE007F4405010B16FF093
:102F10000800A9E548F02008009840F4805000908F
:102F200002E06FF008009FE500BF07F4405030B1A9
:102F3000B0F5805F04D0B0F5005F0BD105E00CE088
:102F4000009840F48060009007E0009840F4C06072
:102F5000009002E06FF0090086E500BF07F44040F2
:102F600048B1B0F5804F07D0B0F5004F07D0B0F5AD
:102F7000404F0AD106E00BE048F4005808E048F45E
:102F8000405805E048F4805802E06FF00A006BE515
:102F900000BF07F4403048B1B0F5803F09D0B0F52C
:102FA000003F13D0B0F5403F2ED11CE04FF0000998
:102FB0002DE02078C0F3C01020B14FF480394BF4DD
:102FC000807B02E06FF00B004EE520E02088C0F32C
:102FD000002020B14FF400394BF4C06B02E06FF0D9
:102FE0000B0041E513E02078C0F3C01040B1208809
:102FF000C0F3002020B14FF440394BF4E06B02E005
:103000006FF00B0030E502E06FF00B002CE500BF25
:10301000029802281DD107F4802018B1B0F5802F46
:1030200004D100E005E048F4806802E06FF00C0095
:103030001AE500BF07F4002018B1B0F5002F04D145
:1030400000E005E048F4007802E06FF00D000BE5C9
:1030500000BFA06800EBC00101EB0010A900B0FBAD
:10306000F1F06421B0FBF1F1A06800EBC00202EBCB
:103070000010AA00B0FBF2F0A26802EBC20303EB5F
:103080000212AB00B2FBF3F26423B2FBF3F202EBE9
:10309000C20303EB0212A0EB8200322202EB00100B
:1030A0006422B0FBF2FA61F31F1AA06800011FFA54
:1030B0008AF1B0FBF1F000090190642101984843C6
:1030C00005EB051101EB4101B0EB410F09D2642181
:1030D0000198484305EB051101EB4511B0EB410F99
:1030E00002D86FF00700BFE46068808920F40050C8
:1030F000616888816168A1F808A00298216BC860A6
:10310000206BC0F81090206BC068062809D1E068D9
:1031100030B1E2689188032310680222FDF7D3FEE4
:1031200017E0206BC07A00F0080048B1E06880B179
:10313000E2689188032310680222FDF7C4FE08E0CC
:10314000E06830B1E2689188002310681A46FDF704
:10315000BAFE00BF206BC068042802D006280BD13D
:1031600000E000BF206930B1226991880023106817
:103170001A46FDF7A8FE18E0206BC07A00F0100098
:1031800048B1206980B1226991880023106801222A
:10319000FDF799FE08E0206930B12269918800238B
:1031A00010681A46FDF78FFE00BF00BF6069D0B1FE
:1031B000206BC068022802D006280BD100BF6269CC
:1031C000918801E000CA9A3B032310680222FDF7B0
:1031D0007AFE07E062699188002310681A46FDF7BD
:1031E00072FE00BF00BFA069A0B1B9F5803F02D058
:1031F000B9F5403F07D1A2699188032310680222E4
:10320000FDF761FE06E0A2699188002310681A4666
:10321000FDF759FEE069A0B1B9F5003F02D0B9F55C
:10322000403F07D1E2699188002310680122FDF731
:103230004AFE06E0E2699188002310680122FDF74A
:1032400042FE0098616888816168A1F81080616819
:10325000A1F814B06068808940F4005061688881EA
:10326000206BC07A40F00400216BC872002011E48A
:103270000146086870470CB50146019820F001002E
:103280000190086B006920B1086B0069B0F5803FC0
:103290000ED1C86960B1CB6998881A689368C34039
:1032A00003F0010323B9019820F00100401C0190B4
:1032B000019820F002000190019820F00800019090
:1032C000019820F0040001900198009A60F3000238
:1032D000009201984208009862F341000090019822
:1032E0008208009862F3820000900198C20800985A
:1032F00062F3C300009001980209009862F31F1066
:10330000009000980CBD0146486B006970470CB5F1
:103310000146486B90F8210028B1019820F0010087
:10332000401C019008E048680088012222EA9012BF
:10333000019862F300000190086B4279019862F3F2
:1033400041000190086B8279019862F3820001903C
:10335000086BC279019862F3C3000190086B027A8E
:10336000019862F304100190086B427A019862F3AD
:1033700045100190086B827A019862F386100190E3
:103380000198009A60F300020092019842080098A8
:1033900062F34100009001988208009862F3820075
:1033A00000900198C208009862F3C3000090019851
:1033B0000209009862F304100090019842090098F5
:1033C00062F34510009001988209009862F386101C
:1033D00000900198C209009862F3DF1000900098F5
:1033E0000CBD0146486B406970472DE9F041044629
:1033F0006068068800270025A84606F0200061685E
:1034000089890840002860D0206B407938B960680D
:1034100080880121206BC17145F0200555E0206BAB
:10342000C068022806D1606BC069012802D16068BB
:10343000808802E06068B0F80480606B8268501C8D
:10344000636B986082F800806068878907F4806009
:1034500050B907F4805038B14FEA2821606B826878
:10346000501C636B98601170606B0069401C616B4D
:103470000861606B0069616B0968884225D16068EA
:10348000808920F01000616888810021206B4171E3
:10349000206BC068022816D1606BC7690020616B81
:1034A000C861012F04D0022F05D0032F09D105E0F8
:1034B00045F0010506E045F0020503E045F004058E
:1034C00000E000BF01E045F0020506F01000616871
:1034D0008989084030B1606880880021206B417183
:1034E00045F0400506F080006168898908400028A1
:1034F00063D0606B90F8200030B16068808940F044
:1035000001006168888158E0606B4068616B4969BF
:10351000884222D0206BC068022807D1606BC06946
:10352000022803D1606BB0F81A8016E0606BC168A6
:10353000481C626BD06091F800806068878907F44E
:10354000806050B907F4805038B1606BC168481C86
:10355000626BD060087848EA0028606B4069401CC4
:10356000616B48616068A0F80480606B4068616BC3
:103570004969884221D16068808920F080006168B3
:1035800088816068808940F04000616888810020FF
:10359000616B81F82100206BC06802280BD1606B41
:1035A000C069012809D1206BC07A00F0100020B951
:1035B00045F0010501E045F0010506F040006168B5
:1035C0008989084038B16068808920F040006168CE
:1035D000888145F0080506F0080030B160688088F1
:1035E0000121206BC17145F0200506F0020030B1C9
:1035F000606880880121206B417245F4807506F077
:10360000010030B1606880880121206B817245F42F
:10361000007506F4807050B16068008820F48070F6
:10362000616808800121206B017245F0800506F475
:10363000007038B16068008820F40070616808800C
:1036400045F4806525B1206B006808B1012000E0D9
:10365000002018B1206B016828468847BDE8F0813A
:1036600070B505460C46206BC07A00F0010008B129
:10367000002070BD206B05600020216B08710021C7
:10368000206B4171206B8171206BC171206B0172C5
:10369000206B4172206B81720020216BC860616BCE
:1036A00081F821002421606BFCF7F7FE608CFDF7A8
:1036B000E5FAE06820B1E16808680121FDF740FC07
:1036C000206920B1216908680121FDF739FC606992
:1036D00020B1616908680121FDF732FCA06920B1C1
:1036E000A16908680121FDF72BFCE06920B1E169BF
:1036F00008680121FDF724FC0120216BC87200201D
:10370000B7E700001D49884205D11D49C96841F449
:1037100080411B4AD1601B49884205D1184909697B
:1037200041F40031164A11611749884205D1144904
:10373000096941F48021124A116100BF00BF00BF36
:1037400000BF0E49884205D10D49C96821F4804166
:103750000B4AD1600B49884205D10949096921F416
:103760000031074A11610849884205D104490969B5
:1037700021F48021024A11617047000000380140A5
:1037800000100240004400400048004070B505466B
:103790000C4625B1012D5BD0022D7DD15BE0606828
:1037A000FFF7B0FF94F92400002817DB00F01F0298
:1037B00001219140634A430942F8231000BF00BF32
:1037C00000BFBFF34F8F00BF00BF00BF00BF00BFEF
:1037D00000BFBFF36F8F00BF00BF00BF00BF5A49DB
:1037E0006068884205D15948806920F48040574973
:1037F000886157496068884205D15448C06920F4FF
:1038000000305249C86153496068884205D14F4829
:10381000C06920F480204D49C8610020216B0871E7
:103820000021206B4171206B8171206BC171206B75
:103830000172206B4172206B81720020616B81F8F4
:103840002100206BC07A20F00200216BC87276E064
:103850006FF0030070BD206BC07A00F0010010B95A
:103860004FF0FF30F6E7206BC07A00F0020008B19D
:103870000020EFE70020216B08710021206B4171CF
:10388000206B8171206BC171206B0172206B4172C2
:10389000206B8172002000E04EE0616B81F8210016
:1038A000616B4883616BC861616B81F82000216B9B
:1038B000C860216B08610320216BC87222496068CF
:1038C000884205D12148806940F480401F498861C1
:1038D0001F496068884205D11C48C06940F4003027
:1038E0001A49C8611B496068884205D11748C069F8
:1038F00040F480201549C86194F92400002807DBB2
:1039000000F01F0201219140134A430942F823109D
:1039100000BF94F92400002809DB00F01F020121F8
:1039200091404209920002F1E022C2F8001100BF6A
:103930006068FFF7E7FE02E06FF003008AE700BF70
:10394000002087E780E100E00038014000100240DD
:10395000004400400048004080E200E02DE9F041D2
:1039600005460E46144605B11EB96FF00400BDE8C9
:10397000F081206BC07A00F0040010B94FF0FF30E6
:10398000F5E7206B4079012801D1C01EEFE76068A0
:10399000808920F0200061688881606B06600021CA
:1039A000206B0172206B4172206BC171206B8172A0
:1039B000606B85600020616B08610121206B4171A3
:1039C0006068808940F0300061688881206BC06841
:1039D000022812D1606BC06978B90220616BC8619E
:1039E000616B01F11A002246314600F008F80746E3
:1039F000B81C10B96FF00100B9E70020B7E72DE956
:103A0000F04105460E46144605B11EB96FF004009C
:103A1000BDE8F081206BC07A00F0040010B94FF0CF
:103A2000FF30F5E7606B90F8210010B16FF00100F6
:103A3000EEE70120616B81F82100606BC560606B6F
:103A400046600020616B4861206BC068022812D17B
:103A5000606BC06978B90120616BC861616B01F16D
:103A6000180022463146FFF779FF0746B81C10B907
:103A70006FF00100CCE76068808940F080006168E9
:103A800088810020C4E770B5044634B1012C22D0EF
:103A9000022C3FD0032C3CD13DE0086B006920B1E3
:103AA000086B0069B0F5003F11D1886990B18D694C
:103AB000AA88012328681BB101259540056104E00F
:103AC00002F110050126AE40066100BF02E04FF092
:103AD000FF3070BD22E0086B006920B1086B0069FF
:103AE000B0F5003F11D1886990B18D69AA88002393
:103AF00028681BB101259540056104E002F110051D
:103B00000126AE40066100BF02E04FF0FF30E0E763
:103B100004E000BF00BF4FF0FF30DAE700BF002035
:103B2000D7E72DE9F04180460E4617461C46B8F10E
:103B3000000F01D006B11FB96FF00400BDE8F0819D
:103B4000206BC07A00F0040010B94FF0FF30F5E7A9
:103B5000206BC068022814D10320616BC861224623
:103B600039463046FFF7FAFE05460DB12846E5E72F
:103B7000224639464046FFF742FF054625B1284612
:103B8000DCE74FF0FF30D9E70020D7E710B5044657
:103B9000E06830B1E2689188002310681A46FDF7AA
:103BA00092F9206930B122699188002310681A4681
:103BB000FDF789F9606930B1626991880023106866
:103BC0001A46FDF780F9A06930B1A26991880023F7
:103BD00010681A46FDF777F9E06930B1E26991881B
:103BE000002310681A46FDF76EF9208CFDF746F8A1
:103BF0000020216BC87210BD08B502480068009013
:103C000008BD00008859000870B54148006800F000
:103C1000020070B13F488078012807D13E48006813
:103C200020B13D4801210268022090470120384917
:103C300008603748006800F4007078B13548C078F3
:103C4000012807D13448006820B1334801210268B7
:103C5000032090474FF480702D4908602C4800687D
:103C600000F4003078B12B480079012807D12A48A8
:103C7000006820B1284801210268042090474FF4D1
:103C8000803023490860224810300468001F05680E
:103C900004F0040088B905F4806070B91C480C3049
:103CA000006840F480601A490C3108601B480068C5
:103CB00018B11A4801680320884704F0020088B947
:103CC00005F4007070B912480C30006840F40070C0
:103CD0000F490C3108601148006818B10F4801689D
:103CE0000120884704F0010088B905F4807070B99C
:103CF000C4F307405F280AD1B0EB146F07D904481A
:103D00000C30006840F4807001490C31086070BDCF
:103D1000086400404E00002058000020540000209D
:103D200070B53648007802281ED13548006800F08A
:103D3000100058B110203249086032480068B0B114
:103D40003048062102680020904710E02C480068A7
:103D500000F0030058B12B48006840B12948022107
:103D600002680020904702E020202549086024488E
:103D70000C300468001F056804F0040088B905F4DD
:103D8000806070B91E480830006840F480601C49AB
:103D9000083108601C48006818B11B4801680320FE
:103DA000884704F0020088B905F4007070B914481F
:103DB0000830006840F4007011490831086012486A
:103DC000006818B1104801680120884704F001001C
:103DD00090B905F4807078B9C4F307405F280BD21E
:103DE0005F20B0EB146F07D105480830006840F43D
:103DF000807003490831086070BD00004E0000204B
:103E00000C640040580000205400002000BFFEE772
:103E100010B5002A06DA22F00042D21D22F0070374
:103E2000102203E0D21C22F003030C2213B19C18D1
:103E30008C4201D9012010BD024401448360C0E9D5
:103E40000021C91AD018884202D810600246F9E74A
:103E50000020106010BD000005490978002905D038
:103E600000684FF6FF71DFF80CC000DF70470000FC
:103E700071000020694F000804490978002903D027
:103E80000068DFF80CC000DF704700007100002000
:103E9000914E00080748006840F0807005490860AE
:103EA0000020054948600846006840F001000860AD
:103EB00070470000FCED00E0001000E008480068DA
:103EC000C0010BD507480068C00707D005488038F7
:103ED0000068002802DA04490120087070470000D9
:103EE000FCED00E0800E00E0940000204FF0604206
:103EF000D36F002BFCD0036BD367D36F002BFCD0A8
:103F0000C07840EA0120A2F87C0070474FF0604181
:103F1000CA6F002AFCD081F87C00704710B50446B7
:103F2000204600F0D9FA10BD30B5084C6368002176
:103F3000074C2468074DB4FBF5F404FB00F202E0E3
:103F4000024C6468E11A9142FAD330BD001000E0DF
:103F50005C00002040420F0010B501210820FEF750
:103F6000F5FAFEF75FF8FEF741FD0020FEF79EF838
:103F70000A2000F0B1FAFCF7DDFB0020FEF7C2F8E2
:103F80004FF4C87000F0A8FA0020FEF7AFF810BD9B
:103F900000F06AFB10B5FFF7DFFF0021024800F0D8
:103FA000FBFA0249086010BD445900080C000020CB
:103FB00010B500F00DFA01200149C87010BD0000D5
:103FC0001B00002008B52020ADF8000003208DF86C
:103FD000020018208DF8030069461148FCF7E8FE3E
:103FE0008020ADF8000069460D48FCF7E1FE042092
:103FF0008DF803004020ADF8000069460848FCF742
:10400000D7FE1020ADF800008DF803006946044883
:10401000FCF7CEFE10210248FDF73BF808BD00007A
:104020000008014010B502210248FDF727F840B210
:1040300010BD0000000C01400148007870470000EE
:104040001B0000200120054908700020C8700320D3
:104050004870002008718870704700001B00002025
:1040600010B50548FEF79EFA00F016F8FFF7AAFF14
:1040700000F072F910BD00000030014010B5FFF7EC
:10408000D1FF30B1012003490870FFF7E9FFFDF7C8
:104090002DF810BD1B00002010B501210420FEF7F3
:1040A00055FA01210803FEF751FA10BD30B5ADF500
:1040B000057D0446002510212548FCF7E8FF022174
:1040C0002448FEF7E2FAFF212248FEF7DEFA2070CC
:1040D000207855280CD100206070FF211D48FEF784
:1040E000D4FAA070FF211B48FEF7CFFAE07027E05A
:1040F0002078FF280CD100206070FF211548FEF7C2
:10410000C4FAA070FF211348FEF7BFFAE07017E071
:10411000FF211048FEF7B9FA6070207800F0E00047
:10412000802801D1607858B1207800F0600560786F
:1041300000EBC505A31C2A4601A90648FEF78AFA2A
:1041400010210348FCF7A5FF0DF5057D30BD0000EB
:10415000000801400030014010B510210D48FCF767
:1041600098FF0120FFF7DAFE10210A48FCF78FFFC5
:1041700000F0EAF810210748FCF78BFF0320FFF757
:10418000CDFE00F061F80A20FFF7C8FE05200249C5
:10419000487010BD000801401B00002010B500242D
:1041A0002248007818B140F6B830FEF709FB2048E5
:1041B000C078E8B900BF01211E48FEF74FFB10216F
:1041C0001D48FCF764FF022000F086F903211B481C
:1041D000FEF75BFA044604F00804082C03D01848E4
:1041E00000780128E7D110211348FCF752FF11E0B5
:1041F0000F48C07801280DD100BF1248007880F028
:1042000001000F49097809B9012100E000210840A7
:104210000028F2D10548007808B1FEF7E7FA08480F
:104220000078012800D110BD0020FCE71A00002012
:104230001B00002000040040000801400030014045
:10424000190000200000002010B50E480078012859
:1042500014D1012204210C48FCF71DFF0120FFF7B7
:104260005DFE002204210848FCF715FF0120FFF73E
:1042700055FE012204210448FCF70DFF0A20FFF738
:104280004DFE10BD1B0000200008014070B5054622
:104290000C462E781048C078012801D100F098F81B
:1042A0000D48007801280CD1284600F017F8FFF7D8
:1042B00075FF18B1FD202070012070BD2046FFF76A
:1042C000F5FE052E05D10448C078012801D100F083
:1042D00065F80020F1E700001B00002030B5ADF5C7
:1042E000057D0446002510211548FCF7D0FE00216D
:1042F0001448FEF7CAF92078552804D155211148F1
:10430000FEF7C3F915E02078242803D1607800F582
:10431000817508E02078442803D1607800F20225F6
:1043200001E06078851C01AB2A4621460548FEF76E
:1043300091F910210248FCF7ACFE0DF5057D30BD6A
:10434000000801400030014010B501210148FEF78E
:104350009CF910BD0030014000B585B06846FEF7FD
:10436000AEF94FF48270ADF802002820ADF80C00D1
:104370004FF40070ADF80A000220ADF806000120ED
:10438000ADF8080069460448FEF746F901210248E5
:10439000FEF7FCF805B000BD003001401CB501205F
:1043A0000949087000200949087008200090002081
:1043B0008DF804000C208DF8050001208DF8060012
:1043C0006846FCF755FB1CBD0100002000000020E2
:1043D0001CB50020094908700949087008200090A0
:1043E00000208DF804000C208DF8050001208DF8C8
:1043F00006006846FCF73CFB1CBD000001000020E5
:10440000000000200EB5802200B109B110460AE07C
:1044100001780129FAD101A900F020F8042801D07F
:10442000002000E01020DDE9011203B000BD70B5EE
:104430000D46040003D012B92078012801D0802055
:1044400070BD204600F01EFC28B12946204600F031
:1044500030F8002070BD812070BD000010B504460A
:104460008089002824D0608904EB800000690860FE
:10447000606840B16078022805D10021204600F034
:10448000FDFD00F0EBFD04F10C0000BFD0E85F1F64
:10449000491E8AB2C0E8512F0029F7D16089401C1B
:1044A00080B26081E189884201D1002060810420CE
:1044B00010BD10B500F0E2FDBDE8104000F0CEBD2B
:1044C00010B500F015F8FFF7E5FCFFF763FD00F00D
:1044D00021F8002010BD0000EFF3058109B1822012
:1044E0007047DFF808C000DF70470000E55600089D
:1044F000EFF3058008B182207047EFF31480C00706
:1045000003D0DFF80CC000DF704701F0F5B8000001
:10451000F956000888B0EFF3058010B1822008B08A
:104520007047EFF3148010F00301134806D00129FF
:104530001BD0022911D0032919D113E008A981F356
:1045400009880078C0070BD05FF0020080F3148860
:10455000BFF34F8FBFF36F8F09E00078C00706D11C
:104560000320F3E70078C00701D0FF20D7E7DFF88A
:104570000CC000DFD3E70000245A00086957000888
:10458000EFF305820AB1FFF73DBFDFF808C000DF97
:1045900070470000D5570008EFF305820AB10020EC
:1045A0007047EFF31482D20702D1044A52781AB14D
:1045B000DFF80CC000DF704701F02AB9700000205E
:1045C00011580008DFF80CC000DFDFF80CC000DF76
:1045D000FEE700007D58000899580008DFF804C085
:1045E00000DF7047D1580008094C4FF0FF352946CD
:1045F0002068FFF7C5FF02460846102AF7D1FFF7EB
:10460000EDFF0028F3D0024608469047EFE7000090
:104610003C000020012806D0022805D0032804D041
:10462000042804D102E003E002E001E000E000BF62
:1046300000BF00BFFEE700BFFEE7000007480168BB
:104640004FF0E020416100218161072101610448B0
:10465000016841F07F41016040177047205A00080F
:1046600020ED00E07047000090B00025FF260020FC
:104670000C900D900E900F909B4800680B900020BE
:104680000790089009900A909748001D00680690CE
:104690000020029003900490059093480830006831
:1046A000019020E13046FCF7C3F8054605F0010013
:1046B000002838D00020FDF725FD0BAA06218B48E5
:1046C000FCF7F0FC00240EE00BA9601C085CC4F1B0
:1046D0000B0106AA50540BA8015D601CC0F10B0031
:1046E0001154A01CC4B20C2CEEDB81A00188ADF8E3
:1046F000291080788DF82B0006227C4901A8FBF751
:104700001AFE00280ED07948016801918088ADF822
:10471000080006A8FBF73BFE074676483946426983
:1047200006A89047DCE005F0020038B30020FDF752
:10473000E9FC7148C1780BAA001DFCF7B3FC6FA01F
:104740000188ADF83D1080788DF83F006A48C27846
:10475000011D01A8FBF7EFFD0028E3D06648C278F1
:10476000011D01A8FBF732FE0BA8FBF710FE074660
:104770006048394642690BA89047B1E005F0040053
:1047800028B30020FDF7BEFC0BAA08215C48FCF70B
:1047900089FC5CA00188ADF83D1080788DF83F0061
:1047A0000822574901A8FBF7C6FD0028BAD0544893
:1047B0002038016A0191406A02900BA8FBF7E7FDDF
:1047C00007464C48394642690BA8904788E005F0F7
:1047D000080018B30020FDF795FC4748C1780BAAE4
:1047E000001DFCF75FFC48A000680F904248C278AB
:1047F000011D01A8FBF79FFD002871D03E48C2783B
:10480000011D01A8FBF7E2FD0BA8FBF7C0FD074661
:104810003848394642690BA8904761E005F010001E
:1048200000B30020FDF76EFC0BAA04213848FCF70A
:1048300039FC38A000680F900422354901A8FBF725
:104840007AFD00284CD032480D38D0F80D00019088
:104850000BA8FBF79CFD07462648394642690BA882
:1048600090473DE005F02000B0B30020FDF74AFC82
:104870000BAA08211D48FCF715FC00240EE00BA92B
:10488000601C085CC4F10F0106AA50540BA8015D1E
:10489000601CC0F10F001154A01CC4B2102CEEDB40
:1048A0001EA00188ADF8291080788DF82B00082211
:1048B0000E4901A8FBF73FFD90B10C48016801913A
:1048C0004068029006A8FBF762FD07460948394692
:1048D000426906A8904703E0FFE70020FDF706FCC9
:1048E0001420FFF7F9FDDDE654590008A902002065
:1048F00054543100D4590008C103002054543200EC
:10490000D5060020545433005454344100000000B4
:104910006C0600205454344200000000545435000A
:1049200050E8001F31B10B6840E80032002AF7D18F
:1049300008467047BFF32F8FFAE710B568B161B131
:104940000B3121F00302016844680B1A1B1B9342D0
:1049500005D2084609680029F5D1002010BD2100C4
:1049600007D021180368C1E90032016001F1080095
:1049700010BD4260083010BD70B50D46002812D041
:104980004FF6FF71084C884204D222680146104657
:1049900000F0A2FB20684570044800F0DDF8BDE897
:1049A000704000F05DBC70BD780000202C3E0020FF
:1049B0000F4810B50D4942680E480B6800689342D5
:1049C00004D00A60CB88421E1A448A808A8880B24A
:1049D00082420AD100200860054800F0BDF8014677
:1049E000BDE81040024800F09BBB10BD8C000020C9
:1049F0002C3E00208800002070B5194DE868002882
:104A00002CD0A88A401EA882002621E0A06838B1D8
:104A100061684160606810B1A16881606660A660ED
:104A20000F482146183800F07BFBA08AA8826078E6
:104A3000042804D10B49E08A09880844A082012097
:104A40006070E068E860E06808B10561E6602661D2
:104A5000A88A002802D1EC68002CD7D170BD0000D4
:104A6000443E00208800002070B504000FD00D4D9A
:104A7000A17801262868827891420CD900F06CFB5D
:104A8000286846702046BDE8704000F0E9BB064843
:104A900000F062F8F7E766702146BDE87040024812
:104AA00000F03EBB780000202C3E00200321FFF7E1
:104AB00063BF000010B50446008B08432083627872
:104AC000618B062A18D0052A19D1084217D001EAAD
:104AD0000002628388432083204600F068FB0120A7
:104AE0006070628B0821204600F05DFB2146BDE826
:104AF0001040034800F014BB31EA0002EAD010BDB8
:104B00002C3E0020814202D342688A4201D8012013
:104B1000704702680A60BFF35F8F50E8003F0A6881
:104B20009A42F6D140E80012002AF2D100207047E4
:104B300068B161B10022083902E00246006830B174
:104B40008842FAD12AB10068106000207047012025
:104B5000704700214160F8E70146406842684A60BA
:104B60000B780022022B05D0012B03D0032B01D0A0
:104B70004260704743680BB1996042608260704741
:104B8000810700D00020704770B50446002015460C
:104B9000207001226270A17084F824106060A0600F
:104BA000E06020612062A082E0822083608384F83C
:104BB0002500E08C18B90548FFF7B2FEE0622946EF
:104BC0002046BDE8704000F01DB8000060090020DC
:104BD00008B1082901D2012070470144091F0022B1
:104BE00001600A60426010467047000003480021DF
:104BF000016003490988C180704700008C000020D3
:104C0000145A000870B5C28C1C4D930802D12A8832
:104C1000C2F38D03C26A02EB8302540700D5121F50
:104C20004FF0807442E9021400242646B2F140029B
:104C300042F82460641C0E2CFAD3C46914628262A8
:104C400001632968C90014D5112B12D94FF0FF3127
:104C5000103B11EB53014FF0CC3305D042F8043C2C
:104C600042F8083D491EF9D1C16A121F8A4200D993
:104C70001360C06A0249016070BD0000105A00084C
:104C8000A52E5AE2C1898089081A70470122027054
:104C9000002242708270426002814281103982811A
:104CA0008908C181704700002DE9F0410446406841
:104CB0000E464FF0000804F10C05E8B360780127B8
:104CC00001283ED0022813D003285CD10846FFF704
:104CD00027FE050057D02046FFF73EFF0446294631
:104CE00000F05EFA6770204600F061FA214621E08C
:104CF0002046FFF731FF0646002100F051FA2189D6
:104D0000F06904EB81010861D5E85F0F401C81B2B6
:104D1000C5E8501F0028F7D12089401C80B22081AF
:104D2000E189884201D1A4F808807770304600F00C
:104D30003EFA3146174800E00CE0BDE8F04100F0D3
:104D4000EFB92046FFF708FF04463246102100F075
:104D50002AFAC7E7A089E189884216D2208904EBA4
:104D600080000661D5E85F0F401C81B2C5E8501F86
:104D70000028F7D12089401C80B22081E189884237
:104D800001D1A4F80880BDE8F081BDE8F04103201E
:104D9000FFF740BC2C3E002070B5044680891546C4
:104DA0000026C0B3608904EB800000690860608958
:104DB000401C80B26081E189884200D166816068D0
:104DC00010B1607802280BD014F10C04D4E85F0F06
:104DD000401E81B2C4E8501F0028F7D1002070BDEA
:104DE0002046FFF7B9FE0546002100F0D9F92189D8
:104DF000E86904EB810108612089401C80B22081B0
:104E0000E189884200D12681284600F0D0F9284661
:104E1000FFF72AFEE2E7FFE73DB10B486268016851
:104E20002AB1204600F07CF908E0012070BD6160E5
:104E300001684E6000688460012060700821284687
:104E4000FFF79AFDF1E7000078000020002814D059
:104E5000411C13D00C4A4FF6FE7190420CD800EB67
:104E60004002C2EBC0120948036803EBC202521EA3
:104E7000B2FBF3F0884204D9084670474FF6FF7042
:104E8000704780B27047000000093D00305A0008AA
:104E90002DE9F0410446408820B1314DA1682A68CF
:104EA000914202D0FF20BDE8F081401E0004000CBA
:104EB000608053D12968086AA04209D1E06808627D
:104EC00008E0C268A24202D1E268C26002E0104675
:104ED0000028F6D191F824000A6A06E053681BB155
:104EE0009B78834200D91846D268002AF6D1887090
:104EF000DFF870806168012611B32046FFF72CFEB1
:104F00000746002100F04CF9384600F050F9668061
:104F1000A760386AE0603C622968D8F804008A78A3
:104F20008078824201D3384616E00E4800F0F8F847
:104F300039460C4800F0F4F8286846707E700AE0A4
:104F4000D8F804108A782968824207D9054800F009
:104F5000E7F8286846700020FFF786FD0020A2E7EA
:104F6000780000202C3E002070B51C4D0E460446F3
:104F70004188286861B1A268824210D1A1F57F40C2
:104F8000FF3803D0491C6180002070BDFF2070BD38
:104F9000A060016AE160046201206080F4E776B1FC
:104FA00091788078814203D29070A06800F0DEF89A
:104FB000606830B12046296800F0B2F808E00120AE
:104FC00070BD286860602968002048602868846097
:104FD00009213046FFF7D0FCF1E7000078000020FF
:104FE00070B51B48012102685170006800F0B4F8E8
:104FF000184D6C7818E000BF05EBC40148680278D2
:10500000EAB1012A20D000F0FFF8E878641C84425D
:1050100000D100240F48801CD0E84F1F491EC9B2A0
:10502000C0E8421F002AF7D1A8780028E4D16C70AC
:105030000948FFF791FDBDE8704000F011B90989FA
:1050400089B2FFF737FDE0E78968FFF72DFEDCE75F
:1050500078000020883800202C3E00200548017888
:1050600011B101214170704703494FF08050086031
:10507000704700008000002004ED00E0F0B4154D02
:10508000AB1CEE784FEA0507D3E84F2FB24202D1AE
:10509000BFF32F8F11E0521CD4B2C3E8424F002A55
:1050A000F2D100BFD7E84F2F541CB44200D10024E6
:1050B000E4B2C7E8434F002BF4D1EB78934205D913
:1050C00005EBC202C2E90101F0BC7047F0BC02204E
:1050D000FFF7A0BA88380020104A10B5D368ABB1EA
:1050E00013469B8A03E08CB12246A48A2344D468E9
:1050F0008B42F8D3C460D0600261C46804B12061FF
:10510000591A8182908A401A908210BD0024C4608E
:10511000D060C91A02619182848210BD443E002091
:1051200030B502780023022A03D0012A01D0032AD5
:1051300000D101238C7800E01046426812B19578C6
:10514000A542F9D24A6041601BB102B1916088600A
:1051500030BD0020FBE7000003494A68426000229E
:1051600082604860704700002C3E002010B58368C4
:1051700004462BB9607801280ED1084B03E09B68E8
:1051800018780028FBD0204600F026F82146BDE81C
:1051900010401846FFF7C4BF10BD00002C3E002091
:1051A000806A01627047806AC0E90812704710B5D2
:1051B000016900290ED0C268CA60C36800223BB1F1
:1051C0008B8A848A23448B82C3681961C26000E0A1
:1051D0008A82026110BD0000816839B142684A606C
:1051E0004168002901D0806888607047054906E061
:1051F0004A68824202D140684860704711460029DF
:10520000F6D170472C3E002010B5416881B1FFF700
:10521000A3FC0446FFF7CBFF012060700146204647
:10522000FFF7BEFF2146BDE810400348FFF778BFF7
:105230004188491C418010BD2C3E00200648006872
:10524000D0E90A10814203D300680449884202D0A1
:105250000120FFF7DFB9704778000020A52E5AE241
:105260000749022248604270064A1278002A05D097
:1052700006C98A4202D0C078FEF748BE70470000D7
:10528000780000209400002070B5FEF717FE002083
:105290000446204A204902E042F82040401C0B8886
:1052A0009842F9D31D48342201881D48FEF7B0FD0D
:1052B0001C48008880B240F000421B4801681B482F
:1052C000FEF7A6FD1A48082201881A480068FEF772
:1052D0009FFD194DFF20194AE870EC8400212846F3
:1052E000FFF752FC16480421017044601548017014
:1052F000C460046184821448154905600220687006
:105300001248047044700978C170BDE87040FFF71E
:105310006DBC00000C3900200C5A0008385A0008F7
:1053200018070020105A00083C5A000860090020A5
:10533000605A000844000020F83D0020374600086D
:105340002C3E0020443E00207800002088380020B9
:10535000445A00081B4810B5016841F47F01016000
:1053600000684FF07F4101EA00201649C04314391C
:10537000B0FA80F00968C0F10800C1F3022181424F
:1053800000D3481C0F49091F0B686FF080728240E0
:1053900063F317020A60FFF751F90B490028086010
:1053A0000EDB00F1E021FF2281F8002400F01F0253
:1053B000012191404009800000F1E020C0F8001177
:1053C00010BD000020ED00E0840000200C4810B566
:1053D0000268012151700068FFF7BEFEFFF7E8FA8E
:1053E00008480168491C0160FFF706FB00F07CFAE1
:1053F0000548FFF7B1FBBDE81040FFF731BF0000E3
:1054000078000020880000202C3E0020002805D0D5
:10541000810702D10178002900D0002070470000E8
:1054200030B50B4C0023626805E095688D4204D8C6
:1054300013461268491B002AF7D10260816012B13D
:105440009568691A91600BB1186030BD606030BD1D
:10545000700000202DE9F0411E46174680460D469B
:1054600011F0FF0F00D14D1C1848FFF759FA041E28
:1054700016D0280AE762E084E9B242462046E66197
:10548000FFF782FB01251248124905E000EB850277
:1054900052F8042C32B16D1C0A889542F6D90020CE
:1054A000BDE8F081002DFAD000EB850040F8044CF7
:1054B0000948E570007818B101212046FEF716FD75
:1054C0002046FFF7D1FA2846EAE700001807002037
:1054D0000C3900200C5A0008940000202DE9F05FE0
:1054E000584DDFF85891DFF8588129684FF0010ACC
:1054F000002618B1CA78AB46824243D14E70FAF703
:1055000058FE29688862FFF799FE2868046A1FE040
:105510006068C0B12046FFF71FFB07460021FFF778
:105520003FFE3846FFF743FE87F801A0394646485C
:10553000FFF7F6FDE168A4F802A0A760386AE06012
:105540003C620C4604E0E0686680A660E6600446C3
:10555000002CDDD12868C27808EB820141F8046C88
:10556000C16A3A48FFF7CEFA2868C66299F8001077
:1055700011B10021FEF7BAFC35482968FFF7C2FADD
:105580002E6056E03349098888420CD808EB800821
:1055900058F8045C3DB12846FFF71EFE2846FFF789
:1055A00006FE2C6A22E0FF20BDE8F09F6068C0B1D3
:1055B0002046FFF7D1FA07460021FFF7F1FD3846F4
:1055C000FFF7F5FD87F801A039461F48FFF7A8FD52
:1055D000E168A4F802A0A760386AE0603C620C466B
:1055E00004E0E0686680A660E6600446002CDDD139
:1055F00048F8046C1548E96AFFF784FAEE6299F8F6
:10560000000018B100212846FEF770FC294610481A
:10561000FFF778FA0C48DBF8001040688B78827846
:105620009A4209D981F801A00748DBF80010FFF77A
:1056300077FD0020FFF718FA0020B5E7940000205E
:105640000C390020780000202C3E0020600900204A
:10565000180700200C5A000870B51A4D80B11A4A7C
:10566000128890421FD8194A02EB800050F8044C6F
:10567000CCB1A17084F824102868A04205D014E0B1
:1056800028688170286880F8241011484068807864
:10569000884215D90E482968FFF742FD2968012084
:1056A000487000200AE0FF2070BD2046FFF75EFD35
:1056B0006078012804D10648FFF74EFAFFF7D4F9C5
:1056C000002070BD780000200C5A00080C39002022
:1056D0002C3E002002480068002800D0C0787047A7
:1056E0007800002010B5002804D0FFF7AFFBFFF7CB
:1056F000DDF9402010BD000010B5134C207860B9D2
:105700001248400705D1124801681048FFF760FAB7
:1057100008B1852010BDFFF7B7FD0E49FF200968CD
:105720008870207858B900210B4800F041F80B49E7
:10573000086000210A4800F06BF80A49086001205F
:1057400020700020607010BD70000020700D0020DF
:10575000405A000878000020585A00083C000020F9
:10576000485A00083800002070B50F4D687808B11D
:10577000002070BD0D4C206890F824100020FFF729
:105780006BFF2068C178FF2903D1816A203181F342
:105790000988616811B9606000202060FFF7DAFDB8
:1057A00001206870E4E7000070000020780000200D
:1057B00010B5040005D0216819B1606808B10278FD
:1057C0000AB1002010BD8900103189B2FFF75EFADE
:1057D000606810BD3EB504000D464FF0800012D049
:1057E000217801290FD12846FFF730FB02462046D9
:1057F00001A9FFF7D1FA012801D0102003E00DB173
:10580000402000E00020DDE9011203B030BD0000BF
:1058100070B50E46040029D0206838B3606810F1D6
:10582000030F23DB032821DCE16829B11048FFF7CF
:1058300084F805001AD000E000256068E168001DCA
:1058400040EA012133462A462068FFF703FE40B1B3
:10585000084901EB8000084950F8040C826A516342
:1058600070BD1DB129460248FFF762F9002070BDE6
:10587000700D00200C390020C545000810B5FFF759
:1058800029FF002804D0034901EB800050F8040CE4
:1058900010BD00000C39002010B5FFF7B7FD18B19E
:1058A000C18C19B1C46A02E0802010BD0024C07808
:1058B000FFF714FEFF2806D01CB121460348FFF76E
:1058C00037F9002010BD812010BD0000700D0020B0
:1058D00010B5FFF755F920B141690A680169104612
:1058E00010BD0020014610BD2DE9F041134E746833
:1058F000002C1CD0A068124F401E4FF00108A06081
:1059000012E0254624687460002229463868FEF7B4
:105910008EFD10B10420FEF77DFE6879012808D0C5
:1059200085F80480002C02D0A0680028E9D0BDE8EA
:10593000F0812846E968FFF773FDF3E77000002067
:105940003C000020913F0008000000000100000022
:1059500000080000200000002000000020000000DF
:10596000040878000000000000A800001D000000EE
:1059700000000801000000000004050012FC010303
:1059800004000000010000000302020200080140C0
:1059900009000000000801400A000000390600006C
:1059A0000038014000A24A048C59000894590008AC
:1059B00000000000000000000000000022002200A3
:1059C000250000000000000000000000E0060020AC
:1059D000F4060020F93B0008F128000851290008CE
:1059E000D9290008652900089129000879290008AB
:1059F000BD2900083129000811290008D92800080C
:105A000021290008A9290008012900080B0000002D
:105A1000000108010100010000A24A044800000042
:105A20003F190100010000000200010052000400C3
:105A3000E80300000000000048020000100400001D
:105A4000182B000010000000E945000802000000CB
:105A500001000000C80000000400000038390020E8
:105A600000000000C1440008000000000100000028
:105A700000020000945A0008000000209800000076
:105A8000280100082C5B0008980000202844000032
:105A900044010008000000000000000000000000B9
:105AA00000000000000000000000000000000100F5
:105AB00000000000000000000000340100000000B1
:105AC0002000040000000000000801400000000069
:105AD00000000000000000000000000000000000C6
