:020000040800F2
:1000000068190020DD020008891E0008B50D0008EF
:10001000851E0008B1050008A12C000800000000A2
:1000200000000000000000000000000015020008B1
:10003000F9090008000000008D020008C90200084C
:10004000F7020008F7020008F7020008F7020008AC
:10005000F7020008F7020008F7020008F70200089C
:10006000F7020008FD090008F70200081D09000852
:100070003D0900085D0900087D0900089D09000888
:10008000BD090008DD090008F70200089D2A0008E4
:10009000B52B0008B5050008A1060008F702000806
:1000A000F7020008F7020008F7020008F70200084C
:1000B000B9260008C926000805270008F70200082D
:1000C000F7020008F7020008F7020008F70200082C
:1000D000F7020008F7020008F7020008F70200081C
:1000E000F7020008F7020008F702000800F002F823
:1000F00000F03AF80AA090E8000C82448344AAF188
:100100000107DA4501D100F02FF8AFF2090EBAE885
:100110000F0013F0010F18BFFB1A43F0010318473B
:10012000EC4800000C490000103A24BF78C878C1A0
:10013000FAD8520724BF30C830C144BF04680C60ED
:10014000704700000023002400250026103A28BF35
:1001500078C1FBD8520728BF30C148BF0B60704739
:100160001FB51FBD10B510BD00F0FAF91146FFF71D
:10017000F7FF0FB400F00CF80FBC03F07DF900F0AE
:10018000D1F803B4FFF7EEFF03BC00F0E3F9000081
:1001900004B003F0EFFA0448002103F03FFB03F042
:1001A000FBFA00F0BFF80000FC49000880F3098862
:1001B0007047EFF309807047684680F30988044868
:1001C0000078C00714BF0220032080F31488704712
:1001D000BC490008DFF818C0EFF305831B0618BF01
:1001E0006047EFF31483DB0708BF604700DF704709
:1001F000EB380008DFF818C0EFF305831B0618BFC3
:100200006047EFF31483DB0708BF604700DF7047E8
:10021000C93A0008EFF30980816911F8021CF1B9AD
:1002200090E80F10E047EFF3098C8CE80700144BBF
:1002300093E8060091420FD039B12CE9F00FC1F8D4
:1002400028C00CB403F0DCFF0CBC1A60D2F828C044
:10025000BCE8F00F8CF309886FF0020E704710B500
:10026000084A1268914209D8074C54F8214090E896
:100270000F10A047EFF3098C8CE80F0010BD0000B1
:100280006C000020AC050008AC05000803F08AFEF5
:100290000C4B93E80600914210D0EFF3098C2CE947
:1002A000F00FC1F828C00CB403F0AAFF0CBC1A6010
:1002B000D2F828C0BCE8F00F8CF309886FF0020E6A
:1002C000704700006C00002004F062F8E0E70000D6
:1002D00003F00AFB04F05CF8DAE700000948804705
:1002E00009480047FEE7FEE7FEE7FEE7FEE7FEE718
:1002F000FEE7FEE7FEE7FEE704480549054A064B30
:100300007047000059260008ED000008681300201F
:100310006819002068150020681500200048704703
:100320000413002010B50446AFF300802046BDE85A
:100330001040FFF726BF40EA010310B59B070FD11D
:10034000042A0DD310C808C9121F9C42F8D020BA45
:1003500019BA884201D9012010BD4FF0FF3010BDFD
:100360001AB1D30703D0521C07E0002010BD10F8CB
:10037000013B11F8014B1B1B07D110F8013B11F891
:10038000014B1B1B01D1921EF1D1184610BD10B5B7
:10039000431C02E010F8011B71B18107FAD14FF044
:1003A000013202C88C1A8C4314EAC211F9D0C01A67
:1003B0000A0603D0C01E10BDC01A10BD0A0401D029
:1003C000801E10BD0902FCD0401E10BD032A40F261
:1003D000308010F0030C00F0158011F8013BBCF1E7
:1003E000020F624498BF11F801CB00F8013B38BFFF
:1003F00011F8013BA2F1040298BF00F801CB38BF0D
:1004000000F8013B11F0030300F07180083AC0F0DE
:10041000088051F8043B083A51F804CBA0E80810D2
:10042000F5E7121D5CBF51F8043B40F8043BAFF305
:100430000080D20724BF11F8013B11F801CB48BF5F
:1004400011F8012B24BF00F8013B00F801CB48BF95
:1004500000F8012B70474FF000020429C0F0128011
:1004600010F0030C00F01B80CCF1040CBCF1020F67
:1004700018BF00F8012BA8BF20F8022BA1EB0C013C
:1004800000F00DB85FEAC17C24BF00F8012B00F832
:10049000012B48BF00F8012B70474FF0000200B558
:1004A000134694469646203922BFA0E80C50A0E897
:1004B0000C50B1F12001BFF4F7AF090728BFA0E845
:1004C0000C5048BF0CC05DF804EB890028BF40F811
:1004D000042B08BF704748BF20F8022B11F0804F53
:1004E00018BF00F8012B704770477047704710B570
:1004F000203AC0F00B80B1E81850203AA0E818501C
:10050000B1E81850A0E81850BFF4F5AF5FEA027CDC
:1005100024BFB1E81850A0E8185044BF18C918C04B
:10052000BDE810405FEA827C24BF51F8043B40F8EC
:10053000043B08BF7047D20728BF31F8023B48BFD1
:1005400011F8012B28BF20F8023B48BF00F8012B0F
:100550007047000001491820ABBEFEE726000200EC
:100560007546FFF7DBFEAE4605006946534620F0B0
:100570000700854618B020B5FFF7BEFEBDE8204055
:100580004FF000064FF000074FF000084FF0000B4F
:1005900021F00701AC46ACE8C009ACE8C009ACE802
:1005A000C009ACE8C0098D467047704700000000E4
:1005B00000BFFEE770B53648407802281ED13548A6
:1005C000006800F0100058B110203249086032482D
:1005D0000068B0B13048062102680120904710E061
:1005E0002C48006800F0030058B12B48006840B167
:1005F0002948022102680120904702E02020254975
:100600000860244808300468001F056804F00400EE
:1006100088B905F4806070B91E48001D006840F478
:1006200080601C49091D08601C48006818B11B48FF
:1006300001680320884704F0020088B905F40070BF
:1006400070B91448001D006840F400701149091D7C
:1006500008601248006818B11048016801208847F6
:1006600004F0010090B905F4807078B9C4F3074034
:100670005F280BD25F20B0EB146F07D10548001D37
:10068000006840F480700349091D086070BD0000D7
:1006900042000020106400404C0000204800002070
:1006A00070B52248006800283FD021480468001F28
:1006B000056804201E491439086004F0040078B16C
:1006C00005F4806060B11A48001F006820F4806063
:1006D0001749091F0860154801680420884724E06D
:1006E00004F0020078B105F4007060B11048001FFA
:1006F000006820F400700E49091F08600B4801686B
:100700000320884711E004F0010070B105F4807007
:1007100058B10748001F006820F480700449091F81
:100720000860024801680220884770BD4800002028
:100730001864004010B500F01DF800F023F80448DC
:1007400000F00AF80248407B0249087010BD000022
:100750008C0000201C00002038B5044604A000686E
:1007600000902146684602F0FFFC002038BD0000E2
:100770000100000010B502F0D3FB02F087FB02F08D
:10078000EBFB10BD38B500241EA00068009002F0FD
:10079000C9FC02F0BFFB012801D102F04BFC00BFF5
:1007A0001949684602F0E0FC17480078552801D145
:1007B000002038BD02F0AEFB012802D102F03AFC65
:1007C00013E002F0A7FB80B900BF0F49684602F0B2
:1007D000CBFC0D480078552801D10020E9E72046E0
:1007E000611C8CB2B0F5407FEFDB074800785528DC
:1007F00004D02046611C8CB20528D1DB6FF00D00BF
:10080000D7E70000550000008C00002000200449BC
:10081000087004490870044908700449087070475A
:100820001F0000201E0000201A0000201B000020D6
:1008300010B50446FFF7EAFF04F0010078B101F0BB
:1008400085FB052002F0E8FA00F006FF00F02EFF1D
:1008500028B92F4801F0ECFF08B9012010BD04F0C1
:10086000020010B904F0080000B301F06FFB05208E
:1008700002F0D2FA00F0F0FE00F018FFB0B900F07C
:1008800059FD98B92348807B00F0600020B904F03E
:10089000020008B10220E1E71E48807B00F0200042
:1008A00020B104F0080008B10820D7E704F00400E4
:1008B00058B101F04BFB052002F0AEFA00F06CF9E4
:1008C00000F074F908B90420C8E704F0100060B122
:1008D00001F03CFB052002F09FFA01F05BF820B923
:1008E00000F094FF08B91020B8E704F0200050B1E0
:1008F00001F02CFB052002F08FFA054801F0F8F812
:1009000008B92020AAE701F021FB0020A6E700009B
:100910009D020020B50300207047000010B5054877
:10092000006800F00F04034844602046FFF7F4FF1E
:1009300010BD0000000002407047000010B50548DF
:100940000068C0F303142001024948602046FFF705
:10095000F3FF10BD000002407047000010B50548CD
:100960000068C0F303242002024948602046FFF7D4
:10097000F3FF10BD000002407047000010B50548AD
:100980000068C0F303342003024948602046FFF7A3
:10099000F3FF10BD000002407047000010B505488D
:1009A0000068C0F303442004024948602046FFF772
:1009B000F3FF10BD000002407047000010B505486D
:1009C0000068C0F303542005024948602046FFF741
:1009D000F3FF10BD000002407047000010B505484D
:1009E0000068C0F303642006024948602046FFF710
:1009F000F3FF10BD000002407047000010B5082052
:100A000000F022F888B1082000F018F807480068C4
:100A100020F00800054908600548007810B1012061
:100A20000449087001200449087010BD0004014009
:100A300001000020020000200000002001490860A1
:100A40007047000014040140014600200022074BBB
:100A50001B6803EA0102054B14331B680B4013B1FA
:100A60000AB1012000E000207047000000040140AE
:100A7000002123498279002A3AD00A461268036885
:100A80009A430B461A600A1D126803689A430B1DAD
:100A90001A60027911440A6803681A430A60184A06
:100AA0000832126803689A43154B08331A601A1DFE
:100AB000126803689A43124B0C331A604279102A69
:100AC0000ED11A1F126803681A430D4B08331A60BF
:100AD0001A1D126803681A43094B0C331A600DE0A3
:100AE0000749427911440A6803681A430A6005E01D
:100AF000027911440A6803689A430A60704700004B
:100B0000000401407FB504461FA0006803901FA0A9
:100B1000006802901EA000680190234603AA0421E9
:100B2000052001F00DFB05460DB1012000E000207D
:100B300000B125E003201749087002AB01226821AB
:100B40000420009401F086FB05460DB1012000E071
:100B5000002000B114E001AB01220A21042000941E
:100B600001F078FB05460DB1012000E0002000B146
:100B700006E044F6B07002F06DF9002004B070BDDC
:100B80006FF03E00FAE700005113010D0151000023
:100B900002A100002600002000B5ADF5057D01A8EA
:100BA000FFF7B0FF0DF5057D00BD000000B5ADF508
:100BB000057D4FF4047101A8FFF76FFC01A800F058
:100BC00025F820B16FF03E000DF5057D00BD012038
:100BD0000B4981F8280020220DF106010848FFF793
:100BE000F5FB0748411C0A6802624968416202201D
:100BF000044908700320044908700020E4E700005D
:100C0000A90600201A0000201B00002010B5044691
:100C10002146074801F07CF910B16FF03E0010BD8D
:100C2000A078012802D06FF03E00F8E70020F6E738
:100C300095490008014609B910207047012901D1E2
:100C40001820FAE7022901D12020F6E7032901D173
:100C50002820F2E7042901D13020EEE7052901D14F
:100C60004020EAE7062901D16020E6E7072901D103
:100C70008020E2E74FF48070DFE72DE9F041024683
:100C800000250026002000230024002791F803C03F
:100C90000CF00F0591F803C00CF0100CBCF1000F24
:100CA00003D091F802C04CEA050591F800C0BCF1F0
:100CB000000F31D0146800202BE04FF0010C0CFA2B
:100CC00000F3B1F800C00CEA03069E4220D1830075
:100CD0004FF00F0C0CFA03F7BC4305FA03FC4CEA87
:100CE000040491F803C0BCF1280F06D14FF0010CA9
:100CF0000CFA00FCC2F814C00AE091F803C0BCF181
:100D0000480F05D14FF0010C0CFA00FCC2F810C0DE
:100D1000401C0828D1D31460B1F800C0BCF1FF0F0B
:100D200034DD546800202EE000F1080C4FF001087B
:100D300008FA0CF3B1F800C00CEA03069E4221D178
:100D400083004FF00F0C0CFA03F7BC4305FA03FCC9
:100D50004CEA040491F803C0BCF1280F05D100F15E
:100D6000080C08FA0CF8C2F8148091F803C0BCF122
:100D7000480F07D100F1080C4FF0010808FA0CF8F1
:100D8000C2F81080401C0828CED35460BDE8F08122
:100D90000246002093680B400BB1012000E00020C8
:100DA000704741617047016170470AB1016100E01D
:100DB0004161704700BFFEE730B50346002400BF25
:100DC0001BE01D7828090A2803DA00F130051570A8
:100DD00002E000F137051570521C1D7805F00F0078
:100DE0000A2803DA00F13005157002E000F137053A
:100DF0001570521C5B1C651CECB28C42E1DB30BDF3
:100E000010B500F001F810BD08B514208DF80300EE
:100E100003208DF802000420ADF800006946044864
:100E2000FFF72BFF012204210148FFF7BEFF08BD99
:100E3000000801402DE9F04F87B004468B46A9A178
:100E400003C9CDE905010027B846B94600260025AB
:100E5000002004908246039002908DF814B0224640
:100E600005A9032001F0C5F90190019808B10120FE
:100E700000E0002000B133E16778B846781E205CBE
:100E800000F08009E65D781C255C082D03D1612007
:100E900007B0BDE8F08F1DE14FF00009202000EB06
:100EA0000611681C0844C0B28DF815008EB9A078F0
:100EB000691CFF228A4090438DF81600681CC0B25E
:100EC00040F040008DF817009DF816008DF80800DE
:100ED00067E0012E18D1A0788DF81600E078691C23
:100EE000FF228A4090438DF81700681CC0B240F082
:100EF00040008DF818009DF816008DF808009DF848
:100F000017008DF809004CE0022E1FD1A0788DF853
:100F10001600E0788DF817002079691CFF228A40BE
:100F200090438DF81800681CC0B240F040008DF866
:100F300019009DF816008DF808009DF817008DF82F
:100F400009009DF818008DF80A002AE0032E26D12A
:100F5000A0788DF81600E0788DF8170020798DF8CC
:100F600018006079691CFF228A4090438DF81900AF
:100F7000681CC0B240F040008DF81A009DF81600C1
:100F80008DF808009DF817008DF809009DF81800ED
:100F90008DF80A009DF819008DF80B0001E0612022
:100FA00076E7311DC8B2224605A901F022F9207862
:100FB000802801D061206BE76778781E205C00F004
:100FC0008009B9F1800F04D114F807A0781C205CC7
:100FD0000390781E205C00F00F00C0F10800C0B242
:100FE0000490691C0498884245D196B99DF8160072
:100FF000FF228A409043A17808438DF80800E078EA
:101000008DF8090020798DF80A0060798DF80B00C1
:1010100033E0012E10D19DF81700691CFF228A4091
:101020009043A17808438DF80900E0788DF80A0014
:1010300020798DF80B0020E0022E0DD19DF81800CC
:10104000691CFF228A409043A17808438DF80A006A
:10105000E0788DF80B0010E0032E0AD19DF81900FE
:10106000691CFF228A409043A17808438DF80B0049
:1010700003E061200CE761200AE78020207084F8FB
:1010800001809DF80800A0709DF80900E0709DF8AF
:101090000A0020719DF80B0060719DF808009DF812
:1010A000091048409DF80A1048409DF80B10484030
:1010B000A071B9F1800F0DD1564504D006EB0A009E
:1010C000C6B2039D06E006EB0A00C6B20398401CB8
:1010D0002844C5B2B9F1800F3FF4DEAE0020D7E658
:1010E0006120D5E600200800000000002DE9F04155
:1010F0000646304D002493213046FFF79BFE804684
:10110000B8F1000F01D0012000E0002000B14EE056
:101110002948C078042804D12748D6F80210416035
:1011200005E02548B6F80310818071798171B7799F
:1011300093222046611CCCB22A5470222046611CA6
:10114000CCB22A541C48C078042806D128191A4960
:1011500049680160201DC4B20CE088222046611C51
:10116000CCB22A54281914498A880280897981705E
:10117000E01CC4B22046611CCCB22F542822204669
:10118000611CCCB22A5432462946204601F031F87F
:101190008046B8F1000F01D0012000E0002000B12E
:1011A00005E0B078044988730020BDE8F081612033
:1011B000FBE700008E000020B50300202DE9F04180
:1011C0000646324D002495213046FFF733FE804617
:1011D000B8F1000F01D0012000E0002000B152E082
:1011E0002B48C078072805D12948D6F80210C0F846
:1011F000071006E02648B6F80310A0F8071071792A
:101200004172B77995222046611CCCB22A547022D3
:101210002046611CCCB22A541D48C078072807D14B
:1012200029191B48D0F807000860201DC4B20DE042
:1012300088222046611CCCB22A5429191448B0F8DF
:1012400007200A80407A8870E01CC4B22046611CE6
:10125000CCB22F5428222046611CCCB22A543246EC
:101260002946204600F0C5FF8046B8F1000F01D0A6
:10127000012000E0002000B105E0B0780449887347
:101280000020BDE8F0816120FBE700008E00002017
:10129000B50300202DE9F0410646244D0024972196
:1012A0003046FFF7C7FD8046B8F1000F01D001209E
:1012B00000E0002000B137E01D48D6F80210C0F869
:1012C0000710B77997222046611CCCB22A547022AD
:1012D0002046611CCCB22A541548C0780A2806D191
:1012E00029191348D0F807000860201DC4B2204611
:1012F000611CCCB22F5428222046611CCCB22A5447
:1013000032462946204600F074FF8046B8F1000FAF
:1013100001D0012000E0002000B105E0B0780449D0
:1013200088730020BDE8F0816120FBE78E0000207B
:10133000B503002070B52C4D2846FFF7D7FE0446B4
:101340000CB1012000E0002000B14BE02748807B79
:1013500000F0040048B12846FFF730FF04460CB106
:10136000012000E0002000B13CE02048807B00F03C
:10137000040048B12846FFF78DFF04460CB1012058
:1013800000E0002000B12DE01848807B00F0200034
:1013900070B100F007F901201449C873284600F025
:1013A000A7F904460CB1012000E0002000B119E0CB
:1013B000012000F041F802200D4908700B48807BA5
:1013C00000F0600018B902200A49087008E00748D8
:1013D000807B00F02000202802D1042005490870FD
:1013E000002070BD6120FCE78C000020B5030020C8
:1013F0001A0000201B0000200E490978890921B13C
:10140000012908D0022912D10BE00421094AD17028
:10141000012191700BE00721064AD17002219170E1
:1014200005E00A21034AD1700321917000BF00BF7B
:1014300070470000B5030020F0B585B0054629A12E
:1014400003C9CDE9030129A00068029028A0006823
:1014500001900027274E28480078342801DB062712
:1014600000E0042725480088042802DA04202349E4
:101470000880224800788DF80D008DF80E5000206D
:101480008DF80F00791CC8B2334603AA022100F080
:1014900057FE04460CB1012000E0002000B11FE01F
:1014A00002AB00223A210420009600F0D3FE04464D
:1014B0000CB1012000E0002000B111E00D4801ABAB
:1014C000012268210090042000F0C4FE04460CB103
:1014D000012000E0002000B102E0002005B0F0BDD6
:1014E0006120FBE700000000030300005A04000035
:1014F00001DF00008C0000201C00002024000020E0
:1015000070B586B021A103C9CDE9040121A000680E
:10151000039021A0006802900026204D204800780A
:10152000342801DB062600E00426711CC8B22B46D5
:1015300004AA022100F004FE04460CB1012000E0E0
:10154000002000B11FE003AB00223A2104200095E7
:1015500000F080FE04460CB1012000E0002000B144
:1015600011E00E4802AB012268210090042000F037
:1015700071FE04460CB1012000E0002000B102E041
:10158000002006B070BD6120FBE7000000000000F5
:10159000020200005A04000001DF00008C0000205D
:1015A0001C00002070B586B025A103C9CDE9040157
:1015B00025A00068039025A0006802900026244D15
:1015C00024480078342801DB062600E004260420A5
:1015D0008DF8110000208DF812000C208DF81300FA
:1015E000711CC8B22B4604AA022100F0A9FD0446D2
:1015F0000CB1012000E0002000B11FE003AB00228D
:101600003A210420009500F025FE04460CB101208B
:1016100000E0002000B111E00D4802AB012268217A
:101620000090042000F016FE04460CB1012000E0FA
:10163000002000B102E0002006B070BD6120FBE791
:1016400000000000030300005A04000001DF000056
:101650008C0000201C00002010B500F017F8FFF7E8
:101660004FFF04460CB1012000E0002000B108E06B
:1016700001200549087041F2EC3001F0EBFB00203D
:1016800010BD6120FCE70000260000200648002174
:101690000180416081608181002003498870C870A9
:1016A000C873087470470000B503002070B50E4C75
:1016B000204600F069F805460DB1012000E0002049
:1016C00000B10FE02146042000F07FFC05460DB17B
:1016D000012000E0002000B104E00120034908746B
:1016E000002070BD6120FCE78C000020B5030020C5
:1016F000F8B5044621A00068009022466946032000
:1017000000F077FD05460DB1012000E0002000B19A
:1017100032E02146042000F058FC05460DB10120BE
:1017200000E0002000B127E02146022000F018FC74
:1017300005460DB1012000E0002000B11CE0E0787A
:1017400000F00F063046FFF775FA0D490880E07883
:1017500000F0200020280DD1E07800F010001028C3
:1017600004D1607900090749088003E02079000965
:10177000044908800020F8BD6120FCE7E0802800D3
:10178000220000202400002038B504460BA0006889
:10179000009022466946022000F02BFD05460DB15F
:1017A000012000E0002000B106E0054861880180CA
:1017B000FFF722FE002038BD6120FCE7260700006D
:1017C000B50300207CB504460120019001AB002246
:1017D00068210320009400F03DFD05460DB1012075
:1017E00000E0002000B10FE0012302226821032065
:1017F000009400F0DDFC05460DB1012000E0002062
:1018000000B101E000207CBD7120FCE738B5124D2D
:1018100012A000680090284600F026F804460CB19B
:10182000012000E0002000B114E02B466A460321AD
:10183000042000F085FC04460CB1012000E00020EB
:1018400000B107E00220064908700520054908702C
:10185000002038BD7120FCE78C00002001043E0010
:101860001A0000201B0000207FB50446124B0FCB4E
:101870008DE80F001148D0F80D00CDF80100224688
:101880006946092000F0B5FC05460DB1012000E0D5
:10189000002000B10DE02146032000F061FB054669
:1018A0000DB1012000E0002000B102E0002004B0F2
:1018B00070BD7120FBE70000884900085306002036
:1018C00010B504460D22A11C0748FEF77FFD06480F
:1018D00054F8031FC0F80D106168C0F81110A1681A
:1018E000E41EC0F8151010BD530600202DE9FC4180
:1018F000194E1AA00068019019A0006800900427F2
:1019000018480078342801DA01AD00E06D4600F097
:101910002DF833462A460321042000F011FC04462A
:101920000CB1012000E0002000B112E002200E49BD
:10193000087000F087F804460CB1012000E0002098
:1019400000B106E041F2EC3001F084FA0020BDE87D
:10195000FC817120FBE700008C00002001020000E8
:1019600001001A001C0000202600002010B50D21E7
:101970000748FEF770FD06480021C0F80D10002052
:10198000034948763C2102481A30FEF764FD10BD39
:101990005306002070B50C4DFFF7A8FF04460CB1AC
:1019A000012000E0002000B10BE0284600F00EF816
:1019B00004460CB1012000E0002000B101E000204D
:1019C00070BD7120FCE700008C00002038B5044693
:1019D0000CA00068009022466946032000F009FC34
:1019E00005460DB1012000E0002000B107E0012014
:1019F000054948762046FFF763FF002038BD712077
:101A0000FCE7000005000000530600207CB50BA099
:101A1000006801900A4D01AB012268210420009565
:101A200000F018FC04460CB1012000E0002000B1D9
:101A300001E000207CBD7120FCE7000001510000A6
:101A40008C00002070B5104CFFF7E0FF05460DB18B
:101A5000012000E0002000B113E02046FFF7B2FEB5
:101A600005460DB1012000E0002000B109E0A0789A
:101A7000012804D1E078512801D1002070BD7120E7
:101A8000FCE77120FAE700008C0000202DE9F0430C
:101A9000044607AD95E8E0104FF0000801F0010999
:101AA000204669F35F0002F0010940EA890003F073
:101AB000010940EAC90005F0010940EA091006F0F1
:101AC000010940EA491007F0010940EA89100CF0C9
:101AD000010940EAC9184FFA88F0BDE8F0830146D1
:101AE00001F0100008B1012070470020FCE7000061
:101AF000F0B589B0054600F045F804460CB1012068
:101B000000E0002000B136E0052001F085F900205A
:101B10000122CDE900020290034611460390FFF72F
:101B2000B5FF064605A80090F0B200231A461946F4
:101B300000F062F804460CB1012000E0002000B182
:101B400019E09DF81500401CC7B205A8C05D00F063
:101B5000020018B16FF00E0009B0F0BD1CB9069874
:101B6000286007986860022004490870062004492C
:101B700008700020F0E76FF00E00EDE71A0000207B
:101B80001B0000201FB50020039019A000680190E1
:101B90000920039002AB03AA0121022000F0D0FA31
:101BA00004460CB1012000E0002000B11DE004203B
:101BB0001049087002A801AB01226821009004209E
:101BC00000F048FB04460CB1012000E0002000B109
:101BD0000BE002A9022000F0F8F9F12803D16FF020
:101BE0000E0004B010BD0020FBE76FF00E00F8E718
:101BF00001D10000260000202DE9FF4F85B01446DA
:101C00009946129E00250020009082460027FF2062
:101C1000307000207070402C04DD6FF00C0009B0B3
:101C2000BDE8F08F059800F07EF88046B8F1000F0F
:101C300001D0012000E0002000B171E029466A1CBB
:101C4000D5B201AA0598505401222846691CCDB28C
:101C500001A90A540598FFF742FF012805D129463A
:101C60006A1CD5B201AA069850542846691CCDB208
:101C700001A90C54E4B3402C02D10820009007E0E5
:101C80002046E11704EB5171C910491CC9B20091FB
:101C90000098401EA4EBC00000F0FF0ABAF1000F4C
:101CA00006D0012000FA0AF0401E4FFA80FB01E046
:101CB0004FF0FF3B009801280EDD002708E019F8DF
:101CC00007202846691CCDB201A90A54781C47B2E6
:101CD0000098401EB842F2DCBAF1000F08D019F8A3
:101CE000070000EA0B0029466A1CD5B201AA50542D
:101CF000324601A9284600F07CFA8046B8F1000F70
:101D000001D0012000E0002000B109E031460420AC
:101D100000F05BF910B16FF00E0080E700207EE765
:101D20006FF00E007BE7014601F0040008B10020CF
:101D300070476FF00E00FBE708B54FF4A06000F0AD
:101D4000DDF809208DF8000001208DF801008DF8E4
:101D500002008DF80300684600F098F81D208DF809
:101D6000000000208DF801008DF8020001208DF8A0
:101D70000300684600F08AF81E208DF8000000205D
:101D80008DF8010001208DF802008DF803006846EF
:101D900000F07CF81C208DF8000001208DF8010077
:101DA00003208DF8020001208DF80300684600F042
:101DB0006DF817208DF8000000208DF801008DF8D7
:101DC000020001208DF80300684600F05FF80A2049
:101DD0008DF8000000208DF8010001208DF8020030
:101DE0008DF80300684600F051F808BD014605294A
:101DF0000ED2DFE801F0030507090B000020704751
:101E00000020FCE70020FAE70020F8E70020F6E7D2
:101E10002220F4E738B504460B4951F8240001218B
:101E200000F058FA094830F81400ADF8000010200E
:101E30008DF8030003208DF80200054951F82400B5
:101E40006946FEF71AFF38BD9C490008A049000802
:101E500028000020034931F81010034A52F82020CE
:101E600051617047A049000828000020034931F85B
:101E70001010034A52F8202011617047A049000851
:101E80002800002000BFFEE77047000070B5002169
:101E900000230F22C47804B3154C246804F4E064D2
:101EA000C4F5E064210AC1F10403CA40447804FA8D
:101EB00003F184781440214309010E4C0678A155A2
:101EC000047804F01F050124AC4005786D11AD00C5
:101ED00005F1E025C5F8004109E0047804F01F058C
:101EE0000124AC40044D0678761145F8264070BDBB
:101EF0000CED00E000E400E080E100E00249014375
:101F0000024A1160704700000000FA050CED00E085
:101F100070B504460D462946204601F025F92946AC
:101F2000042000F052F808B1212070BD0020FCE729
:101F300038B5044604A0006800902146684601F0C8
:101F400013F9002038BD0000550000001FB5002027
:101F500003906B4603AA0021022000F0F1F81FBD98
:101F600003464A78012B06D0022B0ED0032B16D045
:101F7000042B28D11DE0501C085C00F00200022850
:101F800001D1212070470020FCE7501E085C00F0C2
:101F90002000202801D12120F4E70020F2E7501C86
:101FA000085C00F00200022801D12120EAE70020AD
:101FB000E8E7501C085C00F00200022801D1212053
:101FC000E0E70020DEE70120DCE702460878212870
:101FD00001D123207047082A61D008DC012A13D0E0
:101FE000022A17D0042A24D0072A6BD14CE0092AF0
:101FF00060D00A2A64D0552A64D10878552801D1C6
:102000000020E7E72120E5E7087808B90020E1E7AC
:102010002120DFE7087820B1822804D0832806D168
:1020200003E00020D6E72120D4E72120D2E72120B9
:10203000D0E708788038112824D2DFE800F009239F
:102040002323232311131517191B1D1F21230F00F1
:10205000487808B10020BDE72120BBE70020B9E7A0
:102060002120B7E72120B5E72120B3E72120B1E700
:102070002120AFE72120ADE72120ABE72120A9E710
:102080002120A7E72120A5E7087810B1822804D1F4
:1020900001E000209EE721209CE721209AE70878B4
:1020A00010B1822804D101E0002093E7212091E7BC
:1020B00021208FE7087808B900208BE7212089E7E5
:1020C000212087E7012085E710B500241A48007811
:1020D000012801D100F0AEFF00BF1848FFF728FF2C
:1020E00016480078552801D1002010BD124800780C
:1020F000012802D100F09EFF12E00F48007878B965
:1021000000BF0E48FFF714FF0C480078552801D196
:102110000020EAE72046611C8CB2B0F5407FF0DB7E
:1021200006480078552804D02046611C8CB205284A
:10213000D3DB2620D9E70000100000208C0000200F
:102140002DE9FE4305460E4617461C461748FFF785
:10215000EFFE16480078552801D0FFF7B5FF212083
:102160002070002060703046FFF740FE4FFA80F884
:10217000B8F1000F01D0012000E0002000B113E011
:1021800002208DF800008DF801508DF802606A1E63
:1021900039460DF10300FEF719F92146684600F0B3
:1021A000E3FF0020BDE8FE832220FBE78C00002037
:1021B0002DE9FC4104460D4616461F46DDF82080F9
:1021C00008208DF800008DF801408DF802508DF840
:1021D00003608DF804704146684600F0C5FF414633
:1021E0000720FFF7F2FE10B12120BDE8FC8100209E
:1021F000FBE770B5C2B004460E4615462120287094
:1022000000206870012C03DBFF2C01DC012000E0C2
:10221000002010B9272042B070BD04208DF80400C2
:102220008DF80540224631460DF10600FEF7CEF846
:10223000294601A800F098FF29460420FFF7C5FEB3
:1022400030B12878872801D12820E4E72120E2E76F
:102250000020E0E72DE9F041C2B004460D461646E5
:102260001F46DDF8208109208DF804008DF8054017
:102270008DF806508DF80760A21E394602A8FEF7B9
:10228000A5F8414601A800F06FFF002042B0BDE86C
:10229000F081000029B1064AD2690243044BDA6199
:1022A00004E0034AD2698243014BDA6170470000BF
:1022B0000010024029B1064A12690243044B1A6118
:1022C00004E0034A12698243014B1A61704700001F
:1022D0000010024029B1064A92690243044B9A61F8
:1022E00004E0034A92698243014B9A6170470000FF
:1022F0000010024029B1064AD2680243044BDA605A
:1023000004E0034AD2688243014BDA607047000060
:102310000010024030B500210022002400232D4D82
:102320006D6805F00C0121B1042905D0082923D1DD
:1023300005E0294D056022E0274D05601FE0254D91
:102340006D6805F47012234D6D6805F48034022524
:1023500005EB92421CB9214D554305600BE01D4D24
:102360006D6805F400351DB11C4D5543056002E054
:10237000194D5543056002E0174D056000BF00BFD1
:10238000144D6D6805F0F0010909154D6B5C056889
:10239000DD4045600F4D6D6805F4E061090A104DA0
:1023A0006B5C4568DD4085600A4D6D6805F46051E1
:1023B000C90A0B4D6B5C4568DD40C560054D6D6815
:1023C00005F44041890B074D6B5CC568B5FBF3F51F
:1023D000056130BD0010024000127A0000093D0086
:1023E000500000206000002021B1028842F040022D
:1023F000028004E002884FF6BF731A4002807047E3
:1024000010B504461148844208D101218014FFF719
:1024100071FF0021A014FFF76DFF16E00C48844205
:1024200008D101210014FFF745FF00212014FFF718
:1024300041FF0AE00748844207D10121C013FFF79A
:1024400039FF0021E013FFF735FF10BD00300140D8
:1024500000380040003C00400246002013890B4039
:102460000BB1012000E000207047014688897047C9
:102470008181704710B50022028802F441520B8816
:102480004C8823438C882343CC8823430C892343E3
:102490004C8923438C892343CC8923431A430280EC
:1024A000838B4FF2FF74234083830B8A038210BD1A
:1024B0002DE9F04180460E4615461F46B5F5047FCE
:1024C00002DD4FF4047000E028460546002406E0D3
:1024D000315D404600F007F83855601C84B2AC42CC
:1024E000F6DBBDE8F08170B504460D4600BF022161
:1024F0002046FFF7B1FF0028F9D029462046FFF714
:10250000B7FF00BF01212046FFF7A6FF0028F9D042
:102510002046FFF7AAFFC0B270BD002101804180B4
:102520008180C180018141818181C1810721018236
:10253000704710B500F002F810BD00000CB5002087
:10254000019000903348006840F4803031490860C1
:1025500000BF3048006800F4003000900198401C33
:102560000190009818B90198B0F5A06FF1D12948F1
:10257000006800F4003010B10120009001E000205C
:1025800000900098012843D12348006840F01000D3
:10259000214908600846006820F0030008600846EA
:1025A000006840F0020008601A4840681949486015
:1025B0000846406848600846406840F480604860CB
:1025C0000846406820F47C1048600846406840F4A3
:1025D000E81048600846006840F08070086000BF5E
:1025E0000C48006800F000700028F9D009484068E5
:1025F00020F00300074948600846406840F00200A8
:10260000486000BF0348406800F00C000828F9D17A
:102610000CBD0000001002400020024010B504462E
:10262000002006490870064804802146054800F04D
:102630009FF80121034800F086F810BD0E0000202D
:10264000180000200004004010B50021014800F0EF
:102650007AF810BD0004004010B51348006840F03F
:1026600001001149086008464068104908400E49B9
:102670004860084600680E4908400B490860084653
:10268000006820F4802008600846406820F4FE00BE
:1026900048604FF41F008860FFF74BFF4FF0006069
:1026A0000449086010BD0000001002400000FFF85F
:1026B000FFFFF6FE08ED00E010B50121880700F0ED
:1026C0003FF800F061FB10BD10B50B4800880028F2
:1026D00005DD09480088401E0749088006E0012002
:1026E000064908700021064800F02DF80121044831
:1026F00000F026F810BD0000180000200E00002099
:102700000004004010B50B480088002805DD09488A
:102710000088401E0749088006E00120064908702D
:102720000021064800F00FF80121044800F008F8E5
:1027300010BD0000160000201E0000200008004010
:10274000CA430282704721B1028842F0010202802E
:1027500004E002884FF6FE731A40028070471AB1F7
:1027600083890B43838102E083898B438381704794
:1027700081847047002202881D4B98420ED01D4B69
:1027800098420BD0B0F1804F08D01B4B984205D037
:102790001A4B984202D01A4B984204D14FF68F73CD
:1027A0001A404B881A43174B984207D0164B984251
:1027B00004D04FF6FF431A40CB881A4302808B881F
:1027C00083850B8803850A4B98420BD0094B9842AE
:1027D00008D00E4B984205D00D4B984202D00D4BBD
:1027E000984201D10B7A038601238382704700004F
:1027F000002C01400034014000040040000800406B
:10280000000C004000100040001400400040014057
:10281000004401400048014021B1028842F0040216
:10282000028004E002884FF6FB731A400280704772
:1028300070B5044621461348FFF76AFB08B16120D2
:1028400070BD6078401EC5B2605D00F02000202899
:1028500001D16220F4E72078802804D16078042830
:1028600001D16120ECE70220074908702078802818
:1028700003D101200549087001E06120E0E7002054
:10288000DEE700007C4900081A0000201B00002041
:102890000EB54720ADF804004FF47A70ADF8000093
:1028A0000020ADF80600ADF8020069464FF0804008
:1028B000FFF760FF00214FF08040FFF7ADFF0121DF
:1028C0008807FFF73DFF012211469007FFF747FFFA
:1028D00000214FF08040FFF736FF0EBD0EB52320DC
:1028E000ADF804000120ADF800000020ADF80600AE
:1028F000ADF8020069464FF08040FFF73BFF002132
:102900004FF08040FFF788FF01218807FFF718FF8D
:10291000012211469007FFF722FF00214FF080406F
:10292000FFF711FF0EBD10B500F003F800F007F837
:1029300010BD10B501210720FFF7ACFC10BD0EB58E
:1029400000F0F8FC00F098FC4720ADF8040040F2DD
:10295000E730ADF800000020ADF80600ADF8020049
:1029600069464FF08040FFF705FF00214FF080409F
:10297000FFF752FF01218807FFF7E2FE012211460F
:102980009007FFF7ECFE0EBD21B1828942F40052A0
:10299000828104E082894DF6FF731A40828170477C
:1029A00002460020B1F5007F00D100BF13880B4024
:1029B0000BB1012000E00020704700002DE9F04736
:1029C00086B005460E460024A24600BFA146002759
:1029D000B08900B100BF2F462C8A4CF6FF7004402E
:1029E000F08804432C82AC894EF6F3100440B08882
:1029F00031890843718908430443AC81AC8A4FF69E
:102A0000FF400440B0890443AC8201A8FFF782FC78
:102A10001F48874202D1DDF810A001E0DDF80CA0CC
:102A2000A88900F4004040B10AEBCA0000EB0A108C
:102A300031684900B0FBF1F807E00AEBCA0000EB8F
:102A40000A1031688900B0FBF1F86420B8FBF0F09F
:102A500004012009642101FB1089A88900F40040C9
:102A600040B1322000EBC900B0FBF1F000F00700EC
:102A7000044308E0322000EB09106421B0FBF1F0C0
:102A800000F00F0004432C8106B0BDE8F087000081
:102A900000380140C1F308028280704770B5414898
:102AA000006800F0020070B13F488078012807D12B
:102AB0003E48006820B13D4801210268022090474D
:102AC0000120384908603748006800F4007078B188
:102AD0003548C078012807D13448006820B1334810
:102AE00001210268032090474FF480702D4908604F
:102AF0002C48006800F4003078B12B480079012898
:102B000007D12A48006820B1284801210268042022
:102B100090474FF480302349086022481030046801
:102B2000001F056804F0040088B905F4806070B9DE
:102B30001C480C30006840F480601A490C31086071
:102B40001B48006818B11A4801680320884704F040
:102B5000020088B905F4007070B912480C300068A2
:102B600040F400700F490C3108601148006818B13A
:102B70000F4801680120884704F0010088B905F476
:102B8000807070B9C4F307405F280AD1B0EB146FAE
:102B900007D904480C30006840F4807001490C31BA
:102BA000086070BD08640040420000204C00002016
:102BB0004800002070B53648007802281ED13548FC
:102BC000006800F0100058B1102032490860324807
:102BD0000068B0B13048062102680020904710E03C
:102BE0002C48006800F0030058B12B48006840B141
:102BF0002948022102680020904702E02020254950
:102C0000086024480C300468001F056804F00400C4
:102C100088B905F4806070B91E480830006840F437
:102C200080601C49083108601C48006818B11B48C6
:102C300001680320884704F0020088B905F4007099
:102C400070B914480830006840F400701149083128
:102C500008601248006818B11048016801208847D0
:102C600004F0010090B905F4807078B9C4F307400E
:102C70005F280BD25F20B0EB146F07D105480830F6
:102C8000006840F4807003490831086070BD00009E
:102C9000420000200C6400404C000020480000204E
:102CA00000BFFEE710B5002A06DA22F00042D21D6E
:102CB00022F00703102203E0D21C22F003030C22AF
:102CC00013B19C188C4201D9012010BD024401446B
:102CD0008360C0E90021C91AD018884202D8106068
:102CE0000246F9E70020106010BD00000549097890
:102CF000002905D000684FF6FF71DFF80CC000DF37
:102D000070470000650000202D3F00080449097845
:102D1000002903D00068DFF80CC000DF7047000016
:102D200065000020553E000808480068C0010BD52A
:102D300007480068C00707D00548803800680028A9
:102D400002DA04490120087070470000FCED00E041
:102D5000800E00E0880000204FF06042D36F002B0F
:102D6000FCD0036BD367D36F002BFCD0C07840EA54
:102D70000120A2F87C0070474FF06041CA6F002A22
:102D8000FCD081F87C0070470448008820B10348DB
:102D90000088401E01490880704700000C00002098
:102DA00038B50446601C1B4908801C208DF80000C3
:102DB00000208DF801008DF8020001208DF803003D
:102DC0006846FFF763F801218807FFF7B9FC002187
:102DD0004FF08040FFF7CCFC01218807FFF7B3FCE0
:102DE00000BF0C4800880028FBD100214FF0804034
:102DF000FFF7A9FC1C208DF8000001208DF80100D0
:102E000003208DF8020001208DF803006846FFF7CB
:102E10003DF838BD0C00002010B50446601C0C497C
:102E20000880FFF735FD00214FF08040FFF7A0FC40
:102E300001218807FFF787FC00BF054800880028AC
:102E4000FBD100214FF08040FFF77DFC10BD00005A
:102E50000C00002010B504460B480480FFF73EFD2F
:102E600000214FF08040FFF783FC01218807FFF726
:102E70006AFC00BF044800880028FBD100214FF005
:102E80008040FFF760FC10BD0C00002010B500F082
:102E900037FA01200149C87010BD00001000002061
:102EA00008B52020ADF8000003208DF8020018209E
:102EB0008DF8030069461148FDF7DFFE8020ADF86C
:102EC000000069460D48FDF7D8FE04208DF8030088
:102ED0004020ADF8000069460848FDF7CEFE1020FE
:102EE000ADF800008DF8030069460448FDF7C5FE03
:102EF00010210248FDF757FF08BD000000080140FF
:102F000010B502210248FDF743FF40B210BD00009A
:102F1000000C0140014800787047000010000020BC
:102F20000120054908700020C87003204870002067
:102F300008718870704700001000002010B5054827
:102F4000FFF75EFA00F016F8FFF7AAFF00F072F93B
:102F500010BD00000030014010B5FFF7D1FF30B1C7
:102F6000012003490870FFF7E9FFFDF749FF10BD95
:102F70001000002010B501210420FFF7ABF901215A
:102F80000803FFF7A7F910BD30B5ADF5057D044680
:102F9000002510212548FDF704FF02212448FFF7F2
:102FA000A2FAFF212248FFF79EFA207020785528C8
:102FB0000CD100206070FF211D48FFF794FAA0702B
:102FC000FF211B48FFF78FFAE07027E02078FF28E9
:102FD0000CD100206070FF211548FFF784FAA07023
:102FE000FF211348FFF77FFAE07017E0FF21104838
:102FF000FFF779FA6070207800F0E000802801D1B6
:10300000607858B1207800F06005607800EBC50565
:10301000A31C2A4601A90648FFF74AFA10210348D3
:10302000FDF7C1FE0DF5057D30BD00000008014033
:103030000030014010B510210D48FDF7B4FE01200D
:10304000FFF7AEFE10210A48FDF7ABFE00F0EAF8EC
:1030500010210748FDF7A7FE0320FFF7A1FE00F0AF
:1030600061F80A20FFF79CFE05200249487010BD58
:10307000000801401000002010B50024224800780C
:1030800018B140F6B830FFF7C9FA2048C078E8B95F
:1030900000BF01211E48FFF756FB10211D48FDF718
:1030A00080FE0220FFF7B8FE03211B48FFF71BFA42
:1030B000044604F00804082C03D0184800780128BE
:1030C000E7D110211348FDF76EFE11E00F48C078DC
:1030D00001280DD100BF1248007880F001000F498F
:1030E000097809B9012100E0002108400028F2D147
:1030F0000548007808B1FFF7A7FA084800780128CA
:1031000000D110BD0020FCE70F00002010000020BF
:103110000004004000080140003001400E00002083
:103120000000002010B50E480078012814D10122BB
:1031300004210C48FDF739FE0120FFF731FE002283
:1031400004210848FDF731FE0120FFF729FE012286
:1031500004210448FDF729FE0A20FFF721FE10BDD7
:10316000100000200008014070B505460C462E787E
:103170001048C078012801D100F0C2F80D4800784D
:1031800001280CD1284600F017F8FFF775FF18B199
:10319000FD202070012070BD2046FFF7F5FE052EB2
:1031A00005D10448C078012801D100F08FF8002033
:1031B000F1E700001000002030B5ADF5057D0446B4
:1031C000002510211548FDF7ECFD00211448FFF7FC
:1031D0008AF92078552804D155211148FFF783F941
:1031E00015E02078242803D1607800F5817508E087
:1031F0002078442803D1607800F2022501E060784D
:10320000851C01AB2A4621460548FFF751F91021DC
:103210000248FDF7C8FD0DF5057D30BD00080140F1
:103220000030014010B501210148FFF75CF910BDE5
:103230000030014000B585B06846FFF76EF94FF4E5
:103240008270ADF802002820ADF80C004FF4007039
:10325000ADF80A000220ADF806000120ADF8080024
:1032600069460448FFF706F901210248FFF7BCF858
:1032700005B000BD003001400EB54FF47A70ADF8D6
:1032800004004820ADF800000020ADF80600102032
:10329000ADF8020000208DF8080069460A48FFF7E3
:1032A00069FA00210848FFF7B7FA01210648FFF73D
:1032B00047FA012211460448FFF751FA002102485B
:1032C000FFF741FA0EBD0000000800401CB50120C8
:1032D0000949087000200949087008200090002062
:1032E0008DF804000C208DF8050001208DF80600F3
:1032F0006846FDF7BDFB1CBD01000020000000205A
:103300001CB5002009490870094908700820009080
:1033100000208DF804000C208DF8050001208DF8A8
:1033200006006846FDF7A4FB1CBD0000010000205C
:10333000000000200EB54FF47A70ADF8040048206C
:10334000ADF800000020ADF806001020ADF8020036
:1033500069460A48FFF70EFA00210848FFF75CFAB1
:1033600001210648FFF7ECF9012211460348FFF757
:10337000F6F900210148FFF7E6F90EBD0004004010
:1033800010B5044621460548FFF784FB00BF4021E5
:103390000248FFF705FB0028F9D010BD00380140B6
:1033A00070B504460D46002605E014F8010BFFF742
:1033B000E7FF701CC6B2AE42F7DB70BD0EB58022CF
:1033C00000B109B110460AE001780129FAD101A93A
:1033D00000F020F8042801D0002000E01020DDE9F2
:1033E000011203B000BD70B50D46040003D012B940
:1033F0002078012801D0802070BD204600F024FCF8
:1034000028B12946204600F030F8002070BD812008
:1034100070BD000010B504468089002824D0608962
:1034200004EB800000690860606840B160780228A1
:1034300005D10021204600F003FE00F0F1FD04F16B
:103440000C0000BFD0E85F1F491E8AB2C0E8512FB0
:103450000029F7D16089401C80B26081E1898842EF
:1034600001D100206081042010BD10B500F0E8FDFE
:10347000BDE8104000F0D4BD90B00025FF2600202C
:103480000C900D900E900F90A84800680B900020B3
:103490000790089009900A90A448001D00680690C3
:1034A00000200290039004900590A0480830006826
:1034B000019001210820FEF70DFFFEF73DFCFFF70C
:1034C00032FA0020FEF7A6FC0A20FFF7A5FCFDF764
:1034D00031F901F00FFA0020FEF7C8FC4FF4C87074
:1034E000FFF79AFC0020FEF7B5FC102190A0FFF733
:1034F00057FF1AE13046FDF79BF9054605F001003C
:10350000002837D00020FEF7B1FC0BAA06218D4819
:10351000FDF752FC00240EE00BA9601C085CC4F10E
:103520000B0106AA50540BA8015D601CC0F10B00F2
:103530001154A01CC4B20C2CEEDB83A00188ADF8A2
:10354000291080788DF82B0006227E4901A8FCF70F
:10355000F2FE00280DD07B48016801918088ADF80B
:10356000080006A8FCF713FFC7B2394606A8FFF704
:1035700017FFD7E005F0020030B30020FEF776FC1D
:103580007248C1780BAA001DFDF716FC70A00188D7
:10359000ADF83D1080788DF83F006C48C278011D71
:1035A00001A8FCF7C8FE0028E3D06848C278011DD6
:1035B00001A8FCF70BFF0BA8FCF7E9FEC7B23946E0
:1035C0000BA8FFF7EDFEADE005F0040020B30020EE
:1035D000FEF74CFC0BAA08215E48FDF7EDFB5EA050
:1035E0000188ADF83D1080788DF83F0008225949D8
:1035F00001A8FCF7A0FE0028BBD056482038016A7D
:103600000191406A02900BA8FCF7C1FEC7B239468F
:103610000BA8FFF7C5FE85E005F0080010B30020F9
:10362000FEF724FC4948C1780BAA001DFDF7C4FB36
:103630004AA000680F904548C278011D01A8FCF718
:103640007AFE00286ED04148C278011D01A8FCF71F
:10365000BDFE0BA8FCF79BFEC7B239460BA8FFF7CF
:103660009FFE5FE005F01000F8B10020FEF7FEFBC2
:103670000BAA04213B48FDF79FFB3BA000680F907D
:103680000422384901A8FCF756FE00284AD03548E4
:103690000D38D0F80D0001900BA8FCF778FEC7B2EA
:1036A00039460BA8FFF77CFE3CE005F02000A8B3EC
:1036B0000020FEF7DBFB0BAA08212248FDF77CFB6C
:1036C00000240EE00BA9601C085CC4F10F0106AADF
:1036D00050540BA8015D601CC0F10F001154A01CD8
:1036E000C4B2102CEEDB22A00188ADF8291080783E
:1036F0008DF82B000822134901A8FCF71CFE88B1A5
:103700001048016801914068029006A8FCF73FFE4E
:10371000C7B2394606A8FFF743FE03E0FFE70020E3
:10372000FEF798FB1420FFF777FBE3E670490008EB
:1037300069276D206865726520666F7220796F75E4
:10374000000000009D02002054543100B503002009
:1037500054543200C90600205454330054543441A8
:1037600000000000600600205454344200000000B5
:1037700054543500EFF3058008B182207047EFF311
:103780001480C00703D0DFF80CC000DF704700F0E2
:103790008BBF0000A946000888B0EFF3058010B188
:1037A000822008B07047EFF3148010F00301134833
:1037B00006D001291BD0022911D0032919D113E009
:1037C00008A981F309880078C0070BD05FF00200D8
:1037D00080F31488BFF34F8FBFF36F8F09E0007839
:1037E000C00706D10320F3E70078C00701D0FF200F
:1037F000D7E7DFF80CC000DFD3E70000BC490008C2
:1038000019470008EFF305820AB1FFF7D7BDDFF8CB
:1038100008C000DF7047000085470008EFF305820D
:103820000AB100207047EFF31482D20702D1044A94
:1038300052781AB1DFF80CC000DF704700F0C0BF4B
:1038400064000020C1470008DFF80CC000DFDFF88B
:103850000CC000DFFEE700002D48000849480008C2
:10386000DFF804C000DF704781480008094C4FF0C2
:10387000FF3529462068FFF7C5FF02460846102A93
:10388000F7D1FFF7EDFF0028F3D002460846904736
:10389000EFE7000030000020012806D0022805D004
:1038A000032804D0042804D102E003E002E001E090
:1038B00000E000BF00BF00BFFEE700BFFEE7000062
:1038C000074801684FF0E020416100218161072134
:1038D00001610448016841F07F4101604017704771
:1038E000B849000820ED00E0704750E8001F31B1F2
:1038F0000B6840E80032002AF7D108467047BFF352
:103900002F8FFAE710B568B161B10B3121F00302D6
:10391000016844680B1A1B1B934205D208460968CC
:103920000029F5D1002010BD210007D0211803681F
:10393000C1E90032016001F1080010BD42600830A9
:1039400010BD000070B50D46002812D04FF6FF7173
:10395000084C884204D222680146104600F09EFBC3
:1039600020684570044800F0D9F8BDE8704000F0C8
:1039700059BC70BD6C000020D41200200F4810B557
:103980000D4942680E480B680068934204D00A60F3
:10399000CB88421E1A448A808A8880B282420AD129
:1039A00000200860054800F0B9F80146BDE8104065
:1039B000024800F097BB10BD80000020D412002008
:1039C0007C00002070B5194DE86800282CD0A88A2A
:1039D000401EA882002621E0A06838B161684160DD
:1039E000606810B1A16881606660A6600F482146DA
:1039F000183800F077FBA08AA8826078042804D1E8
:103A00000B49E08A09880844A08201206070E068C0
:103A1000E860E06808B10561E6602661A88A0028D0
:103A200002D1EC68002CD7D170BD0000EC12002050
:103A30007C00002070B504000FD00D4DA178012648
:103A40002868827891420CD900F068FB286846709B
:103A50002046BDE8704000F0E5BB064800F05EF887
:103A6000F7E766702146BDE87040024800F03ABBB7
:103A70006C000020D412002010B50446008B0843CF
:103A800020836278618B062A18D0052A19D1084252
:103A900017D001EA0002628388432083204600F0A9
:103AA00068FB01206070628B0821204600F05DFBFE
:103AB0002146BDE81040034800F014BB31EA000283
:103AC000EAD010BDD4120020814202D342688A425B
:103AD00001D80120704702680A60BFF35F8F50E889
:103AE000003F0A689A42F6D140E80012002AF2D15B
:103AF0000020704768B161B10022083902E0024637
:103B0000006830B18842FAD12AB100681060002004
:103B100070470120704700214160F8E70146406886
:103B200042684A600B780022022B05D0012B03D09B
:103B3000032B01D04260704743680BB1996042602B
:103B400082607047810700D00020704770B504463E
:103B500000201546207001226270A17084F82410A4
:103B60006060A060E06020612062A082E08220832B
:103B7000608384F82500E08C18B90548FFF7B5FE8E
:103B8000E06229462046BDE8704000F01DB8000004
:103B90005008002008B1082901D2012070470144D3
:103BA000091F002201600A60426010467047000051
:103BB00003480021016003490988C1807047000063
:103BC00080000020AC49000870B5C28C1C4D9308E1
:103BD00002D12A88C2F38D03C26A02EB8302540722
:103BE00000D5121F4FF0807442E9021400242646CB
:103BF000B2F1400242F82460641C0E2CFAD3C4696E
:103C00001462826201632968C90014D5112B12D98C
:103C10004FF0FF31103B11EB53014FF0CC3305D087
:103C200042F8043C42F8083D491EF9D1C16A121F0E
:103C30008A4200D91360C06A0249016070BD000069
:103C4000A8490008A52E5AE2C1898089081A704740
:103C50000122027000224270827042600281428121
:103C6000103982818908C181704700002DE9F04137
:103C7000044640680E464FF0000804F10C05E8B316
:103C80006078012701283ED0022813D003285CD198
:103C90000846FFF72AFE050057D02046FFF73EFFF3
:103CA0000446294600F05EFA6770204600F061FA8B
:103CB000214621E02046FFF731FF0646002100F0B3
:103CC00051FA2189F06904EB81010861D5E85F0FA1
:103CD000401C81B2C5E8501F0028F7D12089401C44
:103CE00080B22081E189884201D1A4F808807770F0
:103CF000304600F03EFA3146174800E00CE0BDE8DF
:103D0000F04100F0EFB92046FFF708FF04463246C5
:103D1000102100F02AFAC7E7A089E189884216D26B
:103D2000208904EB80000661D5E85F0F401C81B25A
:103D3000C5E8501F0028F7D12089401C80B220819F
:103D4000E189884201D1A4F80880BDE8F081BDE88E
:103D5000F0410320FFF7A0BDD412002070B5044647
:103D6000808915460026C0B3608904EB8000006995
:103D700008606089401C80B26081E189884200D17E
:103D80006681606810B1607802280BD014F10C04D1
:103D9000D4E85F0F401E81B2C4E8501F0028F7D15D
:103DA000002070BD2046FFF7B9FE0546002100F057
:103DB000D9F92189E86904EB810108612089401C57
:103DC00080B22081E189884200D12681284600F016
:103DD000D0F92846FFF72EFEE2E7FFE73DB10B489A
:103DE000626801682AB1204600F07CF908E00120F1
:103DF00070BD616001684E60006884600120607081
:103E000008212846FFF79EFDF1E700006C00002026
:103E1000002814D0411C13D00C4A4FF6FE7190427A
:103E20000CD800EB4002C2EBC0120948036803EB58
:103E3000C202521EB2FBF3F0884204D90846704712
:103E40004FF6FF70704780B27047000000093D00D8
:103E5000C84900082DE9F0410446408820B1314DA1
:103E6000A1682A68914202D0FF20BDE8F081401E7F
:103E70000004000C608053D12968086AA04209D16F
:103E8000E068086208E0C268A24202D1E268C2604B
:103E900002E010460028F6D191F824000A6A06E0F4
:103EA00053681BB19B78834200D91846D268002A18
:103EB000F6D18870DFF870806168012611B3204662
:103EC000FFF72CFE0746002100F04CF9384600F0C1
:103ED00050F96680A760386AE0603C622968D8F8CB
:103EE00004008A788078824201D3384616E00E4872
:103EF00000F0F8F839460C4800F0F4F828684670ED
:103F00007E700AE0D8F804108A782968824207D9BE
:103F1000054800F0E7F8286846700020FFF78AFDA2
:103F20000020A2E76C000020D412002070B51C4DC8
:103F30000E4604464188286861B1A268824210D1C9
:103F4000A1F57F40FF3803D0491C6180002070BD7F
:103F5000FF2070BDA060016AE16004620120608002
:103F6000F4E776B191788078814203D29070A068AE
:103F700000F0DEF8606830B12046296800F0B2F841
:103F800008E0012070BD2868606029680020486052
:103F90002868846009213046FFF7D4FCF1E700006F
:103FA0006C00002070B51B48012102685170006848
:103FB00000F0B4F8184D6C7818E000BF05EBC401B0
:103FC00048680278EAB1012A20D000F0FFF8E878CA
:103FD000641C844200D100240F48801CD0E84F1F8D
:103FE000491EC9B2C0E8421F002AF7D1A8780028AC
:103FF000E4D16C700948FFF791FDBDE8704000F016
:1040000011B9098989B2FFF737FDE0E78968FFF741
:104010002DFEDCE76C000020C00E0020D412002032
:104020000548017811B101214170704703494FF0F3
:1040300080500860704700007400002004ED00E02C
:10404000F0B4154DAB1CEE784FEA0507D3E84F2FBF
:10405000B24202D1BFF32F8F11E0521CD4B2C3E899
:10406000424F002AF2D100BFD7E84F2F541CB44270
:1040700000D10024E4B2C7E8434F002BF4D1EB7821
:10408000934205D905EBC202C2E90101F0BC7047B9
:10409000F0BC0220FFF700BCC00E0020104A10B593
:1040A000D368ABB113469B8A03E08CB12246A48A45
:1040B0002344D4688B42F8D3C460D0600261C468E2
:1040C00004B12061591A8182908A401A908210BDF1
:1040D0000024C460D060C91A02619182848210BD3C
:1040E000EC12002030B502780023022A03D0012A06
:1040F00001D0032A00D101238C7800E010464268E9
:1041000012B19578A542F9D24A6041601BB102B163
:104110009160886030BD0020FBE7000003494A68D9
:10412000426000228260486070470000D412002084
:1041300010B5836804462BB9607801280ED1084B6E
:1041400003E09B6818780028FBD0204600F026F892
:104150002146BDE810401846FFF7C4BF10BD00005F
:10416000D4120020806A01627047806AC0E9081298
:10417000704710B5016900290ED0C268CA60C368D3
:1041800000223BB18B8A848A23448B82C3681961E5
:10419000C26000E08A82026110BD0000816839B10E
:1041A00042684A604168002901D080688860704791
:1041B000054906E04A68824202D14068486070477B
:1041C00011460029F6D17047D412002010B541687D
:1041D00081B1FFF7A3FC0446FFF7CBFF012060701D
:1041E00001462046FFF7BEFF2146BDE810400348C8
:1041F000FFF778BF4188491C418010BDD4120020D0
:1042000006480068D0E90A10814203D300680449D7
:10421000884202D00120FFF73FBB70476C000020AE
:10422000A52E5AE20749022248604270064A1278D7
:10423000002A05D006C98A4202D0C078FEF79CBD8C
:10424000704700006C0000208800002070B5FEF769
:104250006BFD00200446204A204902E042F820403D
:10426000401C0B889842F9D31D48342201881D4810
:10427000FEF718FD1C48008880B240F000421B4841
:1042800001681B48FEF70EFD1A48082201881A48EB
:104290000068FEF707FD194DFF20194AE870EC840D
:1042A00000212846FFF752FC1648042101704460A3
:1042B00015480170C4600461848214481549056082
:1042C000022068701248047044700978C170BDE81B
:1042D0007040FFF76DBC0000440F0020A4490008A7
:1042E000D0490008D8060020A8490008D449000891
:1042F00050080020F849000838000020A0120020D3
:10430000BB380008D4120020EC1200206C00002002
:10431000C00E0020DC4900081B4810B5016841F4BC
:104320007F01016000684FF07F4101EA00201649DB
:10433000C0431439B0FA80F00968C0F10800C1F335
:104340000221814200D3481C0F49091F0B686FF0FE
:104350008072824063F317020A60FFF7B1FA0B49DB
:10436000002808600EDB00F1E021FF2281F8002424
:1043700000F01F02012191404009800000F1E0207F
:10438000C0F8001110BD000020ED00E07800002012
:104390000C4810B50268012151700068FFF7BEFE9D
:1043A000FFF7ECFA08480168491C0160FFF70AFBB7
:1043B00000F072FA0548FFF7B1FBBDE81040FFF7C7
:1043C00031BF00006C0000207C000020D4120020CF
:1043D000002805D0810702D10178002900D00020F3
:1043E0007047000030B50B4C0023626805E095680B
:1043F0008D4204D813461268491B002AF7D1026087
:10440000816012B19568691A91600BB1186030BD76
:10441000606030BD640000202DE9F0411E46174663
:1044200080460D4611F0FF0F00D14D1C1848FFF7D4
:104430005CFA041E16D0280AE762E084E9B242461C
:104440002046E661FFF782FB01251248124905E08C
:1044500000EB850252F8042C32B16D1C0A8895429B
:10446000F6D90020BDE8F081002DFAD000EB8500E0
:1044700040F8044C0948E570007818B10121204645
:10448000FEF76AFC2046FFF7D5FA2846EAE7000067
:10449000D8060020440F0020A4490008880000200E
:1044A0002DE9F05F584DDFF85891DFF85881296801
:1044B0004FF0010A002618B1CA78AB46824243D1B8
:1044C0004E70FBF776FE29688862FFF799FE286830
:1044D000046A1FE06068C0B12046FFF71FFB074673
:1044E0000021FFF73FFE3846FFF743FE87F801A0A3
:1044F00039464648FFF7F6FDE168A4F802A0A76038
:10450000386AE0603C620C4604E0E0686680A660C1
:10451000E6600446002CDDD12868C27808EB8201F1
:1045200041F8046CC16A3A48FFF7CEFA2868C662BF
:1045300099F8001011B10021FEF70EFC35482968EA
:10454000FFF7C2FA2E6056E03349098888420CD83A
:1045500008EB800858F8045C3DB12846FFF71EFEC2
:104560002846FFF706FE2C6A22E0FF20BDE8F09FF8
:104570006068C0B12046FFF7D1FA07460021FFF777
:10458000F1FD3846FFF7F5FD87F801A039461F48D1
:10459000FFF7A8FDE168A4F802A0A760386AE06010
:1045A0003C620C4604E0E0686680A660E660044673
:1045B000002CDDD148F8046C1548E96AFFF784FA4D
:1045C000EE6299F8000018B100212846FEF7C4FBFE
:1045D00029461048FFF778FA0C48DBF800104068CD
:1045E0008B7882789A4209D981F801A00748DBF8D4
:1045F0000010FFF777FD0020FFF71CFA0020B5E759
:1046000088000020440F00206C000020D4120020FD
:1046100050080020D8060020A449000870B51A4DA3
:1046200080B11A4A128890421FD8194A02EB8000C2
:1046300050F8044CCCB1A17084F824102868A04232
:1046400005D014E028688170286880F8241011488B
:1046500040688078884215D90E482968FFF742FDE6
:1046600029680120487000200AE0FF2070BD204624
:10467000FFF75EFD6078012804D10648FFF74EFA87
:10468000FFF7D8F9002070BD6C000020A449000895
:10469000440F0020D412002002480068002800D0F7
:1046A000C07870476C00002010B5134C207860B9BA
:1046B0001248400705D1124801681048FFF76AFA0E
:1046C00008B1852010BDFFF7C1FD0E49FF20096824
:1046D0008870207858B900210B4800F041F80B4948
:1046E000086000210A4800F06BF80A4908600120C0
:1046F00020700020607010BD64000020100D0020AC
:10470000D84900086C000020F04900083000002063
:10471000E04900082C00002070B50F4D687808B102
:10472000002070BD0D4C206890F824100020FFF789
:1047300075FF2068C178FF2903D1816A203181F398
:104740000988616811B9606000202060FFF7E4FD0E
:1047500001206870E4E70000640000206C00002085
:1047600010B5040005D0216819B1606808B102785D
:104770000AB1002010BD8900103189B2FFF768FA34
:10478000606810BD3EB504000D464FF0800012D0A9
:10479000217801290FD12846FFF73AFB024620462F
:1047A00001A9FFF7DBFA012801D0102003E00DB1C9
:1047B000402000E00020DDE9011203B030BD000020
:1047C00070B50E46040029D0206838B3606810F137
:1047D000030F23DB032821DCE16829B11048FFF730
:1047E00091F805001AD000E000256068E168001D1E
:1047F00040EA012133462A462068FFF70DFE40B10A
:10480000084901EB8000084950F8040C826A5163A2
:1048100070BD1DB129460248FFF76CF9002070BD3C
:10482000100D0020440F00204938000810B5FFF794
:1048300033FF002804D0034901EB800050F8040C3A
:1048400010BD0000440F002010B5FFF7C1FD18B1E6
:10485000C18C19B1C46A02E0802010BD0024C07868
:10486000FFF71EFEFF2806D01CB121460348FFF7C4
:1048700041F9002010BD812010BD0000100D002066
:1048800010B5FFF75FF920B141690A680169104668
:1048900010BD0020014610BD2DE9F041134E746893
:1048A000002C1CD0A068124F401E4FF00108A060E1
:1048B00012E0254624687460002229463868FEF715
:1048C00092FD10B10420FEF7E7FF6879012808D0B7
:1048D00085F80480002C02D0A0680028E9D0BDE84B
:1048E000F0812846E968FFF77DFDF3E764000020CA
:1048F0003000002000B585B0012144F20500FDF72D
:10490000E9FC4FF40070ADF8100003208DF81200A0
:1049100018208DF8130004A91348FCF7AEF94FF4E2
:104920008060ADF8100004208DF8130004A90E4833
:10493000FCF7A3F94FF4E13000900020ADF804003B
:10494000ADF80600ADF80800ADF80C000C20ADF88D
:104950000A0069460548FEF731F801210348FEF7D1
:1049600013F805B000BD0000000801400038014008
:104970002000000020000000200000000408780053
:104980000000000000A800001D0000000000080159
:10499000000000000004050012FC010304000000F8
:1049A0000100000007000000C8000201050001002E
:1049B000001BB7000C000000DF2E0000010000000B
:1049C0000200010052000400E803000000000000A3
:1049D00078010000C0040000B001000010000000D9
:1049E0006D3800080200000001000000C80000004F
:1049F00004000000600F002000000000793400086F
:104A00000000000001000000C80000002C4A00085F
:104A1000000000208C00000028010008B84A0008AF
:104A20008C000020DC180000440100080000000099
:104A30000000000000000000000000010000000075
:104A40000000000000000000340100000000200011
:104A50000400000000080140000000000000000009
:104A60000000000000000000000000000000000046
:104A70000000000000000000000000000000000036
:104A800001020304010203040607080902040608E0
:104A90000000000000000000000000000000000016
:104AA0000000000000000000000000000000000006
:084AB0000000000000000000FE
:04000005080000ED02
:00000001FF
